:100000000C94B4150C94ED150C94ED150C94ED15A1
:100010000C94ED150C94ED150C94ED150C94ED1558
:100020000C94ED150C94ED150C94ED150C94ED1548
:100030000C94ED150C945D6E0C94ED150C94ED156F
:100040000C94FDC60C94ED150C94B2C10C94ED15F6
:100050000C94DC400C94D2400C94ED150C94ED15EE
:100060000C94ED150C94ED150C94ED150C94ED1508
:100070000C94ED150C94ED150C94ED150C94ED15F8
:100080000C94F4350C94ED150C94ED150763423681
:10009000B79BD8A71A39685618AEBAAB558C1D3C19
:1000A000B7CC5763BD6DEDFD753EF6177231BF00DD
:1000B0000000803F08000000BE922449123EABAA17
:1000C000AA2ABECDCCCC4C3E00000080BEABAAAA72
:1000D000AA3E00000000BF000000803F00000000BA
:1000E00000084178D3BB4387D1133D190E3CC3BDF3
:1000F0004282AD2B3E68EC8276BED98FE1A93E4CA0
:1001000080EFFFBE01C4FF7F3F00000000004E41B2
:100110004E494E495459494E46CDCCCC3D0AD72381
:100120003C17B7D13877CC2B329595E6241FB14FC9
:100130000A000020410000C84200401C4620BCBE0E
:100140004CCA1B0E5AAEC59D7400407A10F35A007B
:10015000A0724E18090010A5D4E80000E8764817F0
:100160000000E40B54020000CA9A3B000000E1F5D5
:1001700005000080969800000040420F000000A09B
:100180008601000000102700000000E803000000C6
:10019000006400000000000A0000000000010000F0
:1001A0000000002C76D888DC674F0823DFC1DFAE63
:1001B00059E1B1B796E5E3E453C63AE6519976962C
:1001C000E8E6C28426EB898C9B62ED407C6FFCEFF5
:1001D000BC9C9F40F2BAA56FA5F490055A2AF75C23
:1001E000936B6CF9676DC11BFCE0E40D47FEF520D5
:1001F000E6B500D0ED902E0300943577050080849D
:100200001E080000204E0A000000C80C33333333B0
:100210000F986E12831141EF8D2114893BE655161C
:10022000CFFEE6DB18D1844B381BF77C1D901DA454
:10023000BBE424203284725E228100C9F124ECA147
:10024000E53D27434F4D4D554E49434154494F4E8F
:100250000044525952554E004552524F5253004994
:100260004E464F004543484F0053544F505045446D
:100270002E20005072696E7465722073746F7070F6
:1002800065642064756520746F206572726F727387
:100290002E2046697820746865206572726F72201E
:1002A000616E6420757365204D39393920746F2073
:1002B000726573746172742E202854656D70657256
:1002C00061747572652069732072657365742E2080
:1002D0005365742069742061667465722072657359
:1002E00074617274696E67290A004E6F20436865F5
:1002F000636B73756D2077697468206C696E652017
:100300006E756D6265722C204C617374204C696E41
:10031000653A2000636865636B73756D206D697362
:100320006D617463682C204C617374204C696E6538
:100330003A20004C696E65204E756D6265722069C9
:1003400073206E6F74204C617374204C696E65204D
:100350004E756D6265722B312C204C617374204C8C
:10036000696E653A20004D31313000536572696124
:100370006C20737461747573206D69736D6174633F
:10038000680A00746F6F206D75636820696E616321
:10039000746976652074696D65202D2063757272AD
:1003A000656E7420636F6D6D616E643A200021216B
:1003B000204B494C4C206361757365642062792041
:1003C00000627573793A2070617573656420666F99
:1003D0007220696E7075740A00627573793A2070C4
:1003E000617573656420666F7220757365720A00AB
:1003F000627573793A2070726F63657373696E67A3
:100400000A00506C65617365205265736574005015
:1004100052494E5445522048414C544544002553BE
:100420003A202553004B494C4C45442E2000507235
:10043000696E7465722068616C7465642E206B69E6
:100440006C6C28292063616C6C6564210A0065630B
:10045000686F3A004572726F723A0042696C696E59
:10046000656172204C6576656C696E6720477269BC
:10047000643A0A004F46460A0046616465204865B2
:10048000696768742000426564204C6576656C6914
:100490006E6720004661696C656420746F20656E2C
:1004A00061626C6520426564204C6576656C696E9E
:1004B000670A00496E76616C6964206D6573682E09
:1004C0000A0050726F62696E6720506F696E740027
:1004D00025532025692F2569002E0A002F00507210
:1004E0006F62696E67206D65736820706F696E74E6
:1004F0002000202844525952554E290047323920B5
:100500004175746F20426564204C6576656C696E38
:1005100067003F20284C2C522C462C4229206F7516
:1005200074206F6620626F756E64732E0A00290A4C
:10053000003F466565647261746520285329207404
:100540006F6F206C6F772E20285573696E672000BF
:100550003F2856296572626F7365206C6576656CFD
:1005600020696D706C61757369626C652028302D2F
:1005700034292E0A00426164205A2076616C756528
:100580000A004E6F2062696C696E65617220677245
:1005900069640A0020440020204D3230302053008E
:1005A000202844697361626C6564293A0046696C6D
:1005B000616D656E742073657474696E6773002075
:1005C000204D3230312058004D6178204163636501
:1005D0006C65726174696F6E2028756E6974732F13
:1005E0007332290020204D3230332058004D61787D
:1005F000206665656472617465732028756E697420
:10060000732F73290020520020204D3230342050A7
:1006100000416363656C65726174696F6E20287553
:100620006E6974732F7332292028503C7072696E82
:10063000742D616363656C3E20523C726574726117
:1006400063742D616363656C3E20543C7472617603
:10065000656C2D616363656C3E2900204A0020545F
:100660000020530020204D32303520420041647676
:10067000616E6365642028423C6D696E5F736567D7
:100680006D656E745F74696D655F75733E20533C74
:100690006D696E5F66656564726174653E20543C89
:1006A0006D696E5F74726176656C5F6665656472B4
:1006B0006174653E204A3C6A756E635F6465763E90
:1006C000290020440020490020204D3330312050A3
:1006D00000486F74656E6420504944002044002037
:1006E000490020204D3330342050004265642050B2
:1006F0004944002E0A007D0BDC29D929D629206E19
:100700006F742064697361626C65642E2053686144
:1007100072656420776974680020496E76616C693F
:10072000642065787472756465722000536C656529
:10073000702E2E2E005A2050726F62652050617309
:1007400074204265640A005A2050726F626520501E
:1007500061737420426564004732384C30005A207F
:1007600050726F626520506173742042656400208E
:100770005A3A0020593A0042656420583A004D65C3
:10078000736820706F696E74206F7574206F6620B7
:1007900072616E67650A00436C69636B20746F2039
:1007A000526573756D652E2E2E00616C736F20651A
:1007B0006E61626C6564290A004E6F204D6F76652C
:1007C0002E002569730025696D2025697300256950
:1007D000682025696D2025697300256964202569D5
:1007E000682025696D2025697300256979202569B0
:1007F00064202569682025696D2025697300507281
:10080000696E742074696D653A20006F6B004C69E5
:100810006E653A20006F66660064025F02580251FE
:1008200002430244454255473A004D31313220538C
:10083000687574646F776E004D3131332053004218
:100840007269782043522D3130204F46462E0020C9
:10085000732E0A00496E6163746976697479207435
:10086000696D656F75742000434F4E4649475F457B
:1008700058504F5254004D4541545041434B004352
:100880004F4F4C45525F54454D504552415455527F
:1008900045004348414D4245525F54454D504552F5
:1008A00041545552450045505F42414259535445C9
:1008B0005000424142595354455050494E4700411F
:1008C000524353004D4F54494F4E5F4D4F44455393
:1008D00000544845524D414C5F50524F544543548B
:1008E000494F4E00455854454E4445445F4D3230C3
:1008F00000435553544F4D5F4649524D5741524561
:100900005F55504C4F4144004C464E5F575249543E
:1009100045004C4F4E475F46494C454E414D4500C2
:100920004155544F5245504F52545F53445F5354B6
:10093000415455530053445F575249544500524562
:1009400050454154005344434152440050524F4D8E
:1009500050545F535550504F525400484F53545FBA
:10096000414354494F4E5F434F4D4D414E44530018
:10097000454D455247454E43595F504152534552AC
:1009800000434153455F4C494748545F42524947F1
:1009900048544E45535300544F47474C455F4C49CC
:1009A0004748545300534F4654574152455F504FA8
:1009B000574552004255494C445F50455243454EBD
:1009C00054004C4556454C494E475F444154410004
:1009D0005A5F50524F42450052554E4F55540041B8
:1009E00055544F4C4556454C005052494E545F4A61
:1009F0004F420050524F4752455353004155544FB8
:100A00005245504F52545F54454D50004155544F3C
:100A10005245504F52545F504F5300564F4C554D16
:100A2000455452494300454550524F4D0042494EAE
:100A30004152595F46494C455F5452414E534645D9
:100A4000520053455249414C5F584F4E5F584F46F4
:100A500046004649524D574152455F4E414D453A39
:100A60004D61726C696E206275676669782D322EF1
:100A7000312E7820284665622020342032303236EC
:100A80002031373A30313A31332920534F555243D0
:100A9000455F434F44455F55524C3A6769746875EA
:100AA000622E636F6D2F4D61726C696E4669726D57
:100AB000776172652F4D61726C696E2050524F5490
:100AC0004F434F4C5F56455253494F4E3A312E30AB
:100AD000204D414348494E455F545950453A427272
:100AE00069782043522D3130204B494E454D4154B9
:100AF0004943533A43617274657369616E20455886
:100B00005452554445525F434F554E543A31205547
:100B10005549443A63656465326132662D3431610A
:100B2000322D343734382D396231322D6335356307
:100B30003632663336376666002F2F004D31343536
:100B400020533C696E6465783E206F7574206F6633
:100B50002072616E67652028302D31290A003F4AD6
:100B6000206F7574206F662072616E676520283073
:100B70002E303120746F20302E33290A0020580087
:100B80003B200020204D61783A2000200020204D9D
:100B9000696E3A2000203B200020204D3231312068
:100BA0005300250A0046523A0020466C6F773A20DF
:100BB000003A200020536572766F2000206F757414
:100BC000206F662072616E67650A00536572766FEA
:100BD000200064697300656E0043290061626C65E2
:100BE0006420286D696E2074656D702000436F6C01
:100BF0006420657874727564657320617265200085
:100C00004D34323120696E636F7272656374207087
:100C10006172616D657465722075736167650A0044
:100C20004D65736820706F696E74206F7574206FE6
:100C3000662072616E67650A004F6666736574733D
:100C4000204170706C696564004D494E2F4D4158CC
:100C500020546F6F2046617200546F6F206661727E
:100C60002066726F6D204D494E2F4D41580A004548
:100C70004550524F4D204F4B0A00290A0020746FF7
:100C800020003F5A206F7574206F662072616E6776
:100C900065202800290A0020746F20003F59206F2A
:100CA0007574206F662072616E6765202800290ABE
:100CB0000020746F20003F58206F7574206F6620ED
:100CC00072616E67652028006F6B0020204D323006
:100CD00036205800486F6D65206F66667365740036
:100CE0004361703A00203B0020204D3835312058B8
:100CF000005A2D50726F6265204F666673657400EE
:100D000020573A00436F6F6C696E672E2E2E004598
:100D1000312025530020460020420020204D313054
:100D2000342053004175746F2054656D7020436FFB
:100D30006E74726F6C0020573A0042656420436FF6
:100D40006F6C696E672E2E2E0042656420486561C7
:100D500074696E672E2E2E0023646566696E6520A9
:100D600044454641554C545F00004245445F004BAA
:100D70004420004B4920004B5020002066696E69DA
:100D800073686564212050757420746865206C61F7
:100D90007374204B702C204B6920616E64204B646F
:100DA00020636F6E7374616E74732066726F6D2052
:100DB00062656C6F7720696E746F20436F6E666931
:100DC0006775726174696F6E2E680A00504944201D
:100DD0004175746F74756E6500206661696C656439
:100DE000212074696D656F75740A00504944204173
:100DF00075746F74756E6500206661696C65642139
:100E00002054656D706572617475726520746F6FC2
:100E100020686967680A00504944204175746F74FE
:100E2000756E6500504944204379636C65730025F5
:100E3000532025692F256900204B643A2000204B60
:100E4000693A2000204B703A200020436C61737394
:100E5000696320504944200A00204E6F206F766558
:100E60007273686F6F740A002054753A2000204B2B
:100E7000753A2000206D61783A2000206D696E3A45
:100E8000200020643A200020626961733A20004803
:100E9000656174696E672E2E2E0020737461727402
:100EA0000A00504944204175746F74756E650020C6
:100EB0006661696C6564212054656D70657261744A
:100EC00075726520746F6F20686967680A00504901
:100ED00044204175746F74756E650050494420411B
:100EE00075746F74756E6500206661696C65642148
:100EF00020426164206865617465722069640A003B
:100F0000504944204175746F74756E650045727266
:100F10003A207574663820666F6E74206E6F742088
:100F2000696E697469616C697A65642E00457272D4
:100F30003A207574663820666F6E74206E6F742068
:100F4000696E697469616C697A65642E00457272B4
:100F50003A207574663820666F6E74206E6F742048
:100F6000696E697469616C697A65642E0020003A63
:100F7000003A002000200020002000200025002052
:100F800020202020202000202020200065727200D8
:100F90001FE0201020102010102010202010201002
:100FA00030300840048003001FE03FF03FF03FF086
:100FB0001FE01FE03FF03FF03FF00FC0078003004D
:100FC0003FFFF038007030FC3020FC1020781020FB
:100FD00030102C00D02E31D02F7BD02F7BD02E3153
:100FE000D02C00D020301020781020FC1030FC30A5
:100FF0003800703FFFF03FFFF0380070318630233B
:1010000087102787902F87D02F03D020301020788B
:10101000102078102030102F03D02F87D0278790F2
:101020002387103186303800703FFFF01FFFF81F14
:10103000FFF8041040020820020820041040082095
:101040008010410010410008208004104000000082
:101050001FFFF81FFFF83E0FF0C18618C1860C0174
:1010600086040306041F0604030604018604C186E1
:101070000CC186183E0FF042656400456E636C6FCC
:1010800073757265003F0049676E6F726500526547
:1010900073657400496E697469616C697A6520458D
:1010A0004550524F4D0046696C2E204469612E0018
:1010B0004F6666004F6E004520696E206D6D5E3391
:1010C0000020082046616374002008204D617800EC
:1010D0002008204D696E004D696E2054726176655E
:1010E0006C205370656564004D696E2056656C6FA9
:1010F00063697479004D61782040205370656564A0
:10110000004D6178204520416363656C004D617836
:10111000204020416363656C0054726176656C20E9
:10112000416363656C00526574726163742041634E
:1011300063656C00416363656C00000C0F00FE0783
:10114000022503BB017FFE08FE08FE050808060015
:101150000040F0C88888987810050808060000C08C
:10116000F88888888888F80505050600012030F889
:1011700030200508080600002070F820202020E01C
:101180000509090600FF2070A8A8B8888870200704
:101190000505070001D86C366CD80509090600FF63
:1011A000F8A88888888888A8F8050A0A0600FE201A
:1011B0005050505088A8A8887003030306000340CD
:1011C000A040FFFFFFFFFFFFFFFFFFFFFFFFFFFF4D
:1011D000FFFFFFFFFFFFFFFF0000000605FF010705
:1011E00007060200808080808000800303030601E0
:1011F00005A0A0A005060606000050F85050F850C3
:101200000509090600FF2070A8A07028A870200515
:101210000707060000C8C810204098980507070671
:10122000000040A0A040A8906801030306020580CA
:1012300080800309090601FF2040408080804040F3
:10124000200309090601FF80404020202040408003
:1012500005070706000020A8702070A820050505D6
:101260000600012020F820200203030601FFC040F1
:1012700080050101060003F8020202060100C0C059
:1012800005070706000008101020404080050707EA
:10129000060000708898A8C8887003070706010038
:1012A00040C040404040E005070706000070880845
:1012B000102040F8050707060000F80810300888DD
:1012C0007005070706000010305090F81010050751
:1012D00007060000F880F008088870050707060078
:1012E00000304080F0888870050707060000F80885
:1012F00010102020200507070600007088887088DD
:10130000887005070706000070888878081060025A
:101310000505060100C0C000C0C00206060601FFA8
:10132000C0C000C040800305050601012040804088
:1013300020050303060002F800F803050506010175
:10134000804020408005070706000070881020209C
:1013500000200507070600007088B8A8B88070054F
:101360000707060000708888F88888880507070640
:101370000000F04848704848F00507070600007074
:10138000888080808870050707060000F04848487C
:101390004848F0050707060000F88080F08080F8D4
:1013A000050707060000F88080F0808080050707A9
:1013B0000600007088808098887005070706000086
:1013C000888888F8888888030707060100E040407D
:1013D000404040E00507070600003810101010904C
:1013E000600507070600008890A0C0A09088050748
:1013F00007060000808080808080F80507070600CF
:101400000088D8A88888888805070706000088888B
:10141000C8A898888805070706000070888888880B
:101420008870050707060000F08888F08080800536
:10143000070706000070888888A8906805070706D7
:101440000000F08888F0A09088050707060000706B
:10145000888070088870050707060000F8202020A3
:101460002020200507070600008888888888887063
:101470000507070600008888888850502005070760
:1014800006000088888888A8A8500507070600007D
:1014900088885020508888050707060000888850F3
:1014A00020202020050707060000F80810204080B3
:1014B000F80309090601FFE080808080808080E0D9
:1014C00005070706000080404020101008030909A6
:1014D0000601FFE020202020202020E00503030655
:1014E00000052050880501010600FEF803030306ED
:1014F0000105804020050505060000700878887801
:101500000507070600008080F0888888F00505053B
:101510000600007080808870050707060000080834
:1015200078888888780505050600007088F0807046
:10153000050707060000304840E040404005070727
:101540000600FE7088888878087005070706000086
:101550008080F0888888880307070601004000C063
:10156000404040E00409090601FE10003010101050
:1015700010906005070706000080808890E0908842
:10158000030707060100C04040404040E005050554
:10159000060000D0A8A8A8A8050505060000B0C848
:1015A000888888050505060000708888887005070A
:1015B000070600FEF0888888F0808005070706008F
:1015C000FE78888888780808050505060000B0C8F8
:1015D00080808005050506000078807008F005070A
:1015E000070600002020F820202018050505060029
:1015F0000088888898680505050600008888885056
:10160000200505050600008888A8A85005050506E0
:10161000000088502050880507070600FE8888884B
:1016200050204080050505060000F8102040F80312
:1016300009090601FF204040408040404020010948
:10164000090602FF808080808080808080030909F5
:101650000601FF80404040204040408005030306D3
:10166000000248A890FF41425300504C410045728F
:10167000723A20454550524F4D20436F727275703B
:1016800074004572723A20454550524F4D204352E6
:1016900043004572723A20454550524F4D205369E0
:1016A0007A65004572723A20454550524F4D20569A
:1016B000657273696F6E00402073746570732F6D6F
:1016C0006D00416476616E6365642053657474696E
:1016D0006E6773003F0043616E63656C00496E691D
:1016E00074004D34323800496E697469616C697AEE
:1016F0006520454550524F4D0046696C616D656EE1
:10170000740054656D706572617475726500537410
:101710006570732F6D6D004A756E6374696F6E200E
:1017200044657600416363656C65726174696F6ED0
:10173000004D617820537065656420286D6D2F73AE
:10174000290053657420486F6D65204F6666736588
:10175000747300436F6E66696775726174696F6E4A
:101760000053572D4D6F64650053746F77004465C7
:10177000706C6F790053656C662D546573740052FC
:101780006573657400426564004E6F7A7A6C65001B
:1017900046616E20537065656400436F6E666967CD
:1017A00075726174696F6E00526573746F72652033
:1017B00044656661756C7473004C6F616420536599
:1017C0007474696E67730053746F72652053657427
:1017D00074696E67730050726568656174202420B7
:1017E00053657474696E677300424C546F75636817
:1017F00000416476616E6365642053657474696E3C
:101800006773004D61696E204D656E7500436F6EA4
:1018100066696775726174696F6E0054656D706595
:101820007261747572650050726F626520616E64DA
:10183000204C6576656C004D6F74696F6E00547551
:101840006E6500496E666F2053637265656E002198
:1018500000486F74656E6420746F6F20636F6C64F2
:10186000004261636B0050726F63656564004D6F89
:101870007665204578747275646572004D6F746981
:101880006F6E0044697361626C652053746570709B
:10189000657273004D3834004175746F20486F6D68
:1018A00065004D61696E204D656E750053746F72F1
:1018B000652053657474696E67730050726F62655A
:1018C0002040204F66667365740053746F77205A0A
:1018D0002D50726F6265004D343032004465706C7B
:1018E0006F79205A2D50726F6265004D343031008F
:1018F0004661646520486569676874004C65766573
:101900006C20426564004732394E00473239004F3F
:101910006666004F6E00426564204C6576656C69B2
:101920006E67004175746F20486F6D6500473238EF
:10193000004D61696E204D656E7500507265686579
:10194000617420242042656400507265686561748A
:10195000202420486F74656E640054656D70657254
:101960006174757265006A166616436F6F6C646FFA
:10197000776E005072656865617420240046616E60
:1019800020537065656400426564004E6F7A7A6C1E
:1019900065004D61696E204D656E7500426162792A
:1019A00073746570205A00426162797374657020A7
:1019B0004000466C6F770046616E20537065656429
:1019C00000426564004E6F7A7A6C650053706565FD
:1019D00064004D61696E204D656E7500486F6D69DC
:1019E0006E67204661696C6564006F70656E0054B7
:1019F0005249474745524544003A20007A5F6D6995
:101A00006E00795F6D696E00785F6D696E0052657A
:101A1000706F7274696E6720656E6473746F702086
:101A20007374617475730A0020746F6F206C6F6E2D
:101A30006720657874727573696F6E207072657651
:101A4000656E7465640A0020636F6C642065787449
:101A5000727573696F6E2070726576656E746564F9
:101A60000A00486F6D652025732046697273740003
:101A70000000000000000000000000005761726ECE
:101A8000696E673A20486F6D696E672042756D70A8
:101A90002044697669736F72203C20310A0002028B
:101AA000040000A0400000A0400000004053544F3C
:101AB000505045442E20005072696E746572207338
:101AC000746F707065642064756520746F20657232
:101AD000726F72732E204669782074686520657273
:101AE000726F7220616E6420757365204D393939CB
:101AF00020746F20726573746172742E202854658F
:101B00006D7065726174757265206973207265739A
:101B100065742E2053657420697420616674657243
:101B20002072657374617274696E67290A0020659A
:101B300072726F72202D20726573746172742077D7
:101B4000697468204D3939390A00424C546F756305
:101B5000680021212053544F502063616C6C6564F0
:101B60002062656361757365206F6620000000A0C8
:101B700043000096430000C843000000000000003E
:101B8000000000000053657474696E67732053741D
:101B90006F72656400290A002062797465733B20C6
:101BA000637263200053657474696E6773205374A5
:101BB0006F726564202800204D61726C696E3D561D
:101BC0003930290A00454550524F4D2076657273D1
:101BD000696F6E206D69736D617463682028454577
:101BE00050524F4D3D00454550524F4D2064617459
:101BF0006173697A65206572726F722E0A0057618F
:101C0000726E696E673A00202863616C63756C615F
:101C100074656429210A0020213D20004545505269
:101C20004F4D20435243206D69736D61746368208A
:101C30002D202873746F7265642920004545505229
:101C40004F4D20436F72727570740A002053697A89
:101C5000653A2000496E6465783A20002062797404
:101C600065733B2063726320002073746F72656438
:101C70002073657474696E67732072657472696528
:101C800076656420280048617264636F646564202F
:101C900044656661756C742053657474696E67730E
:101CA000204C6F616465640000401C4500401C4589
:101CB0000000C8420000C8410000A0420000A0424D
:101CC0000000C8430000BE42F4010000F40100001F
:101CD000640000008813000020286D6D29004F4625
:101CE00046004F4E00203B204C6576656C696E6760
:101CF000200020204D3432302053004175746F2075
:101D0000426564204C6576656C696E67002046000C
:101D100020420020480020204D3134352053004D12
:101D20006174657269616C2068656174757020709A
:101D30006172616D657465727300204A00202047EE
:101D40003239205720490020204D3134392043209A
:101D50003B20556E69747320696E2043656C73690E
:101D600075730A0054656D706572617475726520D3
:101D7000556E697473002020473231203B004C6956
:101D80006E65617220556E6974730024F4D430500E
:101D9000C38D20C3A24117828B7011127A900D82DD
:101DA0006CDA0AA861E108C7586607615142061F4C
:101DB0004B5E05C145A6041B411204093D97037201
:101DC0003931034136DB0266339202D4305302814B
:101DD0002E1D02642CEE01762AC501B128A1011046
:101DE0002781018F2564012B244A01E1223401ADB2
:101DF0002120018D200C01811FFC00851EED009823
:101E00001DDF00B91CD200E71BC700201BBB00650B
:101E10001AB200B319A9000A19A0006A189800D2D2
:101E200017920040178A00B616840032167E00B45E
:101E30001579003B157400C7146F0058146A00EE42
:101E40001366008813620026135E00C8125B006DE3
:101E500012570016125500C111510070114E002288
:101E6000114C00D61049008D104600471045000265
:101E7000104200C00F4000800F3E00420F3C0006A1
:101E80000F3A00CC0E3900930E37005C0E35002758
:101E90000E3400F30D3200C10D3100900D2F0061A2
:101EA0000D2F00320D2D00050D2C00D90C2A00AF8E
:101EB0000C2A00850C28005D0C2800350C27000E2C
:101EC0000C2500E90B2500C40B2400A00B23007D8A
:101ED0000B22005B0B21003A0B2100190B2000F9AB
:101EE0000A1F00DA0A1F00BB0A1E009D0A1D00809F
:101EF0000A1C00640A1C00480A1C002C0A1B001162
:101F00000A1A00F7091A00DD091900C4091900AB03
:101F1000091800930918007B091700640917004D80
:101F200009170036091600200915000B091500F6DF
:101F3000081500E1081500CC081400B8081400A426
:101F4000081300910813007E0813006B0812005953
:101F50000812004708120035081200230811001269
:101F600008110001081000F1071100E0071000D06F
:101F7000071000C0070F00B1071000A1070F009263
:101F8000070F0083070F0074070E0066070E005846
:101F9000070E004A070E003C070E002E070D002119
:101FA000070D0014070D0007070D00FA060D00EDE0
:101FB000060C00E1060D00D4060C00C8060C00BC9F
:101FC000060C00B0060B00A5060C0099060B008E4F
:101FD000060B0083060B0078060B006D060B0062F3
:101FE000060B0057060A004D060A0043060B003890
:101FF000060A002E060A00240609001B060A001124
:10200000060A0007060900FE050A00F4050900EBB0
:10201000050900E2050900D9050900D0050900C736
:10202000050800BF050900B6050900AD050800A5B3
:102030000508009D050800950509008C0508008429
:102040000508007C050700750508006D050800659A
:102050000507005E050800560507004F0508004704
:102060000507004005070039050700320507002B6A
:10207000050700240507001D050700160507000FCA
:102080000506000905070002050600FC040700F527
:10209000040600EF040700E8040600E2040600DC82
:1020A000040600D6040600D0040700C9040500C4D5
:1020B000040600BE040600B8040600B2040600AC24
:1020C000040600A6040500A10406009B0405009672
:1020D000040600900405008B0406008504050080BA
:1020E0000405007B04050076040600700405006BFF
:1020F00004050066040500610405005C0405005742
:10210000040500520405004D040500480404004481
:102110000405003F0405003A0404003604050031BC
:102120000405002C04040028040500230404001FF7
:102130000405001A04040016040400120405000D2E
:10214000040400090404000504040001040500FC63
:10215000030400F8030400F4030400F0030400EC9B
:10216000030400E8030400E4030400E0030400DCCB
:10217000030400D8030400D4030300D1030400CDFA
:10218000030400C9030400C50304000000000000AC
:10219000000000000000000000000000000000003F
:1021A000000000D1036D6403570D0347C6023B8B4B
:1021B000023259022B2E0225090221E8011CCC0112
:1021C0001AB201179B011487011374011163010FE7
:1021D00054010E46010D39010D2C010B21010A1786
:1021E000010A0D0109040108FC0008F40007ED00D4
:1021F00007E60007DF0006D90006D30005CE00067B
:10220000C80005C30004BF0005BA0004B60004B24C
:102210000004AE0004AA0004A60003A300049F006B
:10222000039C0003990003960003930002910003AE
:102230008E00028C00038900028700038400028262
:1022400000028000027E00027C00027A0002780018
:102250000276000175000273000271000170000235
:102260006E00016D00026B00016A000268000167E8
:102270000002650001640001630001620002600069
:10228000015F00015E00015D00015C00015B000177
:102290005A0001590001580001570001560001552C
:1022A000000154000153000152000151000051008F
:1022B000015000014F00014E00014D00004D000192
:1022C0004C00014B00014A00004A0001490001484E
:1022D000000048000147000146000046000145009B
:1022E000004500014400014300004300014200009A
:1022F0004200014100004100014000004000013F58
:1023000000003F00013E00003E00013D00003D0096
:10231000013C00003C00013B00003B00013A000092
:102320003A00013900003900003900013800003856
:10233000000137000037000037000136000036008A
:102340000036000135000035000134000034000083
:10235000340001330000330000330001320000324A
:102360000000320001310000310000310000310076
:10237000013000003000003000012F00002F00006D
:102380002F00002F00012E00002E00002E00012D36
:1023900000002D00002D00002D00012C00002C005D
:1023A000002C00002C00012B00002B00002B000053
:1023B0002B00012A00002A00002A00002A00002A1F
:1023C000000129000029000029000029000128003F
:1023D0000028000028000028000028000127000035
:1023E0002700002700002700002700012600002604
:1023F000000026000026000026000026000125001F
:102400000025000025000025000025000025000112
:1024100024000024000024000024000024000024E4
:1024200000012300002300002300002300002300FC
:1024300000230001220000220000220000220000F0
:1024400022000022000022000121000021000021C2
:1024500000002100002100002100002100012000D7
:1024600000200000200000200000200000200000CC
:102470002000002000011F00001F00001F00001F9F
:1024800000001F00001F00001F000020436F756E3A
:102490007420583A0042656400453100626564006A
:1024A0002C2073797374656D2073746F707065641C
:1024B00021204865617465725F49443A2000457285
:1024C000723A204D415854454D50004D41585445A5
:1024D0004D50207472696767657265640048656174
:1024E00074696E67204661696C6564004865617453
:1024F000696E67206661696C6564004572723A2096
:102500004D494E54454D50004D494E54454D502077
:1025100074726967676572656400544845524D413D
:102520004C2052554E4157415900546865726D61B7
:102530006C2052756E6177617900202F0020424037
:102540003A0020403A000000000000000060000057
:10255000000000FC00000FF00000000007E0000099
:10256000000001861FC018700000000000603C0CD5
:10257000000001830C6010300000000000603C0C83
:10258000000001830C303030000000000060000CBF
:10259000000000030C183000000000000060003F45
:1025A0000F3C00030C0C6001DF0FE0FE00601C1C00
:1025B000061800060C0C6000F318318300600C0C48
:1025C0000318001E0C0C6000E030398300600C0C16
:1025D000033000030C0C6000C030380F00600C0C9E
:1025E000033000018C0C6000C03FF8FB00600C0C55
:1025F000033000018C0C6030C030018300600C0C93
:1026000001F001818C0C6030C030018300600C0C43
:1026100000E001818C183030C018318300600C0C50
:1026200040E001838C301860C00C6187C0E01C0C56
:10263000C06000C30C600FC3F007C0FFC7FC7F077A
:1026400081C0007E1FC000000000000000000000EC
:102650000700000000000000000000000000000073
:102660000700000000006D61726C696E66772E6F66
:102670007267006275676669782D322E312E780098
:102680001FFFFFFFFFFFFF600000000001FF400091
:1026900000000000FF8000000000007F83CF0000EA
:1026A0000C303F87FF80000C301F867980000C00C3
:1026B0000F8C30C7838C30E78C30CFC7CC31F38C94
:1026C00030DCECEC33B98C30D86C6C33198C30D0F6
:1026D0006C0C33198C30D86C0C33198C30DC6C0ECC
:1026E0003B198C30CF7C079F198C30C77C038F1926
:1026F00040000000000002600000000000061FFF14
:10270000FFFFFFFFF82001400130013B014001368F
:10271000016001310170012C0190012701B00122FB
:1027200001C0011D01F00118011002130130020E59
:10273000016002090190020401C002FF000003FAD7
:10274000004003F5008003F000D003EB002004E616
:10275000007004E100E004DC004005D700C005D2B1
:10276000004006CD00D006C8008007C3003008BE78
:1027700000F008B900C009B400B00AAF00B00BAA5D
:1027800000D00CA500000EA000500F9B00C01096BA
:10279000005012910000148C00C0158700B0178201
:1027A00000B0197D00D01B7800001E730040206E21
:1027B0000090226900F024640040275F0090295AAD
:1027C00000E02B5500102E500020304B00103246F8
:1027D00000E033410090353C00103737007038324C
:1027E00000A0392D00B03A2800A03B2300603C1E19
:1027F00000103D1900903D1400103E0F00703E0A7D
:1028000000C03E0500003F0000403FFBFF803FF658
:10281000FFC03FF1FF2020506C616E6E6572427503
:102820006666657242797465733A20002046726567
:1028300065204D656D6F72793A200020436F6D7091
:10284000696C65643A20466562202034203230325B
:10285000360A00204C61737420557064617465649D
:102860003A20323032362D30312D3238207C204122
:102870007574686F723A2028437265616C69747967
:102880002043522D3130290A004D61726C696E204F
:102890006275676669782D322E312E780A002053D2
:1028A0006F6674776172652052657365740A0020E3
:1028B0005761746368646F672052657365740A00BA
:1028C0002042726F776E206F757420526573657445
:1028D0000A002045787465726E616C2052657365DC
:1028E000740A00506F77657255700A0073746172D4
:1028F000740A00456E6473746F707300255320254D
:102900006320256320256320256300205A3A002098
:10291000593A0020583A00656E6473746F707320E2
:102920006869743A2000000000010200090A0000F2
:102930000000040308070000000000000000000081
:10294000000000000000302E30323500302E310003
:10295000312E30004D6F766520246D6D00313000D2
:102960000000A043000096430000C8434D6F766509
:102970002041786973004D6F7665202A004D6F768F
:10298000652040002000200020002000FFFFFF20E5
:102990005A3A200020593A200042656420583A20D3
:1029A0000050726F62696E67204661696C65640AE7
:1029B0000050726F62696E67204661696C656400E1
:1029C000220A00556E6B6E6F776E20636F6D6D61BE
:1029D0006E643A202200204500205A002059002031
:1029E000204D393220580053746570732070657221
:1029F00020756E697400DB0FC93F45BCDA3F8FB3A9
:102A00000240FCF0274056946140FE4B9B4084A559
:102A1000D840E0231841346A5641E859974164DBB5
:102A2000D5416E271742B4B75542CE1A9742C8AE69
:102A3000D542B5885A43D40684BFA65FA7BF744366
:102A4000E0BF10B11AC01C2C58C0E8F697C0B849B6
:102A5000D6C04E4E17C124D355C1802497C1A0B50E
:102A6000D5C1121A17C244AE55C2781797C26CACC2
:102A7000D5C267885AC320746F6F206C6F6E672051
:102A8000657874727573696F6E2070726576656EA5
:102A90007465640A0020636F6C64206578747275D5
:102AA00073696F6E2070726576656E7465640A0076
:102AB0006F6B0A00526573656E643A200020453AD8
:102AC00000205A3A0020593A00583A0000002200EB
:102AD000250028002B0000002100240027002A00E8
:102AE00002020202020202020404040404040404B6
:102AF00003030303030303030101010101010101B6
:102B000001020408102040800102040810204080C7
:102B100001020408102040808040201008040201B7
:102B20004572726F722077726974696E6720746F74
:102B300020454550524F4D210A004272697820438A
:102B4000522D31302052656164792E005072696EC9
:102B500074696E672E2E2E005072696E742050615B
:102B600075736564000015CD11241FBECFEFD0E44E
:102B7000DEBFCDBF84B780936B0F14BE0FB6F89441
:102B8000A895809160008861809360001092600039
:102B90000FBE12E0A0E0B1E0EEEFF3EC01E00BBFFE
:102BA00002C007900D92A034B107D9F72FE0A0E43E
:102BB000B2E001C01D92AB36B207E1F715E1C4EBFC
:102BC000D5E104C02197FE010E9406DEC33BD10778
:102BD000C9F70E9419CE0C94FDE10C94000080917D
:102BE00034059091350520913205309133058217D7
:102BF000930724F4909333058093320508958091D0
:102C00003205909133052091340530913505281710
:102C1000390724F490933505809334050895FC0119
:102C2000A081B1811C92A281B3818C918F5F8C9322
:102C30000280F381E02D90818CE0989F800D11241B
:102C4000EBE9FEE013AE84AF0895119800C087FD54
:102C500043C0419800C0119A00C000C0119800C044
:102C600086FD46C0419800C0119A00C000C011986E
:102C700000C085FD3BC0419800C0119A00C000C053
:102C8000119800C084FD30C0419800C0119A00C066
:102C900000C0119800C083FD25C0419800C0119A62
:102CA00000C000C0119800C082FD1AC0419800C049
:102CB000119A00C000C0119800C081FD0FC041985A
:102CC00000C0119A00C000C0119800C0419800C017
:102CD000119A00C000C00895419ABCCF419AF0CF2C
:102CE000419AE5CF419ADACF419ACFCF419AC4CFEA
:102CF000419AB9CF089590E080E00895CF93DF9393
:102D0000C091AA08D091AB0881E0CE31D105E4F0A2
:102D100020E030E040E05FE36091A6087091A708F2
:102D20008091A8089091A9080E9459DE0E9438DF7E
:102D30006C1B7D0B77FF03C071956195710981E074
:102D4000633071050CF080E0DF91CF91089590E041
:102D500080E008952091D90E833021F425FD0CC028
:102D600024FD0CC030E0A90102C0559547958A9515
:102D7000E2F7CA018170089581E0089580E0089526
:102D80008091B20384FD0BC08091B40387FD07C01E
:102D90009091B503937081E019F480E0089581E08B
:102DA00008952FEB280F2A3108F047C0E22FF0E0FA
:102DB0008091B2039091B303A091B403B091B50395
:102DC00004C0B695A795979587952A95D2F780FD6B
:102DD00002C081700895ED56FC4FE081EE2341F171
:102DE0008091230790912407E80FF92FF11D80812E
:102DF00090ED980F9A3030F08E3251F481818053EB
:102E00008A3098F4F0938803E093870381E0089573
:102E10008D3211F08B3249F4818190ED980F9A3008
:102E200088F38E3211F48281EACFF0E0E0E0EACF5D
:102E30001092880310928703E9CF80E00895CF9322
:102E4000DF9385E4AEDF882309F188E04091B20387
:102E50005091B3036091B4037091B503972F9170B3
:102E6000C92F90E0D92FCC0FDD1F71FB222720F94D
:102E700030E0220F331F220F331FC22B67FB442782
:102E800040F9C42B8C2BDF91CF91089580E0DECFE9
:102E900088DF882341F081E0209187033091880307
:102EA000232B09F480E008958F929F92AF92BF92F6
:102EB000CF92DF92EF92FF92FC01828158E5C52EFE
:102EC00052E0D52EC81AD10887FDD394CC0CDD1C56
:102ED000CC0CDD1C0D2C000CEE08FF08818178E87D
:102EE000872E912C881A910887FD9394880C991C41
:102EF000880C991C092C000CAA08BB0880818F3F04
:102F0000D1F190E0FC01EE0FFF1FE80FF91FEC502C
:102F1000F74F8181928133E0880F991F3A95E1F74D
:102F2000B0E0A0E044E0B595A795979587954A95C0
:102F3000D1F702969C012F5F3F4F032E000C440BEC
:102F4000550B281939094A095B09A4EBB0E00E9426
:102F5000A7DDA7019601281939094A095B090E94D2
:102F60008BDDC901FF90EF90DF90CF90BF90AF90C5
:102F70009F908F90089590E080E0DCCF0C941E74B9
:102F80000C941E740C94DA730C94DA730C94DA7348
:102F90000C94DA73CF93DF93C091AA08D091AB0859
:102FA000209729F16091A6087091A7088091A80840
:102FB0009091A9080E9438DF6E5F7F4F24976C17AD
:102FC0007D07ACF470932D0560932C050E9471C1B0
:102FD000605A75418F4F9F4F60932E0570932F0558
:102FE0008093300590933105DF91CF910895109231
:102FF0002E0510922F051092300510923105F4CF56
:10300000EF92FF920F931F93CF93DF93EC018B010D
:103010007A018A859B858617970731F08881998187
:103020000E9431C31B870A87B701888199810E945A
:1030300041BD2E813F81820F932F911D9F838E83EF
:1030400090E080E0CDB7DEB7E6E00C9449DEB0E07A
:10305000A0E0EDE2F8E10C9429DEEC017B018A01AD
:103060008A859B858617970731F0888199810E9410
:1030700031C3FB86EA8688859985019609F5CC805F
:10308000DA808E81D80EA880B980D5015596ED9151
:10309000FC91C5010995C80E780110E0F701219156
:1030A0007F0121111FC08E819F81810F911D9F8300
:1030B0008E8390E080E0CDB7DEB7EAE00C9445DE89
:1030C000EE80FF80B801888199810E9441BD8E0DFC
:1030D0009F2D911D288539852817390780F681E0B5
:1030E00090E0E9CF4C2D6D2DC5010E9400C4D80E93
:1030F000180FD4CFB0E0A0E0E0E8F8E10C942CDEAB
:10310000EC01D62E1CAD0BAD7C0184E0E80EF11C69
:10311000E98DFA8DC7010995412F480F2D2D602F9C
:10312000C7010E9400C49BAD890F8BAF81E090E086
:10313000CDB7DEB7E7E00C9448DEB0E0A0E0E3EA0C
:10314000F8E10C942ADE6B01E9014A3009F4D5C09C
:10315000453109F081C0DB011296ED91FC91F280BE
:1031600096818781139A00C00000E6E2F0E0319773
:10317000F0F7092F182FEF2CE29420EFE22230E134
:10318000B32EBF0CE80188EF60DD00C0000086E2CE
:1031900090E00197F0F7BFE1BF1508F49BC08F2DB9
:1031A0008077806852DD8E2D50DD00C0000086E201
:1031B00090E00197F0F780E848DD80E046DD00C050
:1031C000000086E290E00197F0F78AEF3EDD00C054
:1031D000000086E290E00197F0F7005F1F4F8881C2
:1031E000807F33DD89918295807F2FDDC017D107E5
:1031F000B1F700C0000086E290E00197F0F7F39489
:10320000E0E1EE0EFB10BECF1398D6011296ED91C1
:10321000FC9180819281980F92832181921708F00E
:103220009FC194819F5F94839381890F821710F0CF
:103230008FEF820F8383458150E0440F551F70E06C
:1032400060E0868197810E949BE181E0CDB7DEB787
:10325000E9E00C9446DEDEC1FB01028113814233BA
:1032600009F485C108F48DC1463409F475C14734A9
:1032700009F482C14B3349F789812B81D801129619
:103280007C91129713963C91213009F4BFC12330F1
:1032900009F0A0C148EF480F582F91E0341708F407
:1032A00090E031E0541708F030E0492F432B61E003
:1032B000571708F460E0462311F4932331F2FA80A3
:1032C00030E0F901E757FE4FD0802B573E4FF90110
:1032D000E08099C180EE8F0D8068807FB6DC8F2DF5
:1032E0008295807FB2DC00C0000086E290E001970A
:1032F000F0F780E8AADC80E861CF0B9A1398399A3E
:103300004198099A119A139A00C0000086E290E051
:103310000197F0F788E790E0CEE9DFE0FE01319712
:10332000F1F70197D9F788EF90DC00C0000086E242
:1033300090E00197F0F780E288DC80E086DC00C056
:10334000000086E290E00197F0F780E07EDC80E804
:103350007CDC00C0000086E290E00197F0F780E09E
:1033600074DC80E172DC00C0000086E290E001972E
:10337000F0F7CE010197F1F7CE010197F1F7CE01F9
:103380000197F1F7CE010197F1F7CE010197F1F71F
:10339000CE010197F1F7CE010197F1F7CE01019728
:1033A000F1F7CE010197F1F7CE010197F1F7CE01C8
:1033B0000197F1F7CE010197F1F7CE010197F1F7EF
:1033C000CE010197F1F72197F1F780E23EDC80E42E
:1033D0003CDC00C0000086E290E00197F0F780E25C
:1033E00034DC80E632DC00C0000086E290E0019729
:1033F000F0F7D0E0C0E08C2F8077806826DC8D2F3E
:1034000024DC00C0000086E290E00197F0F780E83D
:103410001CDC80E01ADC00C0000086E290E001972E
:10342000F0F78AEF12DC00C0000086E290E001971E
:10343000F0F780E2119800C0419800C0119A00C0D6
:1034400000C0119800C0419800C0119A00C000C08F
:10345000119800C0419800C0119A00C000C0119896
:1034600000C0419800C0119A00C000C0119800C06F
:10347000419800C0119A00C000C0119800C0419846
:1034800000C0119A00C000C0119800C0419800C04F
:10349000119A00C000C0119800C0419800C0119A54
:1034A00000C000C0119800C0419800C0119A00C02F
:1034B00000C0119800C0419800C0119A00C000C01F
:1034C000119800C0419800C0119A00C000C0119826
:1034D00000C0419800C0119A00C000C0119800C0FF
:1034E000419800C0119A00C000C0119800C04198D6
:1034F00000C0119A00C000C0119800C0419800C0DF
:10350000119A00C000C0119800C0419800C0119AE3
:1035100000C000C000C00000E6E2F0E03197F0F724
:10352000815009F087CF88EF90DB00C0000086E271
:1035300090E00197F0F7CF5FD05FC03209F05BCF2A
:1035400080E083DB80EC81DB00C0000086E290E05D
:103550000197F0F7139879CEF8018581888375CEAD
:1035600080E0CDB7DEB7E9E00C9446DE53C0B90188
:10357000C8010E94FCC169CED80111968C91888344
:1035800064CE443191F0473109F05FCE1882D80102
:1035900012968C911297898315968C91159781506C
:1035A0008A8313968C918B8350CED80115964C91BB
:1035B000159750E0440F551F70E060E016968D910E
:1035C0009C910E949BE1F80112828081815083834B
:1035D00014823BCE381708F438CE871708F435CE5E
:1035E000FA80E12CD12C243070F46ACEBE01C801DF
:1035F0000E94FCC1898198819D0D98838E0D8983DD
:10360000FF0C09F422CEF7FEF6CFF0CF58E0580FAA
:10361000482F43CEA4E1B0E0E0E1FBE10C942DDEC5
:103620007C01FB0160817181828193818E010F5F3A
:103630001F4F248141E00E9472D2F70101900020C7
:10364000E9F79F01215031092E193F092E3131052B
:1036500050F44FE150E0421B530BBC01C701820FF5
:10366000931F0E9484D6C7016496E6E00C9449DE5D
:103670008091870390918803009731F04AE050E0F1
:1036800070E060E00C9412D560E070E0CB0108952A
:103690008091870390918803009731F04AE050E0D1
:1036A00070E060E00C94E5D360E070E0CB01089539
:1036B000EFDF97FD0AC0ECDF6F3F710581059105D3
:1036C00009F02CF4E5DF862F089580E008958FEF50
:1036D0000895CF93C62FDCDB882311F0E9DFC82FD4
:1036E0008C2FCF9108958091870390918803892B27
:1036F00039F0DEDF91E0811101C090E0892F08955B
:1037000091E0FCCFCF93DF93C82FD62FC1DB882366
:1037100021F0E9DFDF91CF9108958C2F42DB8111F9
:10372000F9CF8D2FF7CFB4DFCB010895CF93DF937F
:10373000EB01AEDB882311F0F6DFEC01CE01DF9167
:10374000CF9108950F931F93CF938091870390910A
:1037500088030097F9F0FC018F01C1912C2F2F7D78
:10376000A1F0C53431F0C53621F0C83511F0C837A5
:1037700099F7F801108270E060E00E948FD2F801A2
:10378000C083CF911F910F91089570E060E00E9477
:103790008FD2F7CF60E070E0CB01F3CFCF92DF9212
:1037A000EF92FF926A017B0173DB882319F0CADF75
:1037B0006B017C01C701B601FF90EF90DF90CF90C5
:1037C0000895B0E0A0E0E7EEFBE10C9431DE20E2EA
:1037D0004F8158856E818D810E94E0BCE2E00C949F
:1037E0004DDEE0913804E63028F581E08E0F8093BD
:1037F00038044091F9065091FA066091FB067091E9
:10380000FC062091F2069091F30680913E0439E087
:10381000E39FF0011124EF5FFB4FA091990EB0914F
:103820009A0EB183A0834283538364837583268376
:10383000978380870895A2E0B0E0E1E2FCE10C9478
:1038400031DE4BE250E06623B9F0BC018EE69EE02B
:103850000E9435D68AE290E09A838983CE01019650
:103860000E94B4B6109200041092FF031092FE035F
:103870002296E2E00C944DDEBC018EE69EE00E94B2
:1038800084D6E8CF0C946F700C94C18A0C9449894B
:10389000B0E0A0E0EEE4FCE10C9431DE8D8187FF26
:1038A00003C01092880880E090918808282F082E85
:1038B000000C330B9217130609F09CF480938808D0
:1038C0009E01285F3F4F4E815F816AE270E08EE685
:1038D0009EE00E9403D7109200041092FF03109202
:1038E000FE03E2E00C944DDEA1E2B0E0EAE7FCE189
:1038F0000C9431DE67FF03C01092880860E050919D
:103900008808262F062E000C330B5217130609F0D9
:1039100024F56093880819821F8E442311F14FE12A
:1039200050E0BC01CE0101960E9435D64BE250E03A
:10393000BE016F5F7F4F8EE69EE00E9484D68AE2D2
:1039400090E099A388A3CE0180960E94B4B610920D
:1039500000041092FF031092FE03A196E2E00C9483
:103960004DDE4FE150E0BC01CE0101960E9484D6AD
:10397000DDCFA7E0B0E0EFEBFCE10C9421DE6C01C1
:103980005B01542E1901ED824E2C2EEF9BE7892E00
:1039900090E1992E421721F087E7882E80E1982E3A
:1039A000852D052C000C990BFC01EF57FE4FFF8372
:1039B000EE8314140CF07CC0AE014F5F5F4F6DE7D7
:1039C00077E6C5010E9457987C0149815A816B8135
:1039D0007C81411551056105710509F469C04B37BA
:1039E00051056105710509F4C0C04E3751056105E7
:1039F000710509F4BAC04A3251056105710509F033
:103A00005DC057FE17C0442D042C000C550B4F5FB2
:103A10005F4FB401C6010E9435D6C6010E94499885
:103A2000481AF60101900020E9F79F012150310961
:103A300039012EC03601FFEF6F1A7F0A25E4F60127
:103A400020834A94442009F457C0630181E04B3736
:103A500051056105710509F480E0850D8A3084F017
:103A600036013FEF631A730A4A946AE00E94D2DD7E
:103A7000805DF6018083442009F43EC0892F6301F4
:103A80003601FFEF6F1A7F0A805DF60180834A944A
:103A9000141494F5442D042C000C550B4F5F5F4F0C
:103AA000B701C3010E9435D6C3010E944998481A44
:103AB0008D8184192796E2E10C943DDE4432510554
:103AC0006105710509F03FC001151105C1F0442DD4
:103AD000042C000C550B4F5F5F4FB801C6010E94CC
:103AE00035D6C6010E944998481AF6010190002077
:103AF000E9F7CF0101973C01630157015ACF211427
:103B0000310451F4F501D6013D01EE16FF0649F1ED
:103B100084918D933196F8CF442D042C000C550BD5
:103B20004F5F5F4FB101C6010E9484D6C6010E945B
:103B30004998481AF60101900020E9F79F012150A9
:103B400031093901D9CF4034510561057105D1F6EC
:103B500036013FEF631A730AEE81FF818081F6011F
:103B60008083F30110824A94C7CF57FE6FCF4BCFAB
:103B7000CF92DF92EF92FF920E9471C16B017C01A4
:103B800029B191E023FB222720F9292789B182FB63
:103B9000882780F989273091F70390E020FB90F97E
:103BA00080FB91F9932790FF67C0B701A6014E5F94
:103BB0005F4F6F4F7F4F4093F3035093F403609335
:103BC000F5037093F60391FF70C0B701A6014E5F35
:103BD0005F4F6F4F7F4F4093EE035093EF0360931F
:103BE000F0037093F1039091F70320FB90F980FBB1
:103BF00091F99093F7032091F203822F817026951B
:103C000021702827880F282B8091ED032817C9F0F1
:103C1000422F481B550BCA01059664E070E00E94D4
:103C2000F3DD81502093ED03823009F057C080917D
:103C3000EC03880F882329F09091FD03890F80936E
:103C4000FD038091F9039091FA03A091FB03B091D9
:103C5000FC038C199D09AE09BF09181619061A062E
:103C60001B062CF0309B3DC080E08093F803FF9052
:103C7000EF90DF90CF9008954091F3035091F403BB
:103C80006091F5037091F6034C195D096E097F0987
:103C900014161506160617060CF495CF3091F2038C
:103CA00020FB30F93093F2038ECF4091EE03509118
:103CB000EF036091F0037091F1034C195D096E09F7
:103CC0007F0914161506160617060CF48CCF909172
:103CD000F20380FB91F99093F20385CF8093EC037C
:103CE000A9CF84E0C2CFCF92DF92EF92FF92CF9321
:103CF000C82F0E9471C16B017C0124EA30E74DE7B7
:103D00005FE3609118017091190180911A019091FF
:103D10001B010E943BD787FD18C08AEF90E0A0E00E
:103D2000B0E08C0D9D1DAE1DBF1D8093D8039093F8
:103D3000D903A093DA03B093DB03C0931601CF91AC
:103D4000FF90EF90DF90CF90089580E090E0DC014D
:103D5000E8CF8F3010F48F5F08958F5008959CE066
:103D6000899F802D112491E0980F9093BC032CE043
:103D7000280F2093160730E02E5F3F4F4091D30E5F
:103D80004217130619F014F080E008952091D50E23
:103D90009217D0F7662341F08E5F0E94ABC38091EB
:103DA00016078E5F0E94ABC3809116079091D30EC9
:103DB000891750F32091D50E9091BC03291720F359
:103DC0001092D60E8093D70E81E008952091BB0308
:103DD000022E000C330B8217130641F08093BB03B5
:103DE0006AE371E18FE99EE00C9431C30895ACE081
:103DF000B0E0EDEFFEE10C942DDEFC0160817181FD
:103E0000828193816F3F71058105910509F070F4FE
:103E10008BE99EE06FD9E091A30EF091A40E31964C
:103E2000849190E02C96E6E00C9449DE1091D60E39
:103E30000091D70E2091BD0321110FC04DE45FE02A
:103E4000602F812F0E9458C490E080E0180F1093DB
:103E5000D60E0093D70E9927E5CFE090A30EF090F1
:103E6000A40E2FE93EE03A832983212F30E03C83E2
:103E70002B83202F30E03E832D8318861F822FEF67
:103E80003FEF3A8729871C861B8627E238E1AE017F
:103E90004F5F5F4FBF01C7010E94F7B5B7018FE9C0
:103EA0009EE00E9431C38F819885D0CFA8E0B0E01A
:103EB000ECE5FFE10C9423DE6C015A014901FB01A2
:103EC00090818CE0989F800D1124982FF60120811D
:103ED000822F880F820F880F8093D60E9093D70E73
:103EE0004115510509F4A0C0DA82C9827C836B8335
:103EF000011122C0AE014B5F5F4FB401C5010E94AA
:103F000057985C018D819E81AF81B885892B8A2B62
:103F10008B2B09F489C0CE01059669DFF6018081FB
:103F20008F5F8083853130F3CE0101960E940F169A
:103F3000E1CF10E075010DC07A0110E00AC0E11474
:103F4000F104B9F38FEFE81AF80A10E0E114F10474
:103F500089F3AE014B5F5F4FB401C5010E945798D2
:103F60005C014D805E806F8078844114510461044F
:103F70007104E9F0F0E24F16510461047104A9F0F4
:103F8000D301C2018D97A109B1090297A105B1051D
:103F900070F04BE2441651046104710441F05AE0A0
:103FA0004516510461047104E9F5112341F2F6014B
:103FB0008081482F410F5527551F4631510534F058
:103FC000853020F0CE0101960E940F1681E0411449
:103FD00051046104710409F480E0180FF601808136
:103FE000810F8083112369F01150AE014B5F5F4F49
:103FF000B401C7010E9457987C01CE010596F7DEF7
:10400000F1CF411451046104710471F0FAE04F16CC
:1040100051046104710409F08CCFCE0101960E9415
:104020000F1688CF1F5F92CF2896E0E10C943FDEF9
:10403000ACE0B0E0EEE1F0E20C942BDEF090D60EB6
:10404000E090D70E2091BD03211112C04DE25FE038
:104050006E2D8F2D0E9458C490E080E0F80EF092F3
:10406000D60EE092D70E99272C96E8E00C9447DE06
:10407000C090A30ED090A40E2FE93EE03A8329838E
:104080002F2D30E03C832B832E2D30E03E832D837B
:1040900018861F822FEF3FEF3A8729871C861B86E1
:1040A00007E218E19E012F5F3F4F4DE757E6BC0145
:1040B000C6010E948EB6B6018FE99EE00E9431C310
:1040C0008F819885CBCFEBE9FEE083AF64AFCA0167
:1040D000AFCFAECFCF93DF93FC0125AD211104C04C
:1040E00021E025AF0E943BC2C091A10ED091A20E4B
:1040F000E091D00EF091D10E82E00995E091D00EC2
:10410000F091D10E81E0099530E020E044E1BE015C
:104110008FE99EE00E9436C222ED3EE047E1BE01FB
:104120008FE99EE00E9436C2E091D00EF091D10E50
:1041300080E00995DF91CF9108950F931F93CF935E
:10414000DF938091BE03811153C01092D60E10925E
:10415000D70E1092D80E1092A40E1092A30E1092A9
:10416000A60E1092A50E1092A80E81E08093A70EC5
:1041700082E28093A90E1092AE0E1092AD0EE2EC88
:10418000FEE08FEF81939EE0E03DF907D9F7C1E0B3
:10419000C093BF0E26EC33EA3093B50E2093B40ED5
:1041A000C093B60E1092B70E1092B80E90E4909392
:1041B000B90E1092BA0E25EC33EA3093D10E20934B
:1041C000D00E20E131E03093A20E2093A10E9EE1AB
:1041D0009093C60E91E19093C70E9CE19093C40E0C
:1041E0008093C30E8093C20E0E943BC2C093BE0355
:1041F00081E08093BD0383E79FE090939D088093C7
:104200009C0810929F0810929E081092BF0E8BE996
:104210009EE060DFD091A00E10919F0E0D2F212FF8
:1042200040E060E08FE99EE00E9489C3882359F056
:10423000C0E0212F4C2F60E08FE99EE00E94C2C2B7
:10424000CF5FDC13F6CF8FE99EE00E9401C381119E
:10425000E1CF81E08093BF0E53985B9A52985A9AAF
:104260003898409A85DC1092FD030E94D5B6DF9104
:10427000CF911F910F910895ACE0B0E0E2E4F1E23C
:104280000C942BDEF090D60EE090D70E2091BD035B
:10429000211112C04DE05FE06E2D8F2D0E9458C499
:1042A00090E080E0F80EF092D60EE092D70E9927BB
:1042B0002C96E8E00C9447DEC090A30ED090A40E9C
:1042C0002FE93EE03A8329832F2D30E03C832B8376
:1042D0002E2D30E03E832D8318861F827A876987D2
:1042E0001C861B8607E218E19E012F5F3F4F40E8C6
:1042F00057E6BC01C6010E948EB6B6018FE99EE06A
:104300000E9431C38F819885CDCF6FEF7FEFB4CFFF
:10431000A6E0B0E0EEE8F1E20C9421DE3C015B01A6
:104320004DB75EB75E834D830E943B98482EC50112
:104330000E944998512C23E130E06901C81AD10844
:1043400075E2F72EC414D50414F46FE1F62E8F2D08
:1043500090E09C012E5F3F4F4091D30E4217130611
:1043600011F00CF052C009972091D50E28171906AC
:104370000CF44BC000911A0710911B0720911807ED
:1043800030911907409117071092D60EF092D70E70
:104390002DB63EB68DB79EB7865591090FB6F894E7
:1043A0009EBF0FBE8DBF01964C015AE2E52EB301B0
:1043B000E0DA6CEF70E0C4015FDF0FB6F8943EBE48
:1043C0000FBE2DBE11E0A114B104A1F081E79FE062
:1043D00080DEC414D504DCF49CE0F90E8091D30E89
:1043E000F81640F02091D50E4F2D4950550B24174B
:1043F00015067CF48D819E810FB6F8949EBF0FBE8A
:104400008DBF2696E2E10C943DDE10E0DCCF112357
:1044100089F380E290E0A0E0B0E089839A83AB83E7
:10442000BC838C2D880FC80ECC0CC092D60EF09297
:10443000D70ECE010196DBDCC50167DFDBCFADE037
:10444000B0E0E5E2F2E20C9421DE982F862F3A01EB
:104450006901502E2DB63EB6692F81DC882309F400
:10446000A6C0C601002309F44DC00E943B98F82E57
:10447000A090A30EB090A40E8091BD03811161C0E5
:104480008FEF9FEF8D8783E1482E4F1800911A0719
:1044900010911B07209118073091190740911707B9
:1044A0008DB69EB6842D90E00196880F991F6DB74A
:1044B0007EB7681B790B0FB6F8947EBF0FBE6DBF39
:1044C0008DB79EB701965C01E42CB30152DA182F28
:1044D00096E0499EB0011124C501CEDE0FB6F894D6
:1044E0009EBE0FBE8DBEFF2009F461C0411A8FE64B
:1044F0009FE0EFDD442009F442C08DE69FE0E9DD56
:104500004A94F8CF0E944998F82EA090A30EB0903C
:10451000A40E8091BD03882309F4B2CFFE01339627
:104520008AE0DF011D928A95E9F78FE99EE09A8380
:10453000898300E018E19E012F5F3F4F40E857E676
:1045400012C0FE0133968AE0DF011D928A95E9F7D9
:104550008FE99EE09A83898300E018E19E012F5F36
:104560003F4F4DE757E6B601C5010E948EB6B50133
:104570008FE99EE00E9431C38F81988583CF40915F
:104580001607AD858A2F90E0B6E0FB9E90011124BE
:104590000296821793070CF4C90190E8981B909338
:1045A000D60E4093D70EC601552051F041DD0FB60F
:1045B000F8943EBE0FBE2DBE2D96E2E10C943DDE7A
:1045C000A4DEF5CF4F925F926F927F928F929F926F
:1045D000BF92CF92DF92EF92FF920F931F93CF93F0
:1045E000DF931092AE031092AD032FE32093B1033B
:1045F0001092B0031092AF031092B2031092B30363
:104600001092B4031092B5039C01F90190812F5FC1
:104610003F4F9032D1F39E34C9F4818190ED980FD1
:104620009A3020F08D3211F08B3281F432969F0156
:104630002F5F3F4F808180538A3008F469C09F010B
:104640002F5F3F4F8081803209F464C0F0932407CC
:10465000E09323078F010F5F1F4FC0816AE270E074
:10466000C8010E94A2E1009731F0FC0131978081DE
:104670008032E1F31182CD3421F0C43511F0C7341A
:10468000B9F5F80180810F5F1F4F8032D1F380535D
:104690008A3070F5C093B10330E020E06AE0AF01EA
:1046A0004F5F5F4F629FC001639F900D11249C017B
:1046B000205331098081280F311D87FD3A95FA0179
:1046C000808180538A3058F33093B0032093AF0336
:1046D000DF0131968C918032D9F3CD34E9F4C901F0
:1046E000855791090297C0F4B093AE03A093AD0330
:1046F000DF91CF911F910F91FF90EF90DF90CF90BE
:10470000BF909F908F907F906F905F904F90089593
:10471000F9018DCFF90193CF809023079090240762
:1047200040E050E0BA0190E080E0C12CD12C76014D
:10473000C394FD013196DC91DD2309F481C0D132AF
:10474000F1F4CD34E1F420323105C9F44093B203E1
:104750005093B3036093B4037093B503F093AE0327
:10476000E093AD0363E270E0CF010E94A2E1009705
:1047700009F4BECFFC011082BBCFDF01DACFD154E8
:10478000DA3108F059C0DF011D91103281F0A0ED3F
:10479000A10FAA30D8F01E3261F4A181A053AA3033
:1047A000A8F0009711F4CF010197B12C13C0FD01BF
:1047B000EACF1D3211F01B32A1F7A181B0EDBA0F83
:1047C000BA3020F0AE3269F7A281E8CFBE2EB81819
:1047D000309759F3AD2FB0E02601370104C0440CE7
:1047E000551C661C771CDA95D2F744295529662991
:1047F0007729AD56BC4FBC92A081A154AA3108F4D0
:10480000BCCFDF01D191DD2309F493CF00EDB02EB1
:10481000BD0E19E01B15A8F713EDB12EBD0E11E06A
:104820001B1578F7DB3269F3FD013196DC91D0324C
:1048300009F07FCFDF01F8CF0097F1F6CD01DCCF93
:104840009093AE038093AD034093B2035093B303B0
:104850006093B4037093B5034BCFFC0165917591E0
:1048600085919491089590911D07992321F0682FC7
:1048700080E00E94D08A80E00895682F70E090E088
:1048800080E00C94E7B6CF93C82F882379F020E01E
:1048900030E0A901609174047091750480917604F0
:1048A000909177040E943BD78823C1F080917304D4
:1048B0008C17A1F00E94427489E898E00E94647409
:1048C0008091730491E0892780937304882321F0F9
:1048D00089E898E00E9416730E94D67DCF910895D2
:1048E0009091730481E08927CECF4F925F926F92AF
:1048F0007F928F929F92AF92BF92CF92DF92EF9270
:10490000FF92CF936B017C01C42FAC019B0160919E
:104910006F047091700480917104909172040E94F0
:104920003BD7882309F493C0B090730480E0ABDFD9
:1049300020E030E0A901C701B6010E94BCDF1816D3
:104940001CF0C12CD12C7601C0926F04D09270045F
:10495000E0927104F09272042DEB37E346E855EBD8
:10496000C701B6010E94BCDF87FD0BC02DEB37E30A
:1049700046E855E3C701B6010E943BD718160CF074
:1049800074C0A701960160E070E080E89FE30E9498
:10499000D0DE60935E0470935F0480936004909314
:1049A000610480EF9FEFA9E7B4EC809358049093E3
:1049B0005904A0935A04B0935B04BB2009F447C088
:1049C0004090890850908A0860908B0870908C08FD
:1049D00080908D0890908E08A0908F08B0909008DD
:1049E000C0909108D0909208E0909308F0909408BD
:1049F00081E049DFCC2359F12091890830918A0860
:104A000040918B0850918C08C301B2010E943BD7A2
:104A100081111BC020918D0830918E0840918F0824
:104A200050919008C501B4010E943BD781110DC07F
:104A300020919108309192084091930850919408E8
:104A4000C701B6010E943BD781110E940F7ECF9112
:104A5000FF90EF90DF90CF90BF90AF909F908F909E
:104A60007F906F905F904F90089560E070E0CB0171
:104A700090CFB0E0A0E0EFE3F5E20C9423DEEC0190
:104A80002091620430916304409164045091650464
:104A9000688179818A819B810E9458DE4B015C018B
:104AA0002091660430916704409168045091690434
:104AB0006C817D818E819F810E9458DE6B017C011B
:104AC000A501940160917F0370918003809181031F
:104AD000909182030E943BD7882309F459C08092A9
:104AE0007F0390928003A0928103B0928203209171
:104AF0007703309178034091790350917A03C5018F
:104B0000B4010E94A0D72B013C010E9469DF4B0138
:104B10005C0120E030E0A9010E943BD787FD6DC019
:104B200020E030E040E050E4C501B4010E94BCDF69
:104B300018162CF4812C912CA12CC0E4BC2EA501BC
:104B40009401C301B2010E9458DE2B013C0120E018
:104B500030E0A9010E943BD787FD53C040926F030C
:104B6000509270036092710370927203C501B40198
:104B70000E9438DF60936D03062E000C770B6F5F89
:104B80007F4F6230710514F062E070E060936B0358
:104B900010916903D0916D03A70196016091830381
:104BA0007091840380918503909186030E943BD786
:104BB000811130C01D1387C02091510330915203E1
:104BC000409153035091540360916F0370917003AF
:104BD00080917103909172030E94A0D72091550398
:104BE0003091560340915703509158030E9459DE6B
:104BF000CDB7DEB7E0E10C943FDE812C912C54015F
:104C00009ECF10926F031092700310927103109256
:104C10007203ACCFC0928303D0928403E0928503E9
:104C2000F092860320917B0330917C0340917D03B9
:104C300050917E03C701B6010E94A0D74B015C01D1
:104C40000E9469DF6B017C0120E030E0A9010E9435
:104C50003BD787FD05C120E030E040E050E4C701CC
:104C6000B6010E94BCDF18162CF4C12CD12CE12C0B
:104C7000B0E4FB2EA7019601C501B4010E9458DEE5
:104C80004B015C0120E030E0A9010E943BD787FD89
:104C9000EBC08092730390927403A0927503B0925C
:104CA0007603C701B6010E9438DF60936E03062EBB
:104CB000000C770B6F5F7F4F6230710514F062E07C
:104CC00070E060936C03C0916E031D1305C080916A
:104CD0006A038C1709F479C080916D0390916E037B
:104CE00090936A03809369038D2FDD0F990B0C2E2F
:104CF000000CDD0BAC01440F551F840F951FFC0108
:104D0000EC0FFD1FEE0FFF1FEE0FFF1FE458FB4FD0
:104D10002081318142815381209365033093660362
:104D20004093670350936803E0916C030E2FEE0FDE
:104D3000110BDC01A00FB11FAA0FBB1FAA0FBB1FD5
:104D4000A458BB4F6D917D918D919C910E9458DE2E
:104D50006093610370936203809363039093640391
:104D600080916B03282F880F330BC901880F991F7F
:104D7000820F931FC80FD91FCC0FDD1FCC0FDD1F73
:104D8000C458DB4F288139814A815B8120935D03C0
:104D900030935E0340935F0350936003FC01E00F88
:104DA000F11FEE0FFF1FEE0FFF1FE458FB4F608156
:104DB0007181828193810E9458DE609359037093C0
:104DC0005A0380935B0390935C03809073039090ED
:104DD0007403A0907503B090760320916103309125
:104DE00062034091630350916403C501B4010E94C2
:104DF000A0D72091650330916603409167035091DD
:104E000068030E9459DE6B017C01C0925503D09269
:104E10005603E0925703F0925803209159033091C2
:104E20005A0340915B0350915C03C501B4010E9499
:104E3000A0D720915D0330915E0340915F035091B4
:104E400060030E9459DEA70196010E9458DE60931C
:104E50005103709352038093530390935403ACCE49
:104E6000C12CD12C760106CF1092730310927403DB
:104E7000109275031092760314CFEFE7F3E080EF02
:104E80009FEFA9E7B4EC84839583A683B7838083DF
:104E90009183A283B383E9E6F3E08DE98183808384
:104EA00008958F929F92AF92BF92CF92DF92EF922E
:104EB000FF92FC0198E0A4E7B4E001900D929A956E
:104EC000E1F788E0FB01A2E6B4E001900D928A953B
:104ED000E1F7C0907404D0907504E0907604F090EF
:104EE000770420E030E0A901C701B6010E943BD75A
:104EF0008823E1F1A701960160E070E080E89FE37C
:104F00000E94D0DE6B017C0180907804909079043F
:104F1000A0907A04B0907B0420E030E0A901C501A4
:104F2000B4010E943BD7882329F1A501940160E0D8
:104F300070E080E89FE30E94D0DEC0927703D092B9
:104F40007803E0927903F0927A0360937B03709385
:104F50007C0380937D0390937E03FF90EF90DF901E
:104F6000CF90BF90AF909F908F900895C12CD12C7F
:104F70007601CACF60E070E0CB01DFCF109266040B
:104F800010926704109268041092690410926204EF
:104F900010926304109264041092650410927804D5
:104FA0001092790410927A0410927B041092740487
:104FB000109275041092760410927704ECE7F4E0F6
:104FC00020EA34E080E090E0A0ECBFE780839183AA
:104FD000A283B38384839583A683B78380879187D5
:104FE000A287B3873C962E173F0781F70895EFE617
:104FF000F0E0808182608083089580911E07909107
:105000001F07892B79F480911E0790911F07892B28
:1050100049F420911E0730911F0781E0232B19F4DA
:1050200080E0089581E00895BC0190E080E00C9458
:10503000E7B690912C0980912D09981307C081E063
:1050400090919B08913019F080E0089581E00895D7
:10505000B0E0A0E0EEE2F8E20C9429DEEC018B0176
:10506000A42EB22E8091990E90919A0E8C179D07C6
:1050700009F44CC010925C042EE9C331D20709F048
:105080004AC0825B984271F40E9471C16E517B4F9D
:105090008F4F9F4F6093390470933A0480933B0481
:1050A00090933C048091990E90919A0E825B984265
:1050B00041F48EE9C331D80721F4109288080E9488
:1050C000D5B6D0939A0EC093990E30E020E00093AD
:1050D000F9061093FA062093FB063093FC06A09283
:1050E000F206B092F306C25BD84221F410923E045D
:1050F0001092380482E08093540181E08093090784
:105100001092370410923F0410923D04CDB7DEB7E1
:10511000EAE00C9445DE28E2C23BD20719F683513F
:105120009E49E9F4C0903904D0903A04E0903B04E1
:10513000F0903C040E9471C1C61AD70AE80AF90A25
:105140001C141D041E041F0454F480911C07877056
:10515000873029F46EDFC4E1D9E68111A3CFC2EB19
:10516000D8E2A0CFA4E0B0E0E8EBF8E20C9423DEB4
:10517000E091FF03F0910004309721F0099581112F
:105180000E94D5B68091DE061092DE06882359F083
:1051900020E040E070E060E083E19EE959DF249682
:1051A000E0E10C943FDE20911C0130911D01409103
:1051B000F9065091FA06CA01820F931F2436310571
:1051C00009F0A3C347305105E4F00697883EE3E0B9
:1051D0009E0714F087EE93E08A30910514F48AE07C
:1051E00090E02817390789F090931D0180931C01E6
:1051F0001092F9061092FA061092FB061092FC0625
:1052000004C006964A3F5F4F0CF38091F506882351
:1052100009F40AC16091D2087091D308072E000CDE
:10522000880B990B0E9441D711E02091CE08309154
:10523000CF084091D0085091D1080E94BCDF1816C9
:105240000CF010E06091AA087091AB08072E000CDA
:10525000880B990B0E9441D72091A6083091A7088E
:105260004091A8085091A9080E94BCDF18160CF4C0
:1052700012601093D7034090890850908A0860907C
:105280008B0870908C08C0908D08D0908E08E090AC
:105290008F08F09090088090910890909208A090CC
:1052A0009308B090940820E030E0A901C301B20156
:1052B0000E943BD720E030E040E05FEB87FD04C078
:1052C00020E030E040E05FE3C301B2010E9459DE1C
:1052D0000E9438DFCB010E943A8DBC0182ED93E041
:1052E0000E94ADE120E030E0A901C701B6010E94B3
:1052F0003BD720E030E040E05FEB87FD04C020E0DA
:1053000030E040E05FE3C701B6010E9459DE0E9431
:1053100038DFCB010E943A8DBC018DEC93E00E94F6
:10532000ADE142E050E0C501B4010E94CB8F6B01BA
:105330007C0180E2F7FE09C0F094E094D094C09420
:10534000C11CD11CE11CF11C8DE28093EA0660E2D5
:10535000F0E1CF16F7E2DF06E104F1048CF0C701BB
:10536000B60120E137E240E050E00E948BDDCA0147
:10537000B9012AE030E040E050E00E948BDD605D42
:105380006093EB0660E228EEC21623E0D206E10449
:10539000F1048CF0C701B60128EE33E040E050E0A4
:1053A0000E948BDDCA01B9012AE030E040E050E004
:1053B0000E948BDD605D6093EC06C701B60124E6B8
:1053C00030E040E050E00E948BDD6AE0862E912CB8
:1053D000A12CB12CCA01B901A50194010E948BDD59
:1053E000605D6093ED06C701B601A50194010E94BE
:1053F0008BDD6B017C01CA01B901A50194010E94FA
:105400008BDDCC2009F491C22EE22093EE06605D84
:105410006093EF0640E3C40EC092F0066AEE76E0B9
:1054200085EC93E00E94ADE181E00E94E61E809150
:10543000D30E803180F48091D50E853060F036E552
:10544000E32E30E1F32E0BE023E045E068E08FE946
:105450009EE00E947DC48091D703982F927042E114
:1054600002E081FF02C048E00CE08091D30E84315D
:1054700080F48091D50E841760F0992309F467C2F7
:1054800082E390E17C0123E068E48FE99EE00E94E2
:105490007DC40E9471C10091C0031091C10320918D
:1054A000C2033091C303061B170B280B390B1016D0
:1054B0001106120613068CF02091BF03209520934D
:1054C000BF036A547C4F8F4F9F4F6093C00370930C
:1054D000C1038093C2039093C3031091BF038091D3
:1054E000D30E8431B8F48091D50E823098F0112318
:1054F00009F430C280914307882309F42BC286EF58
:105500009FE07C0102E123E042E068E68FE99EE053
:105510000E947DC48091D30E8C3108F015C180901B
:10552000CE089090CF08A090D008B090D108C0903D
:10553000D208D090D308843198F48091D50E883069
:1055400078F08091D70380FF08C288EA9FE07C0151
:105550000CE022E048E068E28FE99EE00E947DC412
:105560008091D30E883020F5D7FCFAC1C6010E9485
:10557000B98DFC0101900020E9F73197E81BF90B88
:105580002E2F220F220FE21BE15DE093D60E27E0C3
:105590002093D70E0E94852189E090E0A0E0B0E042
:1055A00089839A83AB83BC83CE0101960E94F71E48
:1055B0008091D30E8C3190F58091D50E843170F1AD
:1055C00020E030E040E05FE3C501B4010E9459DE15
:1055D0000E9438DF77FDCBC1CB010E94B98DFC0161
:1055E00001900020E9F73197E81BF90B2E2F220FCD
:1055F000220FE21BE15DE093D60E2CE12093D70E43
:105600000E94852189E090E0A0E0B0E089839A8340
:10561000AB83BC83CE0101960E94F71EC090A60802
:10562000D090A708E090A808F090A9088091D30E28
:10563000883038F58091AA089091AB0897FD9EC1FB
:105640000E94B98DFC0101900020E9F73197E81B19
:10565000F90B2E2F220F220FE21BEE5AE093D60EEB
:1056600027E02093D70E0E94852189E090E0A0E0FA
:10567000B0E089839A83AB83BC83CE0101960E94FC
:10568000F71E8091D30E8C3190F58091D50E843128
:1056900070F120E030E040E05FE3C701B6010E9416
:1056A00059DE0E9438DF77FD70C1CB010E94B98DB1
:1056B000FC0101900020E9F73197E81BF90B2E2F30
:1056C000220F220FE21BEE5AE093D60E2CE120931C
:1056D000D70E0E94852189E090E0A0E0B0E08983A8
:1056E0009A83AB83BC83CE0101960E94F71E809102
:1056F000D30E8C3148F58091D50E843128F18091FC
:105700004307882309F164E6869FC001112481586C
:105710009F4F6FEF70E00E94F3DDCB010E94E48D9C
:1057200027E62093D60E2CE12093D70E0E948521E8
:1057300085E290E0A0E0B0E089839A83AB83BC83EC
:10574000CE0101960E94F71E8091D30E883208F098
:1057500087C08091D50E8D3108F482C00BE020E81F
:105760004DE160E08FE99EE00E9489C38823A1F0AB
:1057700020E84DE160E08FE99EE00E94C2C280E037
:105780000E9499C28FE70E9499C220E847E260E038
:105790008FE99EE00E94C2C28091D30E873208F04A
:1057A0005FC08091D50E8F3108F45AC088E590E033
:1057B000A0E0B0E089839A83AB83BC8383E08093CD
:1057C000D60E06E20093D70ECE0101960E94F71E78
:1057D0008BE08093D60E0093D70E112309F4DCC022
:1057E00082ED93E00E94852189E590E0A0E0B0E0A1
:1057F00089839A83AB83BC8388E28093D60E06E2CA
:105800000093D70ECE0101960E94F71E80E380938D
:10581000D60E0093D70E112309F4E7C08DEC93E068
:105820000E9485218AE590E0A0E0B0E089839A8318
:10583000AB83BC838DE48093D60E06E20093D70E33
:10584000CE0101960E94F71E85E58093D60E009347
:10585000D70E112309F4F2C085EC93E00E94852154
:105860008091D30E833368F58091D50E8B3248F149
:1058700083E00E94E61E86E090E0A0E0B0E089832D
:105880009A83AB83BC8383E08093D60E03E30093BB
:10589000D70ECE0101960E94F71E81E00E94E61EFF
:1058A00080911C0190911D010E94E48D2CE02093B9
:1058B000D60E0093D70E0E9485218DE79FE00E94AF
:1058C00069208091D30E813408F069CC8091D50E87
:1058D000863308F464CC1092D60E8EE38093D70EF4
:1058E0008EE69EE00E944998082F863108F0CFC0CE
:1058F0008EE69EE00E948521053109F450CC8BE7AD
:105900009FE00E9469200F5FF7CF51E024363105F8
:105910000CF450E041E0853691050CF440E054175A
:1059200009F454CC84E690E05FCC662351F02EE27B
:105930002093EE06605D6093EF0680E28093F006B0
:105940006DCD80E28093EF068093EE06F6CF8CE279
:1059500090E198CD80EC9FE0D4CD80E99FE0F7CD39
:105960004CE85FE067E086E20E94632021CE4CE8CD
:105970005FE06CE186E20E94632050CE4CE85FE07D
:1059800067E089E40E9463207CCE4CE85FE06CE134
:1059900089E40E946320ABCE81E00E947478882362
:1059A000D9F022EDE22E23E0F22EF70181917F0162
:1059B000882309F419CF8F320CF08FE3082E000CE6
:1059C000990BAA0BBB0B89839A83AB83BC83CE0153
:1059D00001960E94F71EE9CF80911C0780FD00CF41
:1059E00087E89FE00E946920FFCE82E00E947478E1
:1059F0008823D9F09DECE92E93E0F92EF7018191EF
:105A00007F01882309F40ECF8F320CF08FE3082E2C
:105A1000000C990BAA0BBB0B89839A83AB83BC83C5
:105A2000CE0101960E94F71EE9CF80911C0781FDEF
:105A3000F5CE87E89FE00E946920F4CE84E00E94C2
:105A400074788823D9F085ECE82E83E0F82EF701EE
:105A500081917F01882309F403CF8F320CF08FE30B
:105A6000082E000C990BAA0BBB0B89839A83AB837E
:105A7000BC83CE0101960E94F71EE9CF80911C07DE
:105A800082FDEACE8FE79FE00E946920E9CE81E0A7
:105A9000111101C080E09091C4038917B1F01091F9
:105AA000FE038093C4038EE69EE00E944998181777
:105AB00008F047C01F5FE12FF0E0E259F14F80810D
:105AC000807C8038B9F31093FE03E090FE03F12C44
:105AD000C7018259914F7C010E944998182F60E8B4
