:100000000C9495150C94CE150C94CE150C94CE151D
:100010000C94CE150C94CE150C94CE150C94CE15D4
:100020000C94CE150C94CE150C94CE150C94CE15C4
:100030000C94CE150C942FCA0C94CE150C94CE159E
:100040000C948AC10C94CE150C9424BC0C94CE153F
:100050000C94D6790C94CC790C94CE150C94CE15C6
:100060000C94CE150C94CE150C94CE150C94CE1584
:100070000C94CE150C94CE150C94CE150C94CE1574
:100080000C94DE700C94CE150C94CE15076342369A
:10009000B79BD8A71A39685618AEBAAB558C1D3C19
:1000A000B7CC5763BD6DEDFD753EF6177231BF00DD
:1000B0000000803F08000000BE922449123EABAA17
:1000C000AA2ABECDCCCC4C3E00000080BEABAAAA72
:1000D000AA3E00000000BF000000803F00000000BA
:1000E00000084178D3BB4387D1133D190E3CC3BDF3
:1000F0004282AD2B3E68EC8276BED98FE1A93E4CA0
:1001000080EFFFBE01C4FF7F3F00000000004E41B2
:100110004E494E495459494E46CDCCCC3D0AD72381
:100120003C17B7D13877CC2B329595E6241FB14FC9
:100130000A000020410000C84200401C4620BCBE0E
:100140004CCA1B0E5AAEC59D7400407A10F35A007B
:10015000A0724E18090010A5D4E80000E8764817F0
:100160000000E40B54020000CA9A3B000000E1F5D5
:1001700005000080969800000040420F000000A09B
:100180008601000000102700000000E803000000C6
:10019000006400000000000A0000000000010000F0
:1001A0000000002C76D888DC674F0823DFC1DFAE63
:1001B00059E1B1B796E5E3E453C63AE6519976962C
:1001C000E8E6C28426EB898C9B62ED407C6FFCEFF5
:1001D000BC9C9F40F2BAA56FA5F490055A2AF75C23
:1001E000936B6CF9676DC11BFCE0E40D47FEF520D5
:1001F000E6B500D0ED902E0300943577050080849D
:100200001E080000204E0A000000C80C33333333B0
:100210000F986E12831141EF8D2114893BE655161C
:10022000CFFEE6DB18D1844B381BF77C1D901DA454
:10023000BBE424203284725E228100C9F124ECA147
:10024000E53D2741425300504C41004572723A202F
:10025000454550524F4D20436F7272757074004582
:1002600072723A20454550524F4D2043524300454B
:1002700072723A20454550524F4D2053697A6500BD
:100280004572723A20454550524F4D205665727363
:10029000696F6E0020002000200020002000250053
:1002A00020202020202020002020202000657272A5
:1002B000001FE020102010201010201020201020FF
:1002C0001030300840048003001FE03FF03FF03F53
:1002D000F01FE01FE03FF03FF03FF00FC00780034A
:1002E000003FFFF038007030FC3020FC1020781008
:1002F0002030102C00D02E31D02F7BD02F7BD02E51
:1003000031D02C00D020301020781020FC1030FC90
:10031000303800703FFFF03FFFF03800703186301A
:100320002387102787902F87D02F03D020301020CD
:1003300078102078102030102F03D02F87D02787F7
:10034000902387103186303800703FFFF01FFFF890
:100350001FFFF80410400208200208200410400883
:10036000208010410010410008208004104000004F
:10037000001FFFF81FFFF83E0FF0C18618C1860C62
:100380000186040306041F0604030604018604C153
:10039000860CC186183E0FF042656400456E636CA2
:1003A0006F73757265003F0049676E6F726500522A
:1003B0006573657400496E697469616C697A65205A
:1003C000454550524F4D0046696C2E204469612EC0
:1003D000004F6666004F6E004520696E206D6D5EB1
:1003E000330020082046616374002008204D6178A6
:1003F000002008204D696E004D696E2054726176B0
:10040000656C205370656564004D696E2056656C9F
:100410006F63697479004D61782040205370656581
:1004200064004D6178204520416363656C004D6137
:1004300078204020416363656C0054726176656C7E
:1004400020416363656C005265747261637420417E
:100450006363656C00416363656C00402073746581
:1004600070732F6D6D00416476616E636564205317
:10047000657474696E6773003F0043616E63656CF9
:1004800000496E6974004D34323800496E697469F0
:10049000616C697A6520454550524F4D0046696C44
:1004A000616D656E740054656D706572617475720E
:1004B000650053746570732F6D6D004A756E6374BB
:1004C000696F6E2044657600416363656C65726197
:1004D00074696F6E004D61782053706565642028E3
:1004E0006D6D2F73290053657420486F6D65204F23
:1004F00066667365747300436F6E666967757261D3
:1005000074696F6E0053572D4D6F64650053746F9F
:1005100077004465706C6F790053656C662D546587
:10052000737400526573657400426564004E6F7A9F
:100530007A6C650046616E20537065656400436F98
:100540006E66696775726174696F6E005265737467
:100550006F72652044656661756C7473004C6F61E1
:10056000642053657474696E67730053746F7265A9
:100570002053657474696E677300507265686561B5
:1005800074202420436F6E66696700424C546F7577
:10059000636800416476616E6365642053657474BA
:1005A000696E6773004D61696E204D656E7500431D
:1005B0006F6E66696775726174696F6E0054656D00
:1005C00070657261747572650050726F626520614A
:1005D0006E64204C6576656C004D6F74696F6E00BB
:1005E00054756E6500496E666F2053637265656E63
:1005F000002100486F74656E6420746F6F20636F14
:100600006C64004261636B0050726F6365656400E7
:100610004D6F7665204578747275646572004D6F14
:1006200074696F6E0044697361626C652053746510
:100630007070657273004D3834004175746F2048D6
:100640006F6D65004D61696E204D656E7500537468
:100650006F72652053657474696E67730050726FB2
:1006600062652040204F66667365740053746F772F
:10067000205A2D50726F6265004D3430320044654F
:10068000706C6F79205A2D50726F6265004D343056
:1006900031004661646520486569676874004C658F
:1006A00076656C20426564004732394E0047323926
:1006B000004F6666004F6E00426564204C657665AB
:1006C0006C696E67004175746F20486F6D650047F7
:1006D0003238004D61696E204D656E75005072654F
:1006E0006865617420242042656400507265686505
:1006F0006174202420456E640054656D70657261DC
:10070000747572650047024302436F6F6C646F77C4
:100710006E005072656865617420240046616E2029
:10072000537065656400426564004E6F7A7A6C654B
:10073000004D61696E204D656E750042616279738E
:10074000746570205A00426162797374657020404C
:1007500000466C6F770046616E20537065656400DB
:10076000426564004E6F7A7A6C650053706565640B
:10077000004D61696E204D656E7500486F6D696E44
:1007800067204661696C6564006F70656E00545245
:1007900049474745524544003A20007A5F6D696EEB
:1007A00000795F6D696E00785F6D696E00526570EB
:1007B0006F7274696E6720656E6473746F702073F6
:1007C00074617475730A0020746F6F206C6F6E67AC
:1007D00020657874727573696F6E207072657665C6
:1007E0006E7465640A0020636F6C642065787472AF
:1007F0007573696F6E2070726576656E7465640AD4
:1008000000486F6D6520257320466972737400007F
:1008100000000000000000000000005761726E69D7
:100820006E673A20486F6D696E672042756D702063
:1008300044697669736F72203C20310A0002020419
:100840000000A0400000A0400000004053544F5062
:100850005045442E20005072696E74657220737486
:100860006F707065642064756520746F20657272A6
:100870006F72732E204669782074686520657272E5
:100880006F7220616E6420757365204D393939208F
:10089000746F20726573746172742E202854656DB4
:1008A0007065726174757265206973207265736515
:1008B000742E2053657420697420616674657220FB
:1008C00072657374617274696E67290A00206572BB
:1008D000726F72202D207265737461727420776953
:1008E0007468204D3939390A00424C546F75636879
:1008F0000021212053544F502063616C6C656420AB
:1009000062656361757365206F6620000000A04317
:10091000000096430000C8430000000000000000F3
:100920000000000053657474696E67732053746F20
:1009300072656400290A002062797465733B206344
:100940007263200053657474696E67732053746F0B
:10095000726564202800204D61726C696E3D5639C5
:1009600030290A00454550524F4D20766572736913
:100970006F6E206D69736D61746368202845455002
:10098000524F4D3D00454550524F4D2064617461BA
:1009900073697A65206572726F722E0A00576172F0
:1009A0006E696E673A00202863616C63756C6174D0
:1009B000656429210A0020213D2000454550524F01
:1009C0004D20435243206D69736D61746368202D1F
:1009D000202873746F726564292000454550524F7A
:1009E0004D20436F72727570740A002053697A65E6
:1009F0003A2000496E6465783A2000206279746577
:100A0000733B2063726320002073746F72656420EF
:100A100073657474696E6773207265747269657644
:100A2000656420280048617264636F6465642044D3
:100A3000656661756C742053657474696E677320A4
:100A40004C6F616465640000401C4500401C45001B
:100A500000C8420000C8410000A0420000A04200BF
:100A600000C8430000BE42F4010000F4010000642D
:100A70000000008813000020286D6D29004F4646B5
:100A8000004F4E00203B204C6576656C696E6720F8
:100A90000020204D3432302053004175746F2042C5
:100AA0006564204C6576656C696E670020460020A1
:100AB000420020480020204D3134352053004D6144
:100AC00074657269616C206865617475702070610D
:100AD00072616D657465727300204A002020473290
:100AE00039205720490020204D3134392043203B04
:100AF00020556E69747320696E2043656C73697547
:100B0000730A0054656D7065726174757265205565
:100B10006E697473002020473231203B004C696EAF
:100B200065617220556E69747300434F4D4D554E8B
:100B300049434154494F4E0044525952554E004585
:100B400052524F525300494E464F004543484F00C2
:100B500053544F505045442E20005072696E7465B6
:100B6000722073746F707065642064756520746F93
:100B7000206572726F72732E2046697820746865E2
:100B8000206572726F7220616E6420757365204DEE
:100B900039393920746F20726573746172742E2034
:100BA0002854656D70657261747572652069732073
:100BB00072657365742E20536574206974206166B4
:100BC0007465722072657374617274696E67290A44
:100BD000004E6F20436865636B73756D2077697491
:100BE00068206C696E65206E756D6265722C204C94
:100BF000617374204C696E653A2000636865636BAD
:100C000073756D206D69736D617463682C204C6120
:100C10007374204C696E653A20004C696E65204EF5
:100C2000756D626572206973206E6F74204C6173FC
:100C300074204C696E65204E756D6265722B312C87
:100C4000204C617374204C696E653A20004D31313F
:100C5000300053657269616C207374617475732020
:100C60006D69736D617463680A00746F6F206D75D0
:100C7000636820696E6163746976652074696D6567
:100C8000202D2063757272656E7420636F6D6D61C7
:100C90006E643A20002121204B494C4C2063617541
:100CA0007365642062792000627573793A207061FF
:100CB0007573656420666F7220696E7075740A00C2
:100CC000627573793A2070617573656420666F721E
:100CD00020757365720A00627573793A2070726FBD
:100CE00063657373696E670A00506C656173652094
:100CF0005265736574005052494E54455220484124
:100D00004C5445440025533A202553004B494C4C44
:100D100045442E20005072696E7465722068616CC3
:100D20007465642E206B696C6C28292063616C6C7F
:100D30006564210A006563686F3A004572726F72DC
:100D40003A0042696C696E656172204C6576656C2B
:100D5000696E6720477269643A0A0050726F62696F
:100D60006E6720506F696E740025532025692F250A
:100D700069002E0A002F0050726F62696E67206D45
:100D800065736820706F696E742000202844525982
:100D900052554E2900473239204175746F20426503
:100DA00064204C6576656C696E67003F20284C2C8A
:100DB000522C462C4229206F7574206F6620626F7A
:100DC000756E64732E0A00290A003F4665656472D9
:100DD0006174652028532920746F6F206C6F772E03
:100DE00020285573696E6720003F28562965726276
:100DF0006F7365206C6576656C20696D706C6175CC
:100E00007369626C652028302D34292E0A004261F6
:100E100064205A2076616C75650A004E6F20626905
:100E20006C696E65617220677269640A0020440013
:100E300020204D32303020530020284469736162F5
:100E40006C6564293A0046696C616D656E74207347
:100E5000657474696E67730020204D3230312058FC
:100E6000004D617820416363656C65726174696FE0
:100E70006E2028756E6974732F7332290020204DFF
:100E80003230332058004D617820666565647261A8
:100E90007465732028756E6974732F73290020524E
:100EA0000020204D323034205000416363656C6572
:100EB000726174696F6E2028756E6974732F733256
:100EC000292028503C7072696E742D616363656CD3
:100ED0003E20523C726574726163742D6163636578
:100EE0006C3E20543C74726176656C2D6163636561
:100EF0006C3E2900204A0020540020530020204D41
:100F0000323035204200416476616E63656420288A
:100F1000423C6D696E5F7365676D656E745F746981
:100F20006D655F75733E20533C6D696E5F666565E8
:100F300064726174653E20543C6D696E5F747261C9
:100F400076656C5F66656564726174653E204A3CD7
:100F50006A756E635F6465763E290020440020490F
:100F60000020204D333031205000486F74656E648E
:100F7000205049440020440020490020204D3330B7
:100F80003420500042656420504944002E0A00027B
:100F9000149F299C299929206E6F742064697361BC
:100FA000626C65642E205368617265642077697491
:100FB0006800536C6565702E2E2E005A2050726F9B
:100FC00062652050617374204265640A005A2050A3
:100FD000726F62652050617374204265640047320D
:100FE000384C30005A2050726F6265205061737423
:100FF0002042656400205A3A0020593A0042656454
:1010000020583A004D65736820706F696E74206FC8
:101010007574206F662072616E67650A00436C69A3
:10102000636B20746F20526573756D652E2E2E00D4
:10103000616C736F20656E61626C6564290A004E95
:101040006F204D6F76652E002569730025696D2030
:10105000256973002569682025696D20256973005D
:10106000256964202569682025696D20256973003C
:1010700025697920256964202569682025696D2006
:10108000256973005072696E742074696D653A2029
:10109000006F6B004C696E653A20006F6666004B0E
:1010A0000B460B3F0B380B2A0B44454255473A0081
:1010B0004D3131322053687574646F776E004D3155
:1010C0003133205300427269782043522D31302051
:1010D0004F46462E0020732E0A00496E61637469E4
:1010E000766974792074696D656F75742000434F5B
:1010F0004E4649475F4558504F5254004D45415464
:101100005041434B00434F4F4C45525F54454D5067
:1011100045524154555245004348414D4245525F66
:1011200054454D50455241545552450045505F423B
:10113000414259535445500042414259535445503D
:1011400050494E470041524353004D4F54494F4E72
:101150005F4D4F44455300544845524D414C5F50FC
:10116000524F54454354494F4E00455854454E4400
:1011700045445F4D323000435553544F4D5F46490F
:10118000524D574152455F55504C4F4144004C46DB
:101190004E5F5752495445004C4F4E475F46494CAD
:1011A000454E414D45004155544F5245504F5254C4
:1011B0005F53445F5354415455530053445F575257
:1011C000495445005245504541540053444341520F
:1011D000440050524F4D50545F535550504F52544D
:1011E00000484F53545F414354494F4E5F434F4D66
:1011F0004D414E445300454D455247454E43595F7E
:1012000050415253455200434153455F4C49474872
:10121000545F4252494748544E45535300544F4738
:10122000474C455F4C494748545300534F46545729
:101230004152455F504F574552004255494C445F1B
:1012400050455243454E54004C4556454C494E4737
:101250005F44415441005A5F50524F42450052553D
:101260004E4F5554004155544F4C4556454C005037
:1012700052494E545F4A4F420050524F47524553D5
:1012800053004155544F5245504F52545F54454DB1
:1012900050004155544F5245504F52545F504F5398
:1012A00000564F4C554D4554524943004545505208
:1012B0004F4D0042494E4152595F46494C455F549B
:1012C00052414E534645520053455249414C5F5896
:1012D0004F4E5F584F4646004649524D5741524582
:1012E0005F4E414D453A4D61726C696E20322E3130
:1012F0002E332D62657461332028466562202036C6
:1013000020323032362031313A34303A33372920E6
:10131000534F555243455F434F44455F55524C3AF6
:101320006769746875622E636F6D2F4D61726C69A9
:101330006E4669726D776172652F4D61726C696E70
:101340002050524F544F434F4C5F56455253494FD4
:101350004E3A312E30204D414348494E455F545955
:1013600050453A427269782043522D3130204B4922
:101370004E454D41544943533A4361727465736914
:10138000616E2045585452554445525F434F554E67
:10139000543A3120555549443A63656465326132A7
:1013A000662D343161322D343734382D3962313283
:1013B0002D633535633632663336376666002F2F38
:1013C000004D31343520533C696E6465783E206FA2
:1013D0007574206F662072616E67652028302D312C
:1013E000290A003F4A206F7574206F662072616E73
:1013F00067652028302E303120746F20302E33293D
:101400000A002058003B200020204D61783A20003F
:10141000200020204D696E3A2000203B2000202033
:101420004D323131205300250A0046523A00204601
:101430006C6F773A20003A200020536572766F2057
:1014400000206F7574206F662072616E67650A00F8
:10145000536572766F200064697300656E004329DE
:101460000061626C656420286D696E2074656D7022
:101470002000436F6C642065787472756465732016
:1014800061726520004F46460A0046616465204847
:1014900065696768742000426564204C6576656CF8
:1014A000696E6720004661696C656420746F206511
:1014B0006E61626C6520426564204C6576656C697E
:1014C0006E670A00496E76616C6964206D657368A9
:1014D0002E0A004D34323120696E636F727265637B
:1014E0007420706172616D657465722075736167D7
:1014F000650A004D65736820706F696E74206F75A2
:1015000074206F662072616E67650A004F666673AD
:10151000657473204170706C696564004D494E2F8D
:101520004D415820546F6F2046617200546F6F20F8
:101530006661722066726F6D204D494E2F4D415885
:101540000A00454550524F4D204F4B0A00290A00D2
:1015500020746F20003F5A206F7574206F662072D0
:10156000616E6765202800290A0020746F20003F03
:1015700059206F7574206F662072616E6765202830
:1015800000290A0020746F20003F58206F757420D6
:101590006F662072616E67652028006F6B002020E7
:1015A0004D323036205800486F6D65206F66667387
:1015B0006574004361703A00203B0020204D3835AF
:1015C000312058005A2D50726F6265204F66667345
:1015D00065740020573A00436F6F6C696E672E2E5A
:1015E0002E0045312025530020573A0042656420E3
:1015F000436F6F6C696E672E2E2E00426564204823
:10160000656174696E672E2E2E0023646566696EAF
:10161000652044454641554C545F000062656400B6
:101620004B6420004B6920004B7020002066696EDF
:101630006973686564212050757420746865206C36
:10164000617374204B702C204B6920616E64204BB9
:101650006420636F6E7374616E74732066726F6D55
:101660002062656C6F7720696E746F20436F6E66C1
:10167000696775726174696F6E2E680A005049441B
:10168000204175746F74756E6500206661696C65C4
:1016900064212074696D656F75740A005049442097
:1016A0004175746F74756E6500206661696C656460
:1016B000212054656D706572617475726520746F58
:1016C0006F20686967680A00504944204175746F4B
:1016D00074756E6500504944204379636C657300EE
:1016E00025532025692F256900204B643A200020CE
:1016F0004B693A2000204B703A200020436C617304
:1017000073696320504944200A00204E6F206F7691
:10171000657273686F6F740A002054753A20002058
:101720004B753A2000206D61783A2000206D696E7B
:101730003A200020643A200020626961733A200058
:1017400048656174696E672E2E2E00207374617275
:10175000740A00504944204175746F74756E6500B9
:10176000206661696C6564212054656D70657261E5
:101770007475726520746F6F20686967680A00501D
:101780004944204175746F74756E6500504944205A
:101790004175746F74756E6500206661696C65646F
:1017A0002120426164206865617465722069640A61
:1017B00000504944204175746F74756E6500457220
:1017C000723A207574663820666F6E74206E6F747E
:1017D00020696E697469616C697A65642E0045726E
:1017E000723A207574663820666F6E74206E6F745E
:1017F00020696E697469616C697A65642E0045724E
:10180000723A207574663820666F6E74206E6F743D
:1018100020696E697469616C697A65642E002000C4
:101820003A003A00000C0F00FE07022503BB017FBF
:10183000FE08FE08FE05080806000040F0C888887B
:10184000987810050808060000C0F88888888888FD
:10185000F80505050600012030F8302005080806C7
:1018600000002070F820202020E00509090600FF74
:101870002070A8A8B888887020070505070001D83F
:101880006C366CD80509090600FFF8A88888888896
:1018900088A8F8050A0A0600FE205050505088A873
:1018A000A8887003030306000340A040FFFFFFFF6A
:1018B000FFFFFFFFFFFFFFFFFFFFFFFFFFFFFFFF38
:1018C000FFFF0000000605FF0107070602008080F9
:1018D0008080800080030303060105A0A0A0050608
:1018E0000606000050F85050F8500509090600FFA0
:1018F0002070A8A07028A87020050707060000C85F
:10190000C8102040989805070706000040A0A04096
:10191000A890680103030602058080800309090678
:1019200001FF2040408080804040200309090601DB
:10193000FF8040402020204040800507070600002F
:1019400020A8702070A8200505050600012020F8B9
:1019500020200203030601FFC040800501010600AC
:1019600003F8020202060100C0C0050707060000D6
:101970000810102040408005070706000070889876
:10198000A8C8887003070706010040C040404040D7
:10199000E0050707060000708808102040F80507DA
:1019A00007060000F80810300888700507070600D1
:1019B0000010305090F81010050707060000F8805E
:1019C000F008088870050707060000304080F0889E
:1019D0008870050707060000F80810102020200571
:1019E000070706000070888870888870050707065A
:1019F000000070888878081060020505060100C0A4
:101A0000C000C0C00206060601FFC0C000C0408082
:101A10000305050601012040804020050303060060
:101A200002F800F80305050601018040204080050A
:101A30000707060000708810202000200507070611
:101A400000007088B8A8B88070050707060000700D
:101A50008888F8888888050707060000F0484870DD
:101A60004848F0050707060000708880808088706D
:101A7000050707060000F04848484848F0050707F2
:101A8000060000F88080F08080F805070706000057
:101A9000F88080F08080800507070600007088804D
:101AA00080988870050707060000888888F888886D
:101AB00088030707060100E04040404040E005077A
:101AC0000706000038101010109060050707060088
:101AD000008890A0C0A090880507070600008080BD
:101AE00080808080F805070706000088D8A88888CD
:101AF00088880507070600008888C8A89888880590
:101B00000707060000708888888888700507070620
:101B10000000F08888F080808005070706000070CC
:101B2000888888A89068050707060000F08888F074
:101B3000A0908805070706000070888070088870EC
:101B4000050707060000F8202020202020050707B1
:101B500006000088888888888870050707060000C6
:101B600088888888505020050707060000888888E4
:101B700088A8A850050707060000888850205088CC
:101B800088050707060000888850202020200507C8
:101B900007060000F80810204080F8030909060134
:101BA000FFE080808080808080E0050707060000DD
:101BB000804040201010080309090601FFE02020A2
:101BC0002020202020E00503030600052050880582
:101BD00001010600FEF8030303060105804020050D
:101BE00005050600007008788878050707060000DC
:101BF0008080F0888888F0050505060000708080E8
:101C00008870050707060000080878888888780526
:101C100005050600007088F08070050707060000C3
:101C2000304840E04040400507070600FE708888C5
:101C3000887808700507070600008080F08888888B
:101C4000880307070601004000C0404040E0040947
:101C5000090601FE100030101010109060050707F3
:101C600006000080808890E0908803070706010046
:101C7000C04040404040E0050505060000D0A8A84F
:101C8000A8A8050505060000B0C8888888050505D0
:101C900006000070888888700507070600FEF08837
:101CA0008888F080800507070600FE788888887895
:101CB0000808050505060000B0C8808080050505F8
:101CC00006000078807008F0050707060000202055
:101CD000F8202020180505050600008888889868E7
:101CE00005050506000088888850200505050600C2
:101CF000008888A8A85005050506000088502050D7
:101D0000880507070600FE88888850204080050562
:101D100005060000F8102040F80309090601FF201D
:101D200040404080404040200109090602FF808079
:101D3000808080808080800309090601FF80404008
:101D400040204040408005030306000248A890FF61
:101D500024F4D43050C38D20C3A24117828B70115C
:101D6000127A900D826CDA0AA861E108C7586607FA
:101D7000615142061F4B5E05C145A6041B4112047A
:101D8000093D9703723931034136DB026633920213
:101D9000D4305302812E1D02642CEE01762AC50137
:101DA000B128A101102781018F2564012B244A014C
:101DB000E1223401AD2120018D200C01811FFC00A6
:101DC000851EED00981DDF00B91CD200E71BC7007F
:101DD000201BBB00651AB200B319A9000A19A000A4
:101DE0006A189800D217920040178A00B61684002D
:101DF00032167E00B41579003B157400C7146F00CD
:101E000058146A00EE1366008813620026135E0001
:101E1000C8125B006D12570016125500C111510017
:101E200070114E0022114C00D61049008D10460052
:101E30004710450002104200C00F4000800F3E00D6
:101E4000420F3C00060F3A00CC0E3900930E3700CB
:101E50005C0E3500270E3400F30D3200C10D310049
:101E6000900D2F00610D2F00320D2D00050D2C005F
:101E7000D90C2A00AF0C2A00850C28005D0C280024
:101E8000350C27000E0C2500E90B2500C40B24009F
:101E9000A00B23007D0B22005B0B21003A0B2100DD
:101EA000190B2000F90A1F00DA0A1F00BB0A1E00E6
:101EB0009D0A1D00800A1C00640A1C00480A1C00C0
:101EC0002C0A1B00110A1A00F7091A00DD09190073
:101ED000C4091900AB091800930918007B09170001
:101EE000640917004D09170036091600200915006E
:101EF0000B091500F6081500E1081500CC081400C0
:101F0000B8081400A4081300910813007E081300F9
:101F10006B08120059081200470812003508120019
:101F2000230811001208110001081000F107110028
:101F3000E0071000D0071000C0070F00B107100025
:101F4000A1070F0092070F0083070F0074070E0010
:101F500066070E0058070E004A070E003C070E00E9
:101F60002E070D0021070D0014070D0007070D00B7
:101F7000FA060D00ED060C00E1060D00D4060C007B
:101F8000C8060C00BC060C00B0060B00A5060C0031
:101F900099060B008E060B0083060B0078060B00DB
:101FA0006D060B0062060B0057060A004D060A007C
:101FB00043060B0038060A002E060A002406090014
:101FC0001B060A0011060A0007060900FE050A00A2
:101FD000F4050900EB050900E2050900D90509002F
:101FE000D0050900C7050800BF050900B6050900AE
:101FF000AD050800A50508009D0508009505090028
:102000008C050800840508007C050700750508009C
:102010006D050800650507005E0508005605070008
:102020004F05080047050700400507003905070070
:10203000320507002B050700240507001D050700D2
:10204000160507000F050600090507000205060032
:10205000FC040700F5040600EF040700E80406008E
:10206000E2040600DC040600D6040600D0040700E3
:10207000C9040500C4040600BE040600B804060036
:10208000B2040600AC040600A6040500A104060084
:102090009B04050096040600900405008B040600CE
:1020A00085040500800405007B0405007604060015
:1020B000700405006B04050066040500610405005A
:1020C0005C04050057040500520405004D0405009A
:1020D00048040400440405003F0405003A040400D9
:1020E00036040500310405002C0404002804050012
:1020F000230404001F0405001A040400160404004D
:10210000120405000D040400090404000504040081
:1021100001040500FC030400F8030400F4030400B8
:10212000F0030400EC030400E8030400E4030400EB
:10213000E0030400DC030400D8030400D40303001C
:10214000D1030400CD030400C9030400C503040047
:10215000000000000000000000000000000000007F
:102160000000000000000000D1036D6403570D0360
:1021700047C6023B8B023259022B2E02250902214F
:10218000E8011CCC011AB201179B011487011374DA
:10219000011163010F54010E46010D39010D2C018F
:1021A0000B21010A17010A0D0109040108FC0008AE
:1021B000F40007ED0007E60007DF0006D90006D3AC
:1021C0000005CE0006C80005C30004BF0005BA0024
:1021D00004B60004B20004AE0004AA0004A6000382
:1021E000A300049F00039C0003990003960003933F
:1021F00000029100038E00028C0003890002870018
:10220000038400028200028000027E00027C000241
:102210007A000278000276000175000273000271F4
:1022200000017000026E00016D00026B00016A0087
:10223000026800016700026500016400016300019B
:102240006200026000015F00015E00015D00015C50
:1022500000015B00015A00015900015800015700BC
:1022600001560001550001540001530001520001C4
:102270005100005100015000014F00014E00014D7E
:1022800000004D00014C00014B00014A00004A00D3
:1022900001490001480000480001470001460000D4
:1022A0004600014500004500014400014300004391
:1022B00000014200004200014100004100014000D5
:1022C000004000013F00003F00013E00003E0001D1
:1022D0003D00003D00013C00003C00013B00003B94
:1022E00000013A00003A00013900003900003900CD
:1022F00001380000380001370000370000370001C6
:10230000360000360000360001350000350001348B
:1023100000003400003400013300003300003300BB
:1023200001320000320000320001310000310000B3
:102330003100003100013000003000003000012F7A
:1023400000002F00002F00002F00012E00002E00A3
:10235000002E00012D00002D00002D00002D000199
:102360002C00002C00002C00002C00012B00002B66
:1023700000002B00002B00012A00002A00002A0088
:10238000002A00002A00012900002900002900007D
:10239000290001280000280000280000280000284B
:1023A0000001270000270000270000270000270069
:1023B000012600002600002600002600002600005E
:1023C000260001250000250000250000250000252D
:1023D0000000250001240000240000240000240047
:1023E000002400002400012300002300002300003B
:1023F000230000230000230001220000220000220D
:102400000000220000220000220000220001210022
:102410000021000021000021000021000021000017
:1024200021000120000020000020000020000020EA
:1024300000002000002000002000011F00001F00FD
:10244000001F00001F00001F00001F00001F0000F1
:1024500020436F756E7420583A0042656400453120
:1024600000626564002C2073797374656D20737449
:102470006F7070656421204865617465725F4944BE
:102480003A20004572723A204D415854454D500053
:102490004D415854454D50207472696767657265A7
:1024A000640048656174696E67204661696C6564A3
:1024B0000048656174696E67206661696C656400D7
:1024C0004572723A204D494E54454D50004D494E8B
:1024D00054454D5020747269676765726564005495
:1024E0004845524D414C2052554E41574159005498
:1024F0006865726D616C2052756E6177617900203C
:102500002F002042403A0020403A00000000000026
:102510000000600000000000FC00000FF000000060
:102520000007E00000000001861FC01870000000D6
:102530000000603C0C000001830C601030000000C3
:102540000000603C0C000001830C303030000000C3
:10255000000060000C000000030C183000000000B8
:10256000000060003F0F3C00030C0C6001DF0FE037
:10257000FE00601C1C061800060C0C6000F31831ED
:102580008300600C0C0318001E0C0C6000E0303956
:102590008300600C0C033000030C0C6000C030386A
:1025A0000F00600C0C033000018C0C6000C03FF881
:1025B000FB00600C0C033000018C0C6030C030015B
:1025C0008300600C0C01F001818C0C6030C0300184
:1025D0008300600C0C00E001818C183030C0183191
:1025E0008300600C0C40E001838C301860C00C61EB
:1025F00087C0E01C0CC06000C30C600FC3F007C0B4
:10260000FFC7FC7F0781C0007E1FC00000000000E4
:1026100000000000000700000000000000000000B3
:1026200000000000000700000000006D61726C698E
:102630006E66772E6F726700322E312E332D6265F3
:10264000746133001FFFFFFFFFFFFF600000000009
:1026500001FF400000000000FF8000000000007F3C
:1026600083CF00000C303F87FF80000C301F86793D
:1026700080000C000F8C30C7838C30E78C30CFC7C4
:10268000CC31F38C30DCECEC33B98C30D86C6C335F
:10269000198C30D06C0C33198C30D86C0C33198CED
:1026A00030DC6C0E3B198C30CF7C079F198C30C707
:1026B0007C038F1940000000000002600000000051
:1026C00000061FFFFFFFFFFFF82001400130013B24
:1026D00001400136016001310170012C0190012798
:1026E00001B0012201C0011D01F001180110021307
:1026F0000130020E016002090190020401C002FFD4
:10270000000003FA004003F5008003F000D003EB63
:10271000002004E6007004E100E004DC004005D77E
:1027200000C005D2004006CD00D006C8008007C317
:10273000003008BE00F008B900C009B400B00AAF0C
:1027400000B00BAA00D00CA500000EA000500F9BFB
:1027500000C01096005012910000148C00C0158724
:1027600000B0178200B0197D00D01B7800001E73E6
:102770000040206E0090226900F024640040275F32
:102780000090295A00E02B5500102E500020304BAD
:102790000010324600E033410090353C00103737DE
:1027A0000070383200A0392D00B03A2800A03B2339
:1027B00000603C1E00103D1900903D1400103E0FBB
:1027C00000703E0A00C03E0500003F0000403FFB95
:1027D000FF803FF6FFC03FF1FF2020506C616E6E1E
:1027E000657242756666657242797465733A200057
:1027F0002046726565204D656D6F72793A20002024
:10280000436F6D70696C65643A20466562202036BE
:1028100020323032360A00204C61737420557064C7
:10282000617465643A20323032352D30362D3235C0
:10283000207C20417574686F723A2028437265616C
:102840006C6974792043522D3130290A004D617230
:102850006C696E20322E312E332D62657461330A1D
:102860000020536F667477617265205265736574DA
:102870000A00205761746368646F6720526573654E
:10288000740A002042726F776E206F757420526553
:102890007365740A002045787465726E616C20520D
:1028A000657365740A00506F77657255700A00731E
:1028B000746172740A00456E6473746F70730025DE
:1028C0005320256320256320256320256300205A9B
:1028D0003A0020593A0020583A00656E6473746FCC
:1028E0007073206869743A2000000000010200093A
:1028F0000A000000000403080700000000000000B8
:10290000000000000000000000302E3032350030A2
:102910002E3100312E30004D6F766520246D6D0014
:102920003130000000A043000096430000C8434D32
:102930006F76652041786973004D6F7665202A00B7
:102940004D6F76652040002000200020002000FF11
:10295000FFFF205A3A200020593A200042656420A7
:10296000583A200050726F62696E67204661696C48
:1029700065640A0050726F62696E67204661696C17
:10298000656400220A00556E6B6E6F776E20636F70
:102990006D6D616E643A202200204500205A0020AF
:1029A000590020204D39322058005374657073202F
:1029B00070657220756E697400DB0FC93F45BCDA23
:1029C0003F8FB30240FCF0274056946140FE4B9B82
:1029D0004084A5D840E0231841346A5641E859970D
:1029E0004164DBD5416E271742B4B75542CE1A97E2
:1029F00042C8AED542B5885A43D40684BFA65FA765
:102A0000BF7443E0BF10B11AC01C2C58C0E8F69741
:102A1000C0B849D6C04E4E17C124D355C1802497A3
:102A2000C1A0B5D5C1121A17C244AE55C2781797C6
:102A3000C26CACD5C267885AC320746F6F206C6FAC
:102A40006E6720657874727573696F6E2070726539
:102A500076656E7465640A0020636F6C6420657827
:102A600074727573696F6E2070726576656E7465C9
:102A7000640A006F6B0A00526573656E643A200049
:102A800020453A00205A3A0020593A00583A0000AE
:102A9000002200250028002B000000210024002730
:102AA000002A0002020202020202020404040404D8
:102AB00004040403030303030303030101010101ED
:102AC00001010101020408102040800102040810E5
:102AD000204080010204081020408080402010081F
:102AE0000402014572726F722077726974696E67B1
:102AF00020746F20454550524F4D210A00427269A3
:102B0000782043522D31302052656164792E005077
:102B100072696E74696E672E2E2E005072696E7423
:102B20002050617573656400B2CC11241FBECFEFD5
:102B3000D0E4DEBFCDBF84B78093720F14BE0FB652
:102B4000F894A8958091600088618093600010924D
:102B500060000FBE12E0A0E0B1E0E8E3F3EC01E0BA
:102B60000BBF02C007900D92A035B107D9F72FE037
:102B7000A0E5B2E001C01D92A237B207E1F715E16E
:102B8000C5E9D5E104C02197FE010E94A3DDC43947
:102B9000D107C9F70E94B6CD0C949AE10C940000BD
:102BA000CF92DF92EF92FF9280918202882309F404
:102BB00057C0C0907E02D0907F02E0908002F090DB
:102BC000810220E030E0A901C701B6010E94D8D6F9
:102BD000882309F445C020E030E040E05FE3C7010E
:102BE000B6010E943DD79B01AC010E943DD72BED61
:102BF0003FE049E450E40E943DD79B01AC0160E016
:102C000070E080E89FE30E946DDE6B017C01C09262
:102C10006902D0926A02E0926B02F0926C026091BB
:102C20001A0170911B01072E000C880B990B0E9452
:102C3000DED62AE037ED43E25CE30E943DD7A701F0
:102C400096010E943DD76093640170936501809363
:102C5000660190936701FF90EF90DF90CF90089509
:102C6000C12CD12C80E8E82E8FE3F82ED0CFFC01C8
:102C70007081472F50E0062E02C0559547950A9463
:102C8000E2F740FF14C040914F0450E0062E02C00E
:102C9000559547950A94E2F740FF09C021E030E0DE
:102CA00001C0220F6A95EAF7209527232083089513
:102CB0009C0197FF26C0EE27FF27E81BF90B2D3953
:102CC0008FEF38070CF05DC08DE28093A806CF012E
:102CD00064E670E00E9490DDCB012AE030E0B901AB
:102CE0000E9490DD805D8093A906CF01B9010E940A
:102CF00090DDCB01B9010E9490DD805D8093AA0632
:102D00002AC0283E83E03807B4F1C90168EE73E0B9
:102D10000E9490DDCB01EAE0F0E0BF010E9490DD6F
:102D2000805D8093A806C90164E670E00E9490DD92
:102D3000CB01BF010E9490DD805D8093A906C9018F
:102D4000BF010E9490DDCB01BF010E9490DD805D3C
:102D50008093AA06F901CF016AE070E00E9490DD3D
:102D6000805D8093AB0688EA96E008958DE237FD9A
:102D7000C5CF80E2C3CFF90180E2243631050CF0E3
:102D8000A4CF80E28093A8068093A906EA30F105DB
:102D90006CF38DE237FF80E28093A906CF016AE0F1
:102DA00070E00E9490DD605D6093AA06D4CF9C0124
:102DB000EAE0F0E0BF010E9490DD805D8093AB0609
:102DC0002A303105CCF0CB01BF010E9490DD805D3F
:102DD0008093AA062436310594F0C90164E670E0B8
:102DE0000E9490DDCB01BF010E9490DD805D809349
:102DF000A90689EA96E008958BEA96E008958AEAA2
:102E000096E008959C018436910544F164E670E0F3
:102E10000E9490DDCB016AE070E00E9490DD805D51
:102E20008093A90680E22A3031055CF0EAE0F0E008
:102E3000C901BF010E9490DDCB01BF010E9490DD5E
:102E4000805D8093AA06C9016AE070E00E9490DD6F
:102E5000805D8093AB0689EA96E0089580E237FFB3
:102E6000DFCF3195219531098DE2DACF94E6899F44
:102E70009001112421583F4FC9016FEF70E00E946B
:102E800090DDFB01862F91E3643609F090E2909388
:102E9000A8068A30D8F0C90166EF79E00E9490DD7B
:102EA000CB016AE070E00E9490DD805D8093A9060E
:102EB000CF016AE070E00E9490DD805D8093AA06F9
:102EC00085E28093AB0688EA96E0089580E2EECF33
:102ED000FC0184910895FC018081089560911A019C
:102EE00070911B01072E000C880B990B0E94DED6F7
:102EF0002AE037ED43E25CE30E943DD7209169026E
:102F000030916A0240916B0250916C020E943DD751
:102F100060936401709365018093660190936701EB
:102F200008958091D206811104C08091A0068093FB
:102F3000FC060895CF93DF93EC01CB01BA010E9408
:102F4000DED620E030E040E251E40E946DDE2AE06F
:102F500037ED43E25CE30E94F6DD688379838A8380
:102F60009B83DF91CF910895CF93DF93EC01CB0149
:102F7000BA010E94DED6688379838A839B83DF91BE
:102F8000CF910895CF93DF93EC01CB01BA010E945A
:102F9000DED6688379838A839B83DF91CF910895FE
:102FA000CF92DF92EF92FF920E94DED66B017C01FE
:102FB00020E030E0A9010E94D8D62DEB37E346E0AF
:102FC00055E387FF04C02DEB37E346E055EBC7011F
:102FD000B6010E94F6DD6B017C0120E030E0A90122
:102FE0000E94D8D620E030E040E05FE387FF04C0D5
:102FF00020E030E040E05FEBC701B6010E94F6DD63
:103000000E94D5DECB01FEDEFF90EF90DF90CF90E7
:103010000895CF93DF93EC01642F70E090E080E09F
:103020000E94DED629EC38EC48EC5EE30E946DDEAF
:1030300020E030E040E05FE30E94F6DD0E94DADE4F
:103040006883DF91CF91089570E090E080E00E9466
:10305000DED629EC38EC48EC5EE30E946DDE20E021
:1030600030E040E05FE30E94F6DD0E94DADE862F6A
:10307000FDCEE091D20686E0E802F0011124EB5388
:10308000F94F8091A00690E0958384830895CF93B3
:10309000DF93EC01CB01BA010E94DED620E030E0E4
:1030A00048EC52E40E946DDE2FE632E143E85AE339
:1030B0000E94F6DD688379838A839B83DF91CF91B9
:1030C0000895CF93DF93EC01CB01BA010E94DED6C5
:1030D00020E030E048EC52E40E946DDE2FE632E161
:1030E00043E85AE30E94F6DD688379838A839B83F1
:1030F000DF91CF910895CF93DF93EC01CB01BA011B
:103100000E94DCD62AE037ED43E25DE30E946DDEEB
:103110000E94DADE688379838A839B83DF91CF9173
:103120000895CF93DF93EC01CB01BA010E94DED664
:103130002AE037ED43E25DE30E946DDE6883798328
:103140008A839B83DF91CF910895FC015183408353
:103150000895CB0157CECF93DF93EC01CB01BA0199
:103160000E94DED620E030E04AE754E40E946DDEA3
:1031700027E137EB41ED58E30E94F6DD6883798360
:103180008A839B83DF91CF910895FC01A081B18157
:103190001C92A281B3818C918F5F8C930280F3810A
:1031A000E02D90818CE0989F800D1124E4E5FEE0F5
:1031B00013AE84AF08954091550421E0422761E0A9
:1031C00070E00C9465B24091550421E042276CE018
:1031D00070E00C9465B24091550421E0422761E013
:1031E00070E00C9465B24091550421E0422768E0FC
:1031F00070E00C9465B24091550421E042276CE0E8
:1032000070E00C9465B24091550421E0422762E0E1
:1032100070E00C9465B24091550421E0422764E0CF
:1032200070E00C9465B241E061E070E00C9465B22E
:1032300041E062E070E00C9465B24091550421E0F9
:1032400042270C9465B264E070E00C948DBB61E0A1
:1032500070E00C948DBB62E070E00C948DBB61E07B
:1032600070E00C948DBB6CE070E00C948DBBCF9340
:10327000DF93C82FCB010E94D871C1110EC0C9E8DD
:10328000D7E088E997E00E94D871CE010E94D871FA
:103290000E943B72DF91CF910895CEE8D7E0F1CF45
:1032A0009091870281E089270C94EC6A61E080EAC2
:1032B00096E00C94196BA4E0B0E0E1E6F9E10C941F
:1032C000CEDD19821A821B821C82AE014F5F5F4FD6
:1032D000BC0182E498E00E9470B32496E2E00C9472
:1032E000EADDCF93DF93C0918B08D0918C082097B3
:1032F00029F16091870870918808809189089091E0
:103300008A080E94D5DE6E5F7F4F24976C177D0779
:10331000ACF47093F8046093F7040E94E3BB605C24
:1033200073468F4F9F4F6093F9047093FA04809314
:10333000FB049093FC04DF91CF9108951092F9045F
:103340001092FA041092FB041092FC04F4CFC9CF3F
:10335000CF92DF92EF92FF92CF93C82F0E94E3BBF0
:103360006B017C0124EA30E74DE75FE360911001D7
:103370007091110180911201909113010E94D8D691
:1033800087FD18C08AEF90E0A0E0B0E08C0D9D1D95
:10339000AE1DBF1D8093D0039093D103A093D203A1
:1033A000B093D303C0930E01CF91FF90EF90DF90C5
:1033B000CF90089580E090E0DC01E8CFA4E0B0E099
:1033C000E4EEF9E10C94CEDD84EF91E0A0E0B0E012
:1033D00089839A83AB83BC83BE016F5F7F4F88E78D
:1033E0000E94E46F2496E2E00C94EADDB0E0A0E0F5
:1033F000ECEFF9E10C94CEDD20E24F8158856E812F
:103400008D810E9410B8E2E00C94EADDCF92DF9249
:10341000EF92FF92CF93DF9300D000D0CDB7DEB70D
:103420006B017C0120E030E0A9010E94D8D687FD25
:103430001DC06DEB77E386E095E3A70196010E943E
:10344000F6DD69837A838B839C8362E070E0CE0132
:1034500001960E9487B90F900F900F900F90DF9107
:10346000CF91FF90EF90DF90CF9008956DEB77E3D1
:1034700086E095EBE2CF0E94DED620E030E04AE71E
:1034800054E40E946DDE27E137EB41ED58E30E94E2
:10349000F6DDBCCF62E675E482E00C9479CA64E69E
:1034A00075E481E00C9479CA66E675E480E00C94DA
:1034B00079CA63E67EE383E00C9479CAB0E0A0E0C9
:1034C000E4E6FAE10C94C6DDEC018B01A42EB22EE9
:1034D0008091520E9091530E8C179D0709F44CC0A9
:1034E0001092500426E5CA39D20709F04AC08C5E12
:1034F000974371F40E94E3BB6E517B4F8F4F9F4FF8
:1035000060932D0470932E0480932F0490933004C5
:103510008091520E9091530E8C5E974341F486E554
:10352000CA39D80721F4109241080E94DBB1D09328
:10353000530EC093520E30E020E00093B406109377
:10354000B5062093B6063093B706A092AD06B092AA
:10355000AE06CC5ED74321F41092320410922C04B4
:1035600082E080935D0181E08093C40610922B0479
:103570001092330410923104CDB7DEB7EAE00C9418
:10358000E2DD27E3CC3ED20719F68A599645F1F4DD
:10359000C0902D04D0902E04E0902F04F0903004C1
:1035A0000E94E3BBC61AD70AE80AF90A1C141D04D4
:1035B0001E041F045CF48091D7068770873031F4B5
:1035C0000E94EB6EC9EEDAE18111A2CFCCEED7E317
:1035D0009FCF20E040E070E060E086ED9EE36EDF8C
:1035E00081E0809332041092DC061092DB0608958D
:1035F00020E040E070E060E089E59AE15FCFCF93A2
:10360000C1E0C0933204FC0180819181A281B38129
:103610008093100190931101A0931201B0931301B4
:1036200020E040E070E060E080919E0690919F066F
:1036300045DFC0935004CF910895A4E0B0E0E3E2E9
:10364000FBE10C94CEDD8DEC9CECACECBCE389830F
:103650009A83AB83BC83CE010196D1DF2496E2E04E
:103660000C94EADDA4E0B0E0E8E3FBE10C94CEDDED
:103670008DEC9CECACECBDE389839A83AB83BC837B
:10368000CE010196BCDF2496E2E00C94EADDA4E0D2
:10369000B0E0EDE4FBE10C94CEDD80E090E0A0E84A
:1036A000BFE389839A83AB83BC83CE010196A7DFF6
:1036B0002496E2E00C94EADDA4E0B0E0E2E6FBE16F
:1036C0000C94CEDD80E090E0A0E2B1E489839A839F
:1036D000AB83BC83CE01019692DF2496E2E00C948A
:1036E000EADD20E040E070E060E08CEE97E3E6CEBB
:1036F0006FEF8091A0060E94A3B8F3CFF9CF62E0EC
:103700008091A0060E94A3B8ECCFF9CF1092FC06DE
:103710000E94DAC1E6CF61E08091A0060E94A3B8C2
:10372000E0CF86E894E09093100580930F05D9CF01
:10373000EF92FF920F931F93CF93DF93EC018B01D6
:103740007A018A859B858617970731F08881998150
:103750000E94A3BD1B870A87B701888199810E94B7
:1037600071B82E813F81820F932F911D9F838E838D
:1037700090E080E0CDB7DEB7E6E00C94E6DDB0E0A7
:10378000A0E0E5ECFBE10C94C6DDEC017B018A01D5
:103790008A859B858617970731F0888199810E94D9
:1037A000A3BDFB86EA8688859985019609F5CC80BC
:1037B000DA808E81D80EA880B980D5015596ED911A
:1037C000FC91C5010995C80E780110E0F70121911F
:1037D0007F0121111FC08E819F81810F911D9F83C9
:1037E0008E8390E080E0CDB7DEB7EAE00C94E2DDB6
:1037F000EE80FF80B801888199810E9471B88E0D9A
:103800009F2D911D288539852817390780F681E07D
:1038100090E0E9CF4C2D6D2DC5010E9472BED80EEF
:10382000180FD4CF8091B502982F977F9093B5024F
:10383000982F937081E011F080E008955E9A0895CA
:103840005E988091B50288608093B5020895E82F54
:10385000F0E021E030E0082E02C0220F331F0A946E
:10386000E2F7209530959091B50292239093B5029E
:10387000E351FE4F2081922321E019F020E0822FB6
:103880000895813079F038F08230C9F7159A909117
:10389000D7069B7F04C05E9A9091D7069E7F909337
:1038A000D706EDCF5E9A9091D7069D7FF8CF8130F5
:1038B000A9F0A0F08230A1F021E030E0082E01C094
:1038C000220F0A94EAF79091B502922B9093B502D9
:1038D000823019F481E08093B40208955E98ECCFB1
:1038E0001598EACFB0E0A0E0E8E7FCE10C94BFDD7A
:1038F000382E41E06DE17BE00E948F72311002C0F2
:103900000E942B7285E19BE00E94D87187E79AE0C4
:103910000E94D8710E943B7241E063E07BE0832DFE
:103920000E948F72311002C00E942B7286EE9AE0C4
:103930000E94D871832D0E94AD78832D0E94BCB364
:10394000832D0E944D78832D0E947578832D0E94CF
:103950002D78832D0E94F977832D0E94A9776AE93B
:103960007AE0832D0E94B1B3C09187020DE71AE07F
:10397000CC2311F001E81AE0C0908302D0908402B9
:10398000E0908502F090860281E99AE00E94D87169
:103990006C2F70E090E080E00E944AB28CE999E2DE
:1039A0000E94D87142E0C701B6010E946B7184E8A1
:1039B0009AE00E94D871C8010E94D8710E943B729F
:1039C00020E030E0A9016091880270918902809125
:1039D0008A0290918B020E94D8D6882309F447C0AE
:1039E000C0E9D2E0C12CD12C76018E01812C912C22
:1039F0005401311002C00E942B72F80140805180A6
:103A0000628073808CED9AE00E94D871C501B40188
:103A10000E94EDB189ED9AE00E94D871C701B6010C
:103A20000E94EDB18CE999E20E94D87145E0C30192
:103A3000B2010E946B710E943B72045F1F4FFFEF47
:103A40008F1A9F0AAF0ABF0A83E088169104A10467
:103A5000B10479F6EFEFCE1ADE0AEE0AFE0A2496DA
:103A6000F3E0CF16D104E104F10409F0BECF41E048
:103A70006EEB7AE0832D0E948F72C5ECD6E010E0E9
:103A8000311002C00E942B7285EB9AE00E94D8711F
:103A9000812F0E94E66A68817981072E000C880BCD
:103AA000990B0E94DED6AB01BC0182EB9AE00E942A
:103AB00018726A817B81072E000C880B990B0E947B
:103AC000DED6AB01BC018FEA9AE00E941872EC804E
:103AD000FD808CEA9AE00E94D871C7010E94E66ED0
:103AE0000E943B722696113071F4832D0E94A572BC
:103AF000832D0E94C977832D0E943D72CDB7DEB71A
:103B0000E1E10C94DBDD11E0BBCFA8E8B0E0EBE82D
:103B1000FDE10C94C8DDC358DF4F188219821A8268
:103B20001B82CD57D04084E690E090935308809359
:103B3000520810925A0810925908809141029091AF
:103B40004202A0914302B0914402CF57DF4F8883D5
:103B50009983AA83BB83C158D04064E070E0CE0152
:103B60008F579F4F0E948DBB8091520890915308B0
:103B70000296909353088093520810925A0810921C
:103B8000590881E692E0CB57DF4F99838883C55867
:103B9000D040CE018B579F4F5EDB81E0C857DF4F8F
:103BA0008883C858D040CE0188579F4F58DB68E4BF
:103BB00070E080E197E00E948DBB80E1E8E6F1E0F3
:103BC0008E010F5F1F4FD80101900D928A95E1F78A
:103BD00060E170E0C8010E948DBB80EE96E033DBAF
:103BE00082E095E040DB7E018DE6E80EF11C8FEF70
:103BF000F7018083C70133DB19821A821B821C8282
:103C0000C80121DB8091830290918402A0918502FA
:103C1000B091860289839A83AB83BC83C80113DB8E
:103C200087E491E018DB85E491E015DB89E491E01D
:103C30000ADBC358DF4F188219821A821B82CD57C4
:103C4000D04083E0EA968FAFEA97F7018083CE01F8
:103C500083589F4FF8DACE0187589F4F00DBC7018A
:103C6000FEDA80E09CE09A838983C801F4DA2AE0D6
:103C7000D22EDA94DD2029F0CE0183589F4FE3DA6B
:103C8000F8CF85ED98E0EFDAC358DF4F188219823C
:103C90001A821B82CD57D0409AE0D92EDA94DD20CB
:103CA00029F0CE0183589F4FCEDAF8CF83E0F70199
:103CB0008083EA968FAFEA97C701D1DACE018758A1
:103CC0009F4FCDDA80E09CE09A838983C801C3DAF4
:103CD00068E070E088E892E00E948DBB68E070E0E8
:103CE00086E792E00E948DBB64E270E080E992E09A
:103CF0000E948DBB1982DD24DA94F701D082C801BD
:103D0000A6DAC701ACDA64E070E085E092E00E94D8
:103D10008DBB809100058983C80199DA6CE070E061
:103D200085EC96E00E948DBB80919F089091A00841
:103D3000A091A108B091A20889839A83AB83BC8328
:103D400021E732EB47E25EE36091A3087091A4089B
:103D50008091A5089091A6080E946DDE6D837E83F8
:103D60008F83988721E732EB47E25EE36091A708F3
:103D70007091A8088091A9089091AA080E943DD747
:103D800069877A878B879C8780E090E0A0E8BFE313
:103D90008D879E87AF87B88B198A1A8A1B8A1C8ADF
:103DA00064E170E0C8010E948DBB84E190E09A83D9
:103DB0008983C80150DA8091770890917808A091A2
:103DC0007908B0917A0889839A83AB83BC8321E711
:103DD00032EB47E25EE360917B0870917C08809152
:103DE0007D0890917E080E946DDE6D837E838F83B7
:103DF000988721E732EB47E25EE360917F0870919C
:103E0000800880918108909182080E943DD769873F
:103E10007A878B879C876CE070E0C8010E948DBB1D
:103E20008CE0E8E7F1E0D80101900D928A95E1F786
:103E30006CE070E0C8010E948DBB1982C8010FDAE6
:103E40008FE78983C8010BDAD982C80108DA85E0D7
:103E5000E4E8F1E0D80101900D928A95E1F765E080
:103E600070E0C8010E948DBBF70110821A8219828E
:103E7000C701EDD9C801EFD980E2E9E8F1E0D80146
:103E800001900D928A95E1F760E270E0C8010E940E
:103E90008DBBF7011082C701DAD982E892E0D7D949
:103EA0008EE792E0D0D9C358DF4F188219821A8268
:103EB0001B82CD57D040CE0183589F4FC4D982E199
:103EC000F80111928A95E9F762E170E0C8010E9459
:103ED0008DBB84E2E9EAF1E0D80101900D928A9568
:103EE000E1F764E270E0C8010E948DBB80E1D82E4A
:103EF000F8018D2D11928A95E9F760E170E0C80113
:103F00000E948DBB1A82198262E070E0C8010E9493
:103F10008DBBF8011192DA94E9F760E170E0C80115
:103F20000E948DBB8CE6F80111928A95E9F76CE648
:103F300070E0C8010E948DBB8CE0F70111928A9558
:103F4000E9F7C957DF4F1882C758D04080E090E0AA
:103F5000A0E4B0E4ED968CAF9DAFAEAFBFAFED97F0
:103F6000C70181D9CE0189579F4F79D9CE01875892
:103F70009F4F69D9009152081091530804561109B6
:103F80008091590890915A08F7019183808384E6C3
:103F900090E0909353088093520864E070E089E0C9
:103FA00092E00E948DBBC70156D90E942B7284E417
:103FB00099E00E94D871C8010E94E66EF701C080A6
:103FC000D180F12CE12C87E399E00E94D871C701E0
:103FD000B6010E94EDB184E399E00E94D8710136E8
:103FE000F2E01F0771F08DE999E00E94D87185E831
:103FF00099E00E94D87180E0C857DF4FE8E00C9448
:10400000E4DD84E299E00E94F2B281E0F5CF7DCD5B
:104010004F925F926F927F928F929F92AF92BF92D8
:10402000CF92DF92EF92FF92CF93DF9300D000D038
:1040300000D0CDB7DEB79E838D830E94E66B4B0127
:104040005C01AD81BE8118964D905D906D907C9025
:104050001B97AC019B01C301B2010E94F5DD6B010E
:104060007C018091830290918402A0918502B0919D
:10407000860289839A83AB83BC8320E030E0A90168
:10408000BC01CD010E94D8D6882349F020E030E061
:10409000A901C701B6010E94D8D61816ECF0AD816F
:1040A000BE811896CD92DD92ED92FC921B972696DA
:1040B0000FB6F894DEBF0FBECDBFDF91CF91FF905A
:1040C000EF90DF90CF90BF90AF909F908F907F90B8
:1040D0006F905F904F90089529813A814B815C8168
:1040E000C301B2010E9459DF87FFE1CF2091720224
:1040F000309173024091740250917502C501B40170
:104100000E943DD79B01AC0160E070E080E89FE336
:104110000E94F5DD9B01AC01C701B6010E946DDE76
:10412000ED81FE816087718782879387C0CF84305D
:1041300021E0920714F084E091E090938C08809342
:104140008B08CFC88091A0069091A106F0CFCF93A5
:10415000DF932091710221111DC0909150049111A3
:104160001AC0C0912001D0912101219720E030E0B8
:1041700040E05FE36091870870918808809189082A
:1041800090918A080E94F6DD0E94D5DE21E06C172E
:104190007D070CF020E0822FDF91CF910895D7DFCB
:1041A000882339F020E040E070E060E088E390E5AB
:1041B00085C91ECAB0E0A0E0E0EEF0E20C94C6DDD6
:1041C000C0E1D7E004EE16E080E2A82E87E0B82E2A
:1041D000C12CD12C7601C3946991799189919991DF
:1041E0000E94DCD6288939894A895B890E943DD79B
:1041F0000E94DADEF80161937193819391938F01AC
:10420000C616D706E806F90610F46B017C01AC1659
:10421000BD0611F76FEF7FEFCB01A70196010E945A
:1042200006DD2093F4063093F5064093F60650938E
:10423000F706CDB7DEB7EAE00C94E2DD0F931F93EB
:10424000CF93DF9304E217E0CDEFD6E0F8012191A0
:104250003191419151918F0160E070E080E89FE3DE
:104260000E946DDE6993799389939993F7E0CD303D
:10427000DF0761F70E9496B39DDFDF91CF911F9119
:104280000F910895DBCFDACF95CF94CF93CF92CF14
:104290009091E5088091E608981306C080910D077B
:1042A00090910E07892B21F080E00E94007AF0CFD8
:1042B00008959091E5088091E608981308C08091D0
:1042C0000D0790910E07892B11F40C946ECA80E0B3
:1042D0000E94007AEECF8F929F92AF92BF92CF92C0
:1042E000DF92EF92FF92CF93DF93209187022223F8
:1042F00009F482C0EC018090830290908402A09027
:104300008502B090860220E030E0A901C501B40129
:104310000E94D8D6882309F47AC0C884D984EA8454
:10432000FB8420E030E0A901C701B6010E94D8D685
:1043300018160CF06CC0A7019601C501B4010E94CB
:10434000D8D618160CF058C020916D0230916E022C
:1043500040916F0250917002C701B6010E94D8D6F9
:10436000882321F1C0926D02D0926E02E0926F021A
:10437000F0927002209172023091730240917402A7
:1043800050917502C701B6010E943DD79B01AC0157
:1043900060E070E080E89FE30E94F5DD60931C011F
:1043A00070931D0180931E0190931F01C0901C010A
:1043B000D0901D01E0901E01F0901F0120E030E040
:1043C000A901C701B6010E94D8D68823A9F0CE0161
:1043D0000E94E66B9B01AC01C701B6010E943DD76C
:1043E0009B01AC01688579858A859B850E94F6DDF5
:1043F000688779878A879B87DF91CF91FF90EF90BD
:10440000DF90CF90BF90AF909F908F900895C12C78
:10441000D12C80E8E82E8FE3F82ED9CFA6E1B0E0CA
:10442000E4E1F2E20C94C0DD8C015A01DC01559606
:104430004D905D906D907C905897FB01C080D1802D
:10444000E280F38020E030E0A901C701B6010E94BC
:10445000D8D6882309F434C1A3019201C701B6015B
:104460000E943DD70E945EDF6B017C01D5012D913A
:104470003D914D915C91C301B2010E943DD70E94D4
:104480005EDFCD82DE82EF82F886A70196012032C0
:1044900031054105510548F420E2822E912CA12CD2
:1044A000B12C8D829E82AF82B88669837A838B839A
:1044B0009C83603271058105910548F480E2882E65
:1044C000912CA12CB12C89829A82AB82BC82F801FA
:1044D000FE9680819181A281B3818097A105B1056B
:1044E00040F480E290E0A0E0B0E080839183A2837A
:1044F000B383D8019D968D909D90AD90BC90D09740
:104500008B8A9C8AAD8ABE8AF801E65BFF4F608188
:10451000718182819381611571058105910509F48D
:10452000D7C00E94DED69B01AC0160E070E080E85D
:104530009FE30E946DDE20E030E040E05FE30E94F8
:104540003DD76B017C01F801FE966081718182810B
:1045500093810E94DCD69B01AC010E943DD72B01C8
:104560003C0169817A818B819C810E94DCD69B0110
:10457000AC010E943DD79B01AC01C301B2010E9476
:10458000F5DDA70196010E943DD769877A878B8761
:104590009C876D817E818F8198850E94DCD69B01EE
:1045A000AC010E943DD79B01AC01C301B2010E9446
:1045B000F5DDA70196010E943DD72B013C010E9429
:1045C0005ADE0E94D5DE6B017C0169857A858B8578
:1045D0009C850E945ADE0E94D5DE46015701860E58
:1045E000971EA81EB91E2B893C894D895E89281902
:1045F00039094A095B0957FF32C06B897C898D896B
:104600009E890E94DCD6A30192010E94F6DD2985D5
:104610003A854B855C850E94F5DD20E030E040E086
:104620005FE30E943DD70E945EDFC12CD12C760152
:1046300097FD0DC06B017C018B889C88AD88BE887E
:104640008C149D04AE04BF0414F4750164016B89DD
:104650007C898D899E896C197D098E099F09D801F5
:10466000D196CD92DD92ED92FC92D4978B889C8866
:10467000AD88BE88861A970AA80AB90AD501C4016E
:10468000F80185AB96ABA7ABB0AFEE5BFF4F8D806B
:104690009E80AF80B88480829182A282B38298018A
:1046A0002A5B3F4FD90189809A80AB80BC808D9274
:1046B0009D92AD92BC9213976696E0E10C94DCDD7E
:1046C000F801EE5BFF4FC080D180E280F380CECE58
:1046D000C12CD12C760160E070E0CB01C0CF90916D
:1046E0006F0081E091FD02C080E0089590916F001D
:1046F0009D7F90936F000895F2DF1092F80610925C
:10470000F9061092FA061092FB0681110C94A46E21
:104710000895FC01208131814281538160913007ED
:104720007091310780913207909133070E943DD7F5
:104730000E945EDF6093F3087093F4088093F5089D
:104740009093F6089091E5088091E608981711F08B
:104750000C9432B39DDDC3DF4091F3085091F4080F
:104760006091F5087091F6084093EC045093ED04C5
:104770006093EE047093EF0481110C94A46E08957D
:104780004F925F926F927F928F929F92AF92BF9261
:10479000CF92DF92EF92FF92CF93DF93EC012091C3
:1047A00030073091310740913207509133076C85C3
:1047B0007D858E859F850E943DD70E945EDF6B01BF
:1047C0007C0120912C0730912D0740912E075091AC
:1047D0002F07688579858A859B850E943DD70E9431
:1047E0005EDF4B015C012091280730912907409141
:1047F0002A0750912B076C817D818E819F810E94B9
:104800003DD70E945EDF2B013C01209124073091AF
:1048100025074091260750912707688179818A8171
:104820009B810E943DD70E945EDF6093E7087093F2
:10483000E8088093E9089093EA084092EB085092C8
:10484000EC086092ED087092EE088092EF0890926A
:10485000F008A092F108B092F208C092F308D0924A
:10486000F408E092F508F092F6089091E50880913E
:10487000E608981789F00E9432B3DF91CF91FF903C
:10488000EF90DF90CF90BF90AF909F908F907F90F0
:104890006F905F904F900895FBDC21DFC82F87EE6B
:1048A00098E00E94D9C4CC2341F30E94A46EE5CFC6
:1048B000CF92DF92EF92FF92CF93DF93C82F0FDF5B
:1048C00094E0C99FE0011124FE01E052FB4FC0803B
:1048D000D180E280F38081110E94A46EC350D94F31
:1048E000C701B6010E94DED6288139814A815B81E9
:1048F0000E943DD7DF91CF91FF90EF90DF90CF9056
:1049000008958F929F92AF92BF92CF92DF92EF92D3
:10491000FF921F93CF93DF93CDB7DEB760970FB6AB
:10492000F894DEBF0FBECDBF182F80E0C1DF4B0172
:104930005C0180923D0490923E04A0923F04B092AC
:10494000400481E0B5DF6B017C01C0924104D0924C
:104950004204E0924304F092440482E0A9DF6093B1
:1049600045047093460480934704909348041D8641
:104970001E861F86188A89829A82AB82BC82CD826B
:10498000DE82EF82F88669877A878B879C8783E04F
:104990008FDF6D877E878F87988B80918702882332
:1049A00019F0CE01019634DB1E3FD9F480E1FE01FF
:1049B0003196A2E4B8E001900D928A95E1F76096F5
:1049C0000FB6F894DEBF0FBECDBFDF91CF911F9120
:1049D000FF90EF90DF90CF90BF90AF909F908F901F
:1049E000089584E0189FF0011124DF01AE5BB74FFA
:1049F00081E090E08C0F9D1FE80FF91F40815181ED
:104A0000628173814D935D936D937C931397D7CFA0
:104A1000CF92DF92EF92FF92CF93DF93C82F5FDEAA
:104A200094E0C99FE0011124FE01EC52FB4FC080CD
:104A3000D180E280F38081110E94A46EC350D94FCF
:104A4000C701B6010E94DED6288139814A815B8187
:104A50000E943DD7DF91CF91FF90EF90DF90CF90F4
:104A600008950E9427BF8DE00E9464718AE00C9433
:104A70006471A1E0B0E0EFE3F5E20C94CEDD898350
:104A800060E0CE0101960E94371661E0CE010196EA
:104A90000E94371662E0CE0101960E943716898186
:104AA0002196E2E00C94EADD4F925F926F927F9242
:104AB0008F929F92AF92BF92CF92DF92EF92FF922E
:104AC000FC01408051806280738084809580A68044
:104AD000B780C084D184E284F38420E030E0A9016F
:104AE000C301B2010E94D8D6811125C020E030E078
:104AF000A901C501B4010E94D8D681111CC020E0D3
:104B000030E0A901C701B6010E9459DF87FF04C048
:104B1000F7FAF094F7F8F094C701B601FF90EF9020
:104B2000DF90CF90BF90AF909F908F907F906F90CD
:104B30005F904F900895A3019201C301B2010E94BA
:104B40003DD72B013C01A5019401C501B4010E9490
:104B50003DD79B01AC01C301B2010E94F6DD4B01C0
:104B60005C01A7019601C701B6010E943DD79B01D8
:104B7000AC01C501B4010E94F6DD0E94DFDF6B01CC
:104B80007C01CACFA4E3B0E0E8ECF5E20C94BEDD12
:104B900080912201882309F4BEC080914F04082F20
:104BA00010E080FF3CC0C0902401D0902501E0902F
:104BB0002601F09027012091590230915A0240912C
:104BC0005B0250915C02C701B6010E9459DF1816C2
:104BD00044F4C0925902D0925A02E0925B02F092E1
:104BE0005C02C0903001D0903101E0903201F09031
:104BF00033012091590230915A0240915B02509149
:104C00005C02C701B6010E94D8D687FF08C0C092D7
:104C10005902D0925A02E0925B02F0925C0201FFCC
:104C20003CC0C0902801D0902901E0902A01F0906A
:104C30002B0120915D0230915E0240915F02509104
:104C40006002C701B6010E9459DF181644F4C092F1
:104C50005D02D0925E02E0925F02F0926002C0902C
:104C60003401D0903501E0903601F0903701209169
:104C70005D0230915E0240915F0250916002C70177
:104C8000B6010E94D8D687FF08C0C0925D02D092BC
:104C90005E02E0925F02F092600202FF3CC0C090B0
:104CA0002C01D0902D01E0902E01F0902F01209149
:104CB0006102309162024091630250916402C70127
:104CC000B6010E9459DF181644F4C0926102D092D6
:104CD0006202E0926302F0926402C0903801D090C8
:104CE0003901E0903A01F0903B012091610230914E
:104CF00062024091630250916402C701B6010E94B2
:104D0000D8D687FF08C0C0926102D0926202E092BA
:104D10006302F092640280910F0783FD6EC02091C0
:104D20004E0830914F0840915008509151086091C1
:104D300065027091660280916702909168020E94FC
:104D4000D8D6882309F459C002DA182F882331F005
:104D50000E942B7286EE97E00E94D87120914E0837
:104D600030914F0840915008509151086091650270
:104D70007091660280916702909168020E94F5DD51
:104D80006B017C0120E030E0A9010E9459DF87FF20
:104D900004C0F7FAF094F7F8F09420916401309190
:104DA00065014091660150916701C701B6010E94FB
:104DB0003DD720E030E04AE754E40E9459DF18165E
:104DC000D4F40E942B7287EC97E00E94D8718091F6
:104DD000650290916602A0916702B091680280938B
:104DE0004E0890934F08A0935008B093510885E661
:104DF00092E08FDC02C01111EACF2AE037ED43E2E6
:104E00005CE36091160170911701809118019091F7
:104E100019010E943DD76B017C01609114017091D2
:104E20001501072E000C880B990B0E94DED69B0102
:104E3000AC01C701B6010E943DD76DA37EA38FA32D
:104E400098A780918702882309F18090830290902F
:104E50008402A0908502B0908602C0906102D0903A
:104E60006202E0906302F090640220E030E0A90169
:104E7000C501B4010E94D8D6882319F1A701960173
:104E8000C501B4010E9459DF1816DCF019821A829C
:104E90001B821C82AE014F5F5F4FBE016B5D7F4F77
:104EA00089E592E00E9470B380E1E9E5F2E0A2E4D6
:104EB000B8E001900D928A95E1F7E496E2E10C9456
:104EC000DADD209142083091430840914408509126
:104ED00045086091590270915A0280915B0290914D
:104EE0005C020E94F5DD69A77AA78BA79CA7698B56
:104EF0007A8B8B8B9C8B2091460830914708409190
:104F000048085091490860915D0270915E0280915D
:104F10005F02909160020E94F5DD6DA77EA78FA7CA
:104F200098AB6D8B7E8B8F8B988F20914A08309138
:104F30004B0840914C0850914D08C701B6010E94A2
:104F4000F5DD69AB7AAB8BAB9CAB698F7A8F8B8FBE
:104F50009C8F20914E0830914F08409150085091FD
:104F6000510860916502709166028091670290918C
:104F700068020E94F5DD2B013C014D8E5E8E6F8E26
:104F800078A220E030E0A90169A57AA58BA59CA5AF
:104F90000E94D8D681110CC020E030E0A9016DA597
:104FA0007EA58FA598A90E94D8D6882309F46ECF34
:104FB000CE01419679DD6B017C012DEB37E346E8AC
:104FC00055E30E94D8D687FF0FC020E030E0A9014A
:104FD000C301B2010E9459DF7301620187FF04C05F
:104FE000F7FAF094F7F8F0942DEB37E346E855E341
:104FF000C701B6010E94D8D687FD56CF20E030E029
:1050000040EA50E4C701B6010E946DDE0E94DADE7C
:105010001B01672B19F422242394312CB10190E059
:1050200080E00E94DCD69B01AC0160E070E080E88B
:105030009FE30E946DDE4B015C01AC019B0169A501
:105040007AA58BA59CA50E943DD769A77AA78BA7B7
:105050009CA7A50194016DA57EA58FA598A90E9486
:105060003DD76DA77EA78FA798ABA501940169A92D
:105070007AA98BA99CA90E943DD769AB7AAB8BAB6F
:105080009CABA5019401C301B2010E943DD72B0145
:105090003C01A5019401C701B6010E943DD769A357
:1050A0007AA38BA39CA380E1E2E4F8E08E010F5F7A
:1050B0001F4FD80101900D928A95E1F70E94E3BB42
:1050C0006B017C0128ECC20ED11CE11CF11C81E0BB
:1050D000281A310809F459C00E94E3BB4601570160
:1050E000861A970AA80AB90A181419041A041B0484
:1050F0000CF44FC06B017C01A8ECCA0ED11CE11C62
:10510000F11C80E00E94007A29A53AA54BA55CA578
:1051100069817A818B819C810E94F6DD69837A8323
:105120008B839C832DA53EA54FA558A96D817E81BB
:105130008F8198850E94F6DD6D837E838F839887AB
:1051400029A93AA94BA95CA969857A858B859C8593
:105150000E94F6DD69877A878B879C87A30192017D
:105160006D857E858F8598890E94F6DD6D877E87A7
:105170008F87988BAE014F5D5F4FBE016B5D7F4F98
:10518000C8010E9470B38111A2CFAE014F5D5F4F85
:1051900084CE0E942DC3B8CF80914B0490914C04D3
:1051A000A0914D04B0914E04809316019093170185
:1051B000A0931801B09319018091490490914A0479
:1051C0009093150180931401089580911601909198
:1051D0001701A0911801B091190180934B0490938D
:1051E0004C04A0934D04B0934E048091140190910F
:1051F000150190934A048093490484E690E09093CB
:105200001501809314010895A8E0B0E0EAE0F9E206
:105210000C94C4DD5C014B018A01F901C080D1808E
:10522000E280F38020E030E0A901C701B6010E94CE
:10523000D8D6811181C080915E0190915F01A091CB
:105240006001B091610189839A83AB83BC8320E0C4
:1052500030E0A901C701B6010E94D8D6811106C06D
:10526000C12CD12C80E8E82E80E4F82ECD82DE829D
:10527000EF82F886F801C080D180E280F380A70138
:10528000960160914A0870914B0880914C0890916A
:105290004D080E94D8D687FF0CC0C0924A08D09211
:1052A0004B08E0924C08F0924D08CE0105960E9402
:1052B0005B19F40180819181A281B381F501408164
:1052C00051816281738140934208509343086093F7
:1052D0004408709345088093460890934708A0932C
:1052E0004808B0934908CE0101960E945B19F80165
:1052F000C080D180E280F380A701960160914A08C6
:1053000070914B0880914C0890914D080E9459DF94
:10531000181664F4C0924A08D0924B08E0924C08E8
:10532000F0924D08CE0105960E945B190E9448211B
:105330002896ECE00C94E0DDD701C60184CFA8E00C
:10534000B0E0E5EAF9E20C94CEDDAC019B0198E017
:10535000E2E4F8E0DE01119601900D929A95E1F7F2
:10536000BE016B5F7F4FCE0101964EDF2896E2E0D3
:105370000C94EADD8F929F92AF92BF92CF92DF9210
:10538000EF92FF921F93CF93DF9300D000D0CDB761
:10539000DEB7142FFC01C080D180E280F380C98287
:1053A000DA82EB82FC826623D9F08090DD0890904F
:1053B000DE08A090DF08B090E00820E030E0A9010E
:1053C000C501B4010E94D8D687FF0AC0A501940187
:1053D000C701B6010E94F5DD69837A838B839C83C4
:1053E00020E030E048EC53E469817A818B819C8134
:1053F0000E9459DF181644F480E090E0A8ECB3E472
:1054000089839A83AB83BC8380904A0890904B0831
:10541000A0904C08B0904D08C980DA80EB80FC80E9
:10542000111108C0A5019401C701B6010E94D8D688
:1054300087FD0DC0A5019401C701B6010E94D8D611
:10544000882329F061E072E0CE01019678DF0F90A9
:105450000F900F900F90DF91CF911F91FF90EF90E1
:10546000DF90CF90BF90AF909F908F9008950C9455
:1054700096B3CF9364DF80919806C82FC47082FDE5
:105480000AC01092980682E03CDAF1DF81E0C11197
:1054900080E0CF9108950E946770882391F3F9CF3F
:1054A000CF931DD9C82F8091E6088093E50880939B
:1054B000E40884E68093E3081FD981ED93E090939C
:1054C0000E0780930D07C1110E94A46E81E08093A6
:1054D000D3040E9448218EEF14DAC9DFCF910895DA
:1054E000ACE0B0E0E6E7FAE20C94CEDD0E94B1B2A7
:1054F000F6D89CE0E0EEF4E0DE01119601900D920A
:105500009A95E1F781110E94A46ECE0101960E9446
:105510008DC42C96E2E00C94EADDA6E0B0E0E3E96D
:10552000FAE20C94C0DD8091420890914308A0916A
:105530004408B091450889839A83AB83BC8340902B
:10554000460850904708609048087090490880903D
:105550004A0890904B08A0904C08B0904D08C0901D
:105560004E08D0904F08E0905008F09051080E94EB
:10557000DA2081E080938E080E94D01504E211E0C9
:105580001E821D828D819E81885E964F0E94D66A02
:10559000D8016D937D938D939D938D018D819E8117
:1055A000845F964F0E94D66AF80160877187828770
:1055B00093878D819E8104969E838D830C9711F72E
:1055C00060E081E594E00E94196B0E94EA6D0E9400
:1055D0001E2129813A814B815C8160914208709142
:1055E000430880914408909145080E94D8D68111C3
:1055F00029C0A301920160914608709147088091EB
:105600004808909149080E94D8D681111BC0A50175
:10561000940160914A0870914B0880914C089091D8
:105620004D080E94D8D681110DC0A7019601609146
:105630004E0870914F0880915008909151080E9437
:10564000D8D681114DDF2696E0E10C94DCDDA4E88C
:10565000B0E0EDE2FBE20C94BEDD2DB73EB7CD57D6
:10566000DF4F39832883C358D04084E690E090937D
:1056700053088093520810925A081092590841E03A
:1056800064E070E08E010F5F1F4FC8010E9465B299
:1056900043E050E069E072E0C8010E9451E1892BCB
:1056A000E1F5CE0183589F4F0E941819E9961CAE70
:1056B0001DAE1EAE1FAEE99710925A0810925908FF
:1056C000CE0185589F4F0E941819ED968EAD9FAD63
:1056D000ED978136924009F450C08DE999E00E941F
:1056E000D87185E899E00E94D8710E942B72609170
:1056F0005208709153086456710983EF99E00E9433
:105700002E728BEE99E00E94D87181E692E00E94A1
:10571000E66E0E943B7212E014C08C81882319F05F
:105720008FE389831A820E942B7284E699E00E949B
:10573000D871C8010E9427BF86E599E00E94D87100
:1057400011E080915504811107C0809101058330DB
:1057500018F080E00E94721C812FCD57DF4F288106
:105760003981C358D0400FB6F8943EBF0FBE2DBF4D
:10577000CC57DF4FE2E10C94DADDCE018F579F4F1B
:105780000E941319EDB6FEB6CF57DF4F6881C1589E
:10579000D04070E06D5F7F4F660F771F660F771FF9
:1057A0008DB79EB7861B970B0FB6F8949EBF0FBEA2
:1057B0008DBFEDB7FEB731966F01CF010E941D1965
:1057C0004091550481E0482764E070E080E297E072
:1057D0000E9465B2CF57DF4F6881C158D04070E05A
:1057E0006D5F7F4F660F771F660F771F2DB73EB730
:1057F000261B370B0FB6F8943EBF0FBE2DBF8DB7DB
:105800009EB701963C010E941D19CF57DF4F68815A
:10581000C158D04070E06D5F7F4F660F771F660FF5
:10582000771FEDB7FEB7E61BF70B0FB6F894FEBF78
:105830000FBEEDBF2DB73EB72F5F3F4F4901C901E6
:105840000E941D1930915504CE57DF4F3883C2583E
:10585000D04031114BC0CF57DF4F8881C158D04065
:1058600090E00296A0E1B7E050E040E030E020E0B8
:1058700063E77AE0E3E5AE2EEAE0BE2E82179307F7
:105880000CF4BBC0F601E40FF51F2080318042808C
:1058900053802D923D924D925D92821793070CF4A6
:1058A000B2C0F301E40FF51F2080318042805380A5
:1058B00050962D923D924D925C925397821793078A
:1058C0000CF4A8C0F401E40FF51F20803180428061
:1058D000538090962D923D924D925C9293972F5FBC
:1058E0003F4F4C5F5F4F2430310541F684E497E031
:1058F0000E940B1988E497E00E940B198CE497E052
:105900000E940B1980E597E00E940B1984E597E04F
:105910000E940B19CE018B589F4F0E940B19CE018C
:105920008B589F4F0E940B19CE018B589F4F0E949E
:105930000B19CE018B589F4F0E940B1980EE96E0F9
:105940000E940B190FB6F894FEBE0FBEEDBE82E0AA
:1059500095E00E94FB18CE0183599F4F0E94DB18EF
:10596000C8010E940B1981E594E00E940B1987E49D
:1059700091E00E94031985E491E00E94031989E4F3
:1059800091E00E940B19CE018B589F4F0E940B197A
:10599000CE0187589F4F0E941319CE0183599F4F04
:1059A0000E941319C8010E941819EA96CFACEA9711
:1059B000AE964FADAE9783EC2C2D282790E1299F12
:1059C00090011124842790E0982F88279295907F4A
:1059D0008227932729813A818217930709F031C2E0
:1059E000C49E60011124E1E0CE1AD108C8F0CE01B6
:1059F0008B589F4F0E940B19F6CFFB0125903590D5
:105A00004590549046CFE3E6FAE0259035904590D6
:105A100054904ECFF501259035904590549059CF34
:105A200085ED98E00E94FB185AE0D52EDA94CE015D
:105A3000DD2029F08B589F4F0E940B19F7CF80581B
:105A40009F4F0E941319CE0181589F4F0E94131936
:105A5000CE0187589F4F0E941819C058DF4F888188
:105A6000C058D04033EC832720E1829FC00111242D
:105A7000C158DF4F2881CF57D040232730E0322F45
:105A800022273295307F82279327EB962EAD3FADAC
:105A9000EB978217930709F0D4C1CE0183599F4F2A
:105AA0000E94F318C8010E94F318C058DF4F888184
:105AB000C058D040833009F08DC1C158DF4F988164
:105AC000CF57D040933009F087C1CE57DF4F388190
:105AD000C258D040311103C080E00E94EC6AB80186
