:100000000C9475160C94AE160C94AE160C94AE1699
:100010000C94AE160C94AE160C94AE160C94AE1650
:100020000C94AE160C94AE160C94AE160C94AE1640
:100030000C94AE160C94D28C0C94AE160C94AE1696
:100040000C9412890C94AE160C94A0D40C94AE1699
:100050000C94F1500C94E7500C94AE160C94AE1620
:100060000C94AE160C94AE160C94AE160C94AE1600
:100070000C94AE160C94AE160C94AE160C94AE16F0
:100080000C944C470C94AE160C94AE160763423693
:10009000B79BD8A71A39685618AEBAAB558C1D3C19
:1000A000B7CC5763BD6DEDFD753EF6177231BF00DD
:1000B0000000803F08000000BE922449123EABAA17
:1000C000AA2ABECDCCCC4C3E00000080BEABAAAA72
:1000D000AA3E00000000BF000000803F00000000BA
:1000E00000084178D3BB4387D1133D190E3CC3BDF3
:1000F0004282AD2B3E68EC8276BED98FE1A93E4CA0
:1001000080EFFFBE01C4FF7F3F00000000004E41B2
:100110004E494E495459494E46CDCCCC3D0AD72381
:100120003C17B7D13877CC2B329595E6241FB14FC9
:100130000A000020410000C84200401C4620BCBE0E
:100140004CCA1B0E5AAEC59D7400407A10F35A007B
:10015000A0724E18090010A5D4E80000E8764817F0
:100160000000E40B54020000CA9A3B000000E1F5D5
:1001700005000080969800000040420F000000A09B
:100180008601000000102700000000E803000000C6
:10019000006400000000000A0000000000010000F0
:1001A0000000002C76D888DC674F0823DFC1DFAE63
:1001B00059E1B1B796E5E3E453C63AE6519976962C
:1001C000E8E6C28426EB898C9B62ED407C6FFCEFF5
:1001D000BC9C9F40F2BAA56FA5F490055A2AF75C23
:1001E000936B6CF9676DC11BFCE0E40D47FEF520D5
:1001F000E6B500D0ED902E0300943577050080849D
:100200001E080000204E0A000000C80C33333333B0
:100210000F986E12831141EF8D2114893BE655161C
:10022000CFFEE6DB18D1844B381BF77C1D901DA454
:10023000BBE424203284725E228100C9F124ECA147
:10024000E53D27434F4D4D554E49434154494F4E8F
:100250000044525952554E004552524F5253004994
:100260004E464F004543484F00506C656173652012
:100270005265736574005052494E544552204841AE
:100280004C5445440025533A202553004B494C4CCF
:1002900045442E20005072696E7465722068616C4E
:1002A0007465642E206B696C6C28292063616C6C0A
:1002B0006564210A006563686F3A004572726F7267
:1002C0003A0020440020204D3230302053002028B6
:1002D00044697361626C6564293A0046696C616DBA
:1002E000656E742073657474696E67730020204DA9
:1002F0003230312058004D617820416363656C6570
:10030000726174696F6E2028756E6974732F733211
:10031000290020204D3230332058004D617820666E
:1003200065656472617465732028756E6974732FD6
:1003300073290020520020204D32303420500041DB
:100340006363656C65726174696F6E2028756E6990
:1003500074732F7332292028503C7072696E742D8B
:10036000616363656C3E20523C72657472616374B4
:100370002D616363656C3E20543C74726176656CDC
:100380002D616363656C3E2900204A0020540020E3
:10039000530020204D323035204200416476616E9A
:1003A0006365642028423C6D696E5F7365676D65A7
:1003B0006E745F74696D655F75733E20533C6D6943
:1003C0006E5F66656564726174653E20543C6D695C
:1003D0006E5F74726176656C5F6665656472617488
:1003E000653E204A3C6A756E635F6465763E29000F
:1003F00020440020490020204D3330312050004857
:100400006F74656E64205049440020440020490008
:1004100020204D3330342050004265642050494440
:10042000002E0A00A706472944294129206E6F742F
:100430002064697361626C65642E20536861726523
:100440006420776974680020496E76616C69642065
:100450006578747275646572200020746F6F206C0B
:100460006F6E6720657874727573696F6E20707235
:100470006576656E7465640A0020636F6C64206540
:100480007874727573696F6E2070726576656E74BC
:1004900065640A00536C6565702E2E2E005A20503C
:1004A000726F62652050617374204265640A005A5D
:1004B0002050726F62652050617374204265640041
:1004C00050726F62696E67204661696C65640A00EC
:1004D00050726F62696E67204661696C6564005A8C
:1004E0002050726F62652050617374204265640011
:1004F000205A3A0020593A0042656420583A004395
:100500006C69636B20746F20526573756D652E2E58
:100510002E00616C736F20656E61626C6564290AE0
:10052000004E6F204D6F76652E00456E6420666923
:100530006C65206C6973740A00426567696E206699
:10054000696C65206C6973740A004E6F206D656478
:1005500069610A00534420636172642072656C65AE
:10056000617365640A00286E6F2066696C652900F6
:1005700043757272656E742066696C653A20004E30
:100580006F74205344207072696E74696E670A003C
:100590005344207072696E74696E67206279746565
:1005A00020002E0A0044656C6574696F6E206661D8
:1005B000696C65642C2046696C653A200046696C5C
:1005C000652064656C657465643A0025697300256F
:1005D000696D20256973002569682025696D2025CE
:1005E000697300256964202569682025696D2025C7
:1005F00069730025697920256964202569682025AB
:10060000696D20256973005072696E742074696D7C
:10061000653A20006F6B004C696E653A20006F668A
:10062000660064025F02580251024302444542558B
:10063000473A004D313133205300427269782043EC
:10064000522D3130204F46462E0020732E0A00498D
:100650006E61637469766974792074696D656F750C
:100660007420002F2F004D31343520533C696E64C7
:1006700065783E206F7574206F662072616E6765C5
:100680002028302D31290A003F4A206F7574206FD1
:10069000662072616E67652028302E303120746FBD
:1006A00020302E33290A002058003B20004F4646B8
:1006B000004F4E0020204D61783A2000200020207D
:1006C0004D696E3A2000203B200020204D32313110
:1006D000205300250A0046523A0020466C6F773AB4
:1006E00020003A200020536572766F2000206F753D
:1006F00074206F662072616E67650A0053657276BA
:100700006F200064697300656E0043290061626CAC
:10071000656420286D696E2074656D702000436FDC
:100720006C642065787472756465732061726520ED
:10073000004F666673657473204170706C69656400
:10074000004D494E2F4D415820546F6F2046617225
:1007500000546F6F206661722066726F6D204D4984
:100760004E2F4D41580A00454550524F4D204F4B9A
:100770000A00290A0020746F20003F5A206F757408
:10078000206F662072616E6765202800290A0020AC
:10079000746F20003F59206F7574206F662072615E
:1007A0006E6765202800290A0020746F20003F58DA
:1007B000206F7574206F662072616E676520280057
:1007C0004D383400446F6E65207072696E74696EC6
:1007D000672066696C650A004D3737004D3331007C
:1007E00020204D323036205800486F6D65206F66EE
:1007F00066736574004361703A00434F4E46494743
:100800005F4558504F5254004D4541545041434B61
:1008100000434F4F4C45525F54454D504552415453
:10082000555245004348414D4245525F54454D5055
:10083000455241545552450045505F42414259533B
:1008400054455000424142595354455050494E4737
:100850000041524353004D4F54494F4E5F4D4F445A
:10086000455300544845524D414C5F50524F5445FA
:100870004354494F4E00455854454E4445445F4DFE
:10088000323000435553544F4D5F4649524D574106
:1008900052455F55504C4F4144004C464E5F5752B5
:1008A000495445004C4F4E475F46494C454E414DDB
:1008B00045004155544F5245504F52545F53445F89
:1008C0005354415455530053445F575249544500C3
:1008D000524550454154004D554C54495F564F4C7C
:1008E000554D45005344434152440050524F4D50E2
:1008F000545F535550504F525400484F53545F412A
:100900004354494F4E5F434F4D4D414E4453004574
:100910004D455247454E43595F5041525345520051
:10092000434153455F4C494748545F425249474809
:10093000544E45535300544F47474C455F4C49472D
:1009400048545300534F4654574152455F504F57F8
:100950004552004255494C445F50455243454E5420
:10096000004C4556454C494E475F44415441005A5E
:100970005F50524F42450052554E4F55540041551D
:10098000544F4C4556454C005052494E545F4A4FC7
:10099000420050524F4752455353004155544F5215
:1009A00045504F52545F54454D50004155544F529D
:1009B00045504F52545F504F5300564F4C554D4584
:1009C0005452494300454550524F4D0042494E4113
:1009D00052595F46494C455F5452414E5346455229
:1009E0000053455249414C5F584F4E5F584F464661
:1009F000004649524D574152455F4E414D453A4D93
:100A000061726C696E206275676669782D322E316D
:100A10002E7820284A616E20333120323032362041
:100A200031363A32343A32362920534F5552434503
:100A30005F434F44455F55524C3A6769746875622D
:100A40002E636F6D2F4D61726C696E4669726D77A2
:100A50006172652F4D61726C696E2050524F544F18
:100A6000434F4C5F56455253494F4E3A312E30203A
:100A70004D414348494E455F545950453A42726989
:100A8000782043522D3130204B494E454D41544939
:100A900043533A43617274657369616E20455854DB
:100AA00052554445525F434F554E543A31205555A7
:100AB00049443A63656465326132662D343161328E
:100AC0002D343734382D396231322D633535633664
:100AD0003266333637666600203B0020204D3835BD
:100AE000312058005A2D50726F6265204F66667330
:100AF00065740020573A00436F6F6C696E672E2E45
:100B00002E004531202553002046002042002020A1
:100B10004D3130342053004175746F2054656D7031
:100B200020436F6E74726F6C0020573A0042656408
:100B300020436F6F6C696E672E2E2E004265642015
:100B400048656174696E672E2E2E002364656669A0
:100B50006E652044454641554C545F000042454473
:100B60005F004B4420004B4920004B502000206682
:100B7000696E6973686564212050757420746865B6
:100B8000206C617374204B702C204B6920616E6463
:100B9000204B6420636F6E7374616E747320667291
:100BA0006F6D2062656C6F7720696E746F20436F84
:100BB0006E66696775726174696F6E2E680A00509F
:100BC0004944204175746F74756E650020666169D3
:100BD0006C6564212074696D656F75740A005049F5
:100BE00044204175746F74756E6500206661696C90
:100BF0006564212054656D7065726174757265203D
:100C0000746F6F20686967680A0050494420417515
:100C1000746F74756E6500504944204379636C6548
:100C2000730025532025692F256900204B643A2045
:100C300000204B693A2000204B703A200020436C82
:100C4000617373696320504944200A00204E6F206D
:100C50006F76657273686F6F740A002054753A205E
:100C600000204B753A2000206D61783A2000206DFD
:100C7000696E3A200020643A200020626961733A6C
:100C8000200048656174696E672E2E2E00207374F3
:100C90006172740A00504944204175746F74756E16
:100CA0006500206661696C6564212054656D70651E
:100CB00072617475726520746F6F20686967680A65
:100CC00000504944204175746F74756E6500504939
:100CD00044204175746F74756E6500206661696C9F
:100CE00065642120426164206865617465722069D1
:100CF000640A00504944204175746F74756E650034
:100D00004572723A207574663820666F6E74206E74
:100D10006F7420696E697469616C697A65642E000C
:100D20004572723A207574663820666F6E74206E54
:100D30006F7420696E697469616C697A65642E00EC
:100D40004572723A207574663820666F6E74206E34
:100D50006F7420696E697469616C697A65642E00CC
:100D600020003A003A002568753A2530326875004F
:100D700025303268753A2530326875002530326882
:100D80007527253032687500256875642025303256
:100D900068753A2530326875002000200020002058
:100DA00000200025002020202020202000202020BE
:100DB0002000657272001FE020102010201010200B
:100DC00010202010201030300840048003001FE065
:100DD0003FF03FF03FF01FE01FE03FF03FF03FF0FB
:100DE0000FC0078003003FFFF038007030FC302058
:100DF000FC102078102030102C00D02E31D02F7B0A
:100E0000D02F7BD02E31D02C00D020301020781065
:100E100020FC1030FC303800703FFFF03FFFF0380E
:100E200000703186302387102787902F87D02F03BB
:100E3000D02030102078102078102030102F03D0D0
:100E40002F87D02787902387103186303800703F56
:100E5000FFF01FFFF81FFFF80410400208200208EF
:100E6000200410400820801041001041000820801C
:100E70000410400000001FFFF81FFFF83E0FF0C1F4
:100E80008618C1860C0186040306041F06040306A7
:100E900004018604C1860CC186183E0FF0426564C9
:100EA00000456E636C6F73757265005072696E7485
:100EB0002041626F72746564004D32350050617577
:100EC00073696E672E2E2E004D3234003F00496745
:100ED0006E6F726500526573657400496E6974695E
:100EE000616C697A6520454550524F4D0046696CEA
:100EF0002E204469612E004F6666004F6E0045202B
:100F0000696E206D6D5E33002008204661637400B9
:100F10002008204D6178002008204D696E004D6941
:100F20006E2054726176656C205370656564004D67
:100F3000696E2056656C6F63697479004D61782025
:100F400040205370656564004D6178204520416301
:100F500063656C004D6178204020416363656C00DF
:100F600054726176656C20416363656C00526574F0
:100F70007261637420416363656C00416363656CF7
:100F800000402073746570732F6D6D00416476614D
:100F90006E6365642053657474696E6773003F0007
:100FA00043616E63656C00496E6974004D3432387C
:100FB00000496E697469616C697A652045455052D3
:100FC0004F4D0046696C616D656E740054656D70BF
:100FD000657261747572650053746570732F6D6D01
:100FE000004A756E6374696F6E20446576004163D4
:100FF00063656C65726174696F6E004D6178205332
:101000007065656420286D6D2F7329005365742009
:10101000486F6D65204F66667365747300436F6E2D
:1010200066696775726174696F6E0053572D4D6FF5
:1010300064650053746F77004465706C6F7900537A
:10104000656C662D54657374005265736574004257
:101050006564004E6F7A7A6C650046616E2053704D
:1010600065656400436F6E66696775726174696F68
:101070006E00526573746F72652044656661756CAD
:101080007473004C6F61642053657474696E677388
:101090000053746F72652053657474696E677300D2
:1010A0005072656865617420242053657474696E9C
:1010B000677300424C546F75636800416476616EDB
:1010C0006365642053657474696E6773004D61696C
:1010D0006E204D656E75003F004261636B00537476
:1010E0006F700053656C6563742066726F6D20537A
:1010F0004420436172640052656C656173652053DE
:10110000442043617264004D323200436F6E666961
:101110006775726174696F6E0054656D7065726198
:10112000747572650050726F626520616E64204C48
:101130006576656C004D6F74696F6E0052657375EE
:101140006D65205072696E740054756E650053743D
:101150006F70205072696E74005061757365205015
:1011600072696E7400496E666F2053637265656EB6
:10117000003F005374617274205072696E740043B2
:10118000616E63656C005072696E740043616E6ECF
:101190006F7420656E746572207375626469723A4B
:1011A000200002202E2E00015265667265736800D1
:1011B0004D61696E204D656E75002100486F746544
:1011C0006E6420746F6F20636F6C64004261636BA8
:1011D0000050726F63656564004D6F7665204578D9
:1011E000747275646572004D6F74696F6E00446946
:1011F0007361626C65205374657070657273004D25
:101200003834004175746F20486F6D65004D616919
:101210006E204D656E750053746F72652053657452
:1012200074696E67730050726F62652040204F666C
:10123000667365740053746F77205A2D50726F6215
:1012400065004D343032004465706C6F79205A2D42
:1012500050726F6265004D343031004175746F20FB
:10126000486F6D6500473238004D61696E204D65ED
:101270006E75005072656865617420242042656453
:101280000050726568656174202420486F74656E33
:10129000640054656D706572617475726500000C50
:1012A0000F00FE07022503BB017FFE08FE08FE05B6
:1012B000080806000040F0C88888987810050808DB
:1012C000060000C0F88888888888F80505050600AB
:1012D000012030F830200508080600002070F820B2
:1012E000202020E00509090600FF2070A8A8B88882
:1012F000887020070505070001D86C366CD80509F1
:10130000090600FFF8A88888888888A8F8050A0ACE
:101310000600FE205050505088A8A8887003030390
:1013200006000340A040FFFFFFFFFFFFFFFFFFFF9E
:10133000FFFFFFFFFFFFFFFFFFFFFFFF00000006B3
:1013400005FF01070706020080808080800080037F
:101350000303060105A0A0A005060606000050F83C
:101360005050F8500509090600FF2070A8A0702809
:10137000A87020050707060000C8C81020409898EC
:1013800005070706000040A0A040A89068010303DD
:101390000602058080800309090601FF2040408085
:1013A00080804040200309090601FF804040202042
:1013B0002040408005070706000020A8702070A884
:1013C000200505050600012020F820200203030661
:1013D00001FFC04080050101060003F80202020679
:1013E0000100C0C00507070600000810102040409B
:1013F00080050707060000708898A8C88870030752
:101400000706010040C040404040E00507070600D5
:1014100000708808102040F8050707060000F8084B
:10142000103008887005070706000010305090F84B
:101430001010050707060000F880F00808887005FE
:101440000707060000304080F0888870050707060F
:101450000000F80810102020200507070600007083
:10146000888870888870050707060000708888786B
:10147000081060020505060100C0C000C0C00206D9
:10148000060601FFC0C000C040800305050601013B
:101490002040804020050303060002F800F8030501
:1014A0000506010180402040800507070600007006
:1014B0008810202000200507070600007088B8A8C3
:1014C000B88070050707060000708888F88888884B
:1014D000050707060000F04848704848F005070770
:1014E000060000708880808088700507070600006D
:1014F000F04848484848F0050707060000F8808093
:10150000F08080F8050707060000F88080F08080F2
:10151000800507070600007088808098887005079E
:1015200007060000888888F888888803070706016E
:1015300000E04040404040E005070706000038104A
:1015400010101090600507070600008890A0C0A04A
:101550009088050707060000808080808080F8055D
:10156000070706000088D8A8888888880507070626
:1015700000008888C8A898888805070706000070BA
:10158000888888888870050707060000F08888F03A
:1015900080808005070706000070888888A890680A
:1015A000050707060000F08888F0A0908805070767
:1015B0000600007088807008887005070706000024
:1015C000F8202020202020050707060000888888B2
:1015D000888888700507070600008888888850502A
:1015E0002005070706000088888888A8A8500507F6
:1015F00007060000888850205088880507070600E5
:101600000088885020202020050707060000F808E1
:1016100010204080F80309090601FFE080808080E7
:10162000808080E005070706000080404020101001
:10163000080309090601FFE020202020202020E0E7
:101640000503030600052050880501010600FEF889
:101650000303030601058040200505050600007010
:10166000087888780507070600008080F088888859
:10167000F0050505060000708080887005070706E4
:10168000000008087888888878050505060000703D
:1016900088F08070050707060000304840E04040B1
:1016A000400507070600FE708888887808700507DF
:1016B000070600008080F0888888880307070601F5
:1016C000004000C0404040E00409090601FE10004F
:1016D0003010101010906005070706000080808809
:1016E00090E09088030707060100C040404040405A
:1016F000E0050505060000D0A8A8A8A80505050670
:101700000000B0C888888805050506000070888834
:1017100088700507070600FEF0888888F08080053D
:1017200007070600FE7888888878080805050506FA
:101730000000B0C880808005050506000078807034
:1017400008F00507070600002020F82020201805D3
:1017500005050600008888889868050505060000CC
:1017600088888850200505050600008888A8A850AC
:10177000050505060000885020508805070706006B
:10178000FE88888850204080050505060000F81076
:101790002040F80309090601FF20404040804040F6
:1017A00040200109090602FF8080808080808080BF
:1017B000800309090601FF804040402040404080EE
:1017C00005030306000248A890FF41425300504C15
:1017D00041004572723A20454550524F4D20436FAB
:1017E0007272757074004572723A20454550524FBE
:1017F0004D20435243004572723A20454550524FA6
:101800004D2053697A65004572723A204545505221
:101810004F4D2056657273696F6E00CE17CA17431D
:101820006F6F6C646F776E005072656865617420CD
:10183000240046616E205370656564004265640053
:101840004E6F7A7A6C65004D61696E204D656E75DC
:10185000004261627973746570205A004261627956
:1018600073746570204000466C6F770046616E208F
:10187000537065656400426564004E6F7A7A6C65EA
:10188000005370656564004D61696E204D656E752D
:1018900000486F6D696E67204661696C6564006F12
:1018A00070656E00545249474745524544003A20FE
:1018B000007A5F6D696E00795F6D696E00785F6DAB
:1018C000696E005265706F7274696E6720656E6430
:1018D00073746F70207374617475730A00486F6D50
:1018E00065202573204669727374000000000000B3
:1018F000000000000000005761726E696E673A20B8
:10190000486F6D696E672042756D70204469766915
:10191000736F72203C20310A000202040000A040D4
:101920000000A0400000004053544F505045442E4A
:1019300020005072696E7465722073746F707065E8
:10194000642064756520746F206572726F72732EE7
:101950002046697820746865206572726F72206114
:101960006E6420757365204D39393920746F20728B
:101970006573746172742E202854656D7065726190
:10198000747572652069732072657365742E2053B7
:101990006574206974206166746572207265737461
:1019A000617274696E67290A00206572726F722015
:1019B0002D20726573746172742077697468204D8C
:1019C0003939390A00424C546F756368002121206F
:1019D00053544F502063616C6C6564206265636191
:1019E000757365206F6620000000A04300009643D9
:1019F0000000C843000000000000000000000000DC
:101A000053657474696E67732053746F72656400F4
:101A1000290A002062797465733B20637263200099
:101A200053657474696E67732053746F72656420B4
:101A30002800204D61726C696E3D563930290A00CC
:101A4000454550524F4D2076657273696F6E206D1B
:101A500069736D617463682028454550524F4D3D50
:101A600000454550524F4D206461746173697A6539
:101A7000206572726F722E0A00202863616C637594
:101A80006C6174656429210A0020213D20004545D0
:101A900050524F4D20435243206D69736D61746302
:101AA00068202D202873746F7265642920004545D5
:101AB00050524F4D20436F72727570740A0020535C
:101AC000697A653A2000496E6465783A20002062A0
:101AD000797465733B2063726320002073746F72A6
:101AE00065642073657474696E67732072657472BF
:101AF000696576656420280048617264636F646577
:101B0000642044656661756C742053657474696EF5
:101B10006773204C6F616465640000401C450040A1
:101B20001C450000C8420000C8410000A04200005F
:101B3000A0420000C8430000BE42F4010000F401CE
:101B40000000640000008813000020286D6D29004B
:101B500020460020420020480020204D313435200E
:101B600053004D6174657269616C206865617475BC
:101B70007020706172616D65746572730020204D14
:101B80003134392043203B20556E69747320696ECF
:101B90002043656C736975730A0054656D706572D6
:101BA000617475726520556E697473002020473228
:101BB00031203B004C696E65617220556E6974730B
:101BC0000024F4D43050C38D20C3A24117828B70FF
:101BD00011127A900D826CDA0AA861E108C7586682
:101BE00007615142061F4B5E05C145A6041B411209
:101BF00004093D9703723931034136DB02663392A3
:101C000002D4305302812E1D02642CEE01762AC5C7
:101C100001B128A101102781018F2564012B244ADD
:101C200001E1223401AD2120018D200C01811FFC36
:101C300000851EED00981DDF00B91CD200E71BC710
:101C400000201BBB00651AB200B319A9000A19A035
:101C5000006A189800D217920040178A00B61684BE
:101C60000032167E00B41579003B157400C7146F5E
:101C70000058146A00EE1366008813620026135E93
:101C800000C8125B006D12570016125500C11151A9
:101C90000070114E0022114C00D61049008D1046E4
:101CA000004710450002104200C00F4000800F3E68
:101CB00000420F3C00060F3A00CC0E3900930E375D
:101CC000005C0E3500270E3400F30D3200C10D31DB
:101CD00000900D2F00610D2F00320D2D00050D2CF1
:101CE00000D90C2A00AF0C2A00850C28005D0C28B6
:101CF00000350C27000E0C2500E90B2500C40B2431
:101D000000A00B23007D0B22005B0B21003A0B216E
:101D100000190B2000F90A1F00DA0A1F00BB0A1E77
:101D2000009D0A1D00800A1C00640A1C00480A1C51
:101D3000002C0A1B00110A1A00F7091A00DD091904
:101D400000C4091900AB091800930918007B091792
:101D500000640917004D09170036091600200915FF
:101D6000000B091500F6081500E1081500CC081451
:101D700000B8081400A4081300910813007E08138B
:101D8000006B0812005908120047081200350812AB
:101D900000230811001208110001081000F10711BA
:101DA00000E0071000D0071000C0070F00B10710B7
:101DB00000A1070F0092070F0083070F0074070EA2
:101DC0000066070E0058070E004A070E003C070E7B
:101DD000002E070D0021070D0014070D0007070D49
:101DE00000FA060D00ED060C00E1060D00D4060C0D
:101DF00000C8060C00BC060C00B0060B00A5060CC3
:101E00000099060B008E060B0083060B0078060B6C
:101E1000006D060B0062060B0057060A004D060A0D
:101E20000043060B0038060A002E060A00240609A5
:101E3000001B060A0011060A0007060900FE050A33
:101E400000F4050900EB050900E2050900D90509C0
:101E500000D0050900C7050800BF050900B605093F
:101E600000AD050800A50508009D050800950509B9
:101E7000008C050800840508007C0507007505082E
:101E8000006D050800650507005E0508005605079A
:101E9000004F050800470507004005070039050702
:101EA00000320507002B050700240507001D050764
:101EB00000160507000F05060009050700020506C4
:101EC00000FC040700F5040600EF040700E8040620
:101ED00000E2040600DC040600D6040600D0040775
:101EE00000C9040500C4040600BE040600B80406C8
:101EF00000B2040600AC040600A6040500A1040616
:101F0000009B04050096040600900405008B04065F
:101F10000085040500800405007B040500760406A6
:101F200000700405006B04050066040500610405EB
:101F3000005C04050057040500520405004D04052B
:101F40000048040400440405003F0405003A04046A
:101F50000036040500310405002C040400280405A3
:101F600000230404001F0405001A040400160404DE
:101F700000120405000D0404000904040005040413
:101F80000001040500FC030400F8030400F403044A
:101F900000F0030400EC030400E8030400E403047D
:101FA00000E0030400DC030400D8030400D40303AE
:101FB00000D1030400CD030400C9030400C50304D9
:101FC0000000000000000000000000000000000011
:101FD000000000000000000000D1036D6403570DF5
:101FE0000347C6023B8B023259022B2E02250902FF
:101FF00021E8011CCC011AB201179B0114870113BF
:1020000074011163010F54010E46010D39010D2CAD
:10201000010B21010A17010A0D0109040108FC0046
:1020200008F40007ED0007E60007DF0006D9000608
:10203000D30005CE0006C80005C30004BF0005BAE2
:102040000004B60004B20004AE0004AA0004A60016
:1020500003A300049F00039C000399000396000360
:102060009300029100038E00028C00038900028716
:1020700000038400028200028000027E00027C00D5
:10208000027A0002780002760001750002730002F5
:102090007100017000026E00016D00026B00016AA8
:1020A000000268000167000265000164000163002E
:1020B000016200026000015F00015E00015D00013D
:1020C0005C00015B00015A000159000158000157F2
:1020D0000001560001550001540001530001520057
:1020E000015100005100015000014F00014E00015C
:1020F0004D00004D00014C00014B00014A00004A18
:102100000001490001480000480001470001460065
:102110000046000145000045000144000143000065
:102120004300014200004200014100004100014023
:1021300000004000013F00003F00013E00003E0063
:10214000013D00003D00013C00003C00013B00005F
:102150003B00013A00003A00013900003900003923
:102160000001380000380001370000370000370058
:102170000136000036000036000135000035000150
:102180003400003400003400013300003300003319
:102190000001320000320000320001310000310045
:1021A000003100003100013000003000003000013B
:1021B0002F00002F00002F00002F00012E00002E06
:1021C00000002E00012D00002D00002D00002D002C
:1021D000012C00002C00002C00002C00012B000022
:1021E0002B00002B00002B00012A00002A00002AEF
:1021F00000002A00002A000129000029000029000F
:102200000029000128000028000028000028000004
:1022100028000127000027000027000027000027D2
:1022200000012600002600002600002600002600EF
:1022300000260001250000250000250000250000E3
:1022400025000025000124000024000024000024B3
:1022500000002400002400012300002300002300CC
:1022600000230000230000230001220000220000C0
:102270002200002200002200002200002200012192
:1022800000002100002100002100002100002100A9
:10229000002100012000002000002000002000009C
:1022A0002000002000002000002000011F00001F6F
:1022B00000001F00001F00001F00001F00001F0083
:1022C0000020436F756E7420583A004265640045E3
:1022D0003100626564002C2073797374656D20731E
:1022E000746F7070656421204865617465725F4920
:1022F000443A20004572723A204D415854454D50A1
:10230000004D415854454D5020747269676765729D
:1023100065640048656174696E67204661696C6533
:10232000640048656174696E67206661696C656404
:10233000004572723A204D494E54454D50004D496A
:102340004E54454D5020747269676765726564002C
:10235000544845524D414C2052554E415741590029
:10236000546865726D616C2052756E617761790099
:10237000202F002042403A0020403A007C3C3E5E44
:102380002B3D3F2F5B5D3B2C2A225C005761726E18
:10239000696E673A0053442063617264206F6B0A70
:1023A000006F70656E526F6F74206661696C656452
:1023B0000A00766F6C756D652E696E6974206661B2
:1023C000696C65640A004E6F205344206361726437
:1023D0000A000A4D3234004D3233202573002E0A94
:1023E000006F70656E206661696C65642C204669BB
:1023F0006C653A200046696C652073656C65637492
:1024000065640A002053697A653A200046696C6564
:10241000206F70656E65643A2000454E4420535528
:1024200042524F5554494E450A002220706F7300A6
:102430002220706172656E743A2200535542524FE9
:102440005554494E452043414C4C20746172676598
:10245000743A220053756263616C6C204F7665722A
:10246000666C6F77004578636565646564206D61AF
:102470007820535542524F5554494E45206465705B
:1024800074683A0057726974696E6720746F2066C9
:10249000696C653A2000667265736800646F696EE6
:1024A00067002066696C653A20004E6F7720002F28
:1024B0006175746F25632E67000000000000000046
:1024C000600000000000FC00000FF00000000007AA
:1024D000E00000000001861FC0187000000000002E
:1024E000603C0C000001830C601030000000000014
:1024F000603C0C000001830C303030000000000014
:1025000060000C000000030C183000000000000008
:1025100060003F0F3C00030C0C6001DF0FE0FE0089
:10252000601C1C061800060C0C6000F318318300B8
:10253000600C0C0318001E0C0C6000E030398300A6
:10254000600C0C033000030C0C6000C030380F002E
:10255000600C0C033000018C0C6000C03FF8FB00E5
:10256000600C0C033000018C0C6030C03001830023
:10257000600C0C01F001818C0C6030C030018300D4
:10258000600C0C00E001818C183030C018318300E1
:10259000600C0C40E001838C301860C00C6187C077
:1025A000E01C0CC06000C30C600FC3F007C0FFC785
:1025B000FC7F0781C0007E1FC000000000000000FB
:1025C0000000000700000000000000000000000004
:1025D0000000000700000000006D61726C696E660B
:1025E000772E6F7267006275676669782D322E31BB
:1025F0002E78001FFFFFFFFFFFFF600000000001BB
:10260000FF400000000000FF8000000000007F830A
:10261000CF00000C303F87FF80000C301F86798090
:10262000000C000F8C30C7838C30E78C30CFC7CCC8
:1026300031F38C30DCECEC33B98C30D86C6C331962
:102640008C30D06C0C33198C30D86C0C33198C3026
:10265000DC6C0E3B198C30CF7C079F198C30C77C0B
:10266000038F19400000000000026000000000001D
:10267000061FFFFFFFFFFFF82001400130013B0173
:10268000400136016001310170012C0190012701E8
:10269000B0012201C0011D01F00118011002130157
:1026A00030020E016002090190020401C002FF0025
:1026B0000003FA004003F5008003F000D003EB00B4
:1026C0002004E6007004E100E004DC004005D700CF
:1026D000C005D2004006CD00D006C8008007C30068
:1026E0003008BE00F008B900C009B400B00AAF005D
:1026F000B00BAA00D00CA500000EA000500F9B004C
:10270000C01096005012910000148C00C015870074
:10271000B0178200B0197D00D01B7800001E730036
:1027200040206E0090226900F024640040275F0082
:1027300090295A00E02B5500102E500020304B00FD
:1027400010324600E033410090353C00103737002E
:1027500070383200A0392D00B03A2800A03B230089
:10276000603C1E00103D1900903D1400103E0F000B
:10277000703E0A00C03E0500003F0000403FFBFFE6
:10278000803FF6FFC03FF1FF2020506C616E6E6508
:102790007242756666657242797465733A200020EC
:1027A00046726565204D656D6F72793A2000204351
:1027B0006F6D70696C65643A204A616E2033312018
:1027C000323032360A00204C6173742055706461D7
:1027D0007465643A20323032362D30312D32382053
:1027E0007C20417574686F723A2028437265616C71
:1027F0006974792043522D3130290A004D61726C81
:10280000696E206275676669782D322E312E780ADE
:102810000020536F6674776172652052657365742A
:102820000A00205761746368646F6720526573659E
:10283000740A002042726F776E206F7574205265A3
:102840007365740A002045787465726E616C20525D
:10285000657365740A00506F77657255700A00736E
:10286000746172740A004D31303031006F6B006555
:1028700072726F722077726974696E6720746F204C
:1028800066696C650A00446F6E6520736176696ED7
:10289000672066696C652E0A00456E6473746F70FC
:1028A000730025532025632025632025632025639D
:1028B00000205A3A0020593A0020583A00656E64C8
:1028C00073746F7073206869743A2000302E303250
:1028D0003500302E3100312E30004D6F76652024CA
:1028E0006D6D003130000000A043000096430000F1
:1028F000C8434D6F76652041786973004D6F7665EA
:10290000202A004D6F766520400020002000200026
:1029100020002000FFFFFF43616E6E6F74206F7018
:10292000656E207375626469722000220A00556E1C
:102930006B6E6F776E20636F6D6D616E643A2022EF
:1029400000204500205A0020590020204D39322017
:10295000580053746570732070657220756E6974C9
:1029600000627573793A2070617573656420666FD3
:102970007220696E7075740A00627573793A2070FE
:10298000617573656420666F7220757365720A00E5
:10299000627573793A2070726F63657373696E67DD
:1029A0000A005344204361726420496E7365727457
:1029B000656400000000010200090A000000000434
:1029C00003080700000000000000000000000000F5
:1029D0000000004D3131322053687574646F776E9A
:1029E0000053544F505045442E20005072696E746D
:1029F00065722073746F70706564206475652074EF
:102A00006F206572726F72732E2046697820746829
:102A100065206572726F7220616E64207573652027
:102A20004D39393920746F20726573746172742E58
:102A3000202854656D7065726174757265206973C4
:102A40002072657365742E2053657420697420614B
:102A5000667465722072657374617274696E672939
:102A60000A004E6F20436865636B73756D2077694C
:102A70007468206C696E65206E756D6265722C20BD
:102A80004C617374204C696E653A20004D323900F8
:102A90004E6F20436865636B73756D20776974684A
:102AA000206C696E65206E756D6265722C204C61BC
:102AB0007374204C696E653A2000636865636B73BC
:102AC000756D206D69736D617463682C204C617342
:102AD00074204C696E653A20004C696E65204E7515
:102AE0006D626572206973206E6F74204C6173741F
:102AF000204C696E65204E756D6265722B312C20FD
:102B00004C617374204C696E653A20004D31313050
:102B10000053657269616C20737461747573206D04
:102B200069736D617463680A00534420726561645F
:102B3000206572726F720A00746F6F206D75636822
:102B400020696E6163746976652074696D65202DF6
:102B50002063757272656E7420636F6D6D616E6453
:102B60003A20002121204B494C4C2063617573654C
:102B7000642062792000DB0FC93F45BCDA3F8FB388
:102B80000240FCF0274056946140FE4B9B4084A5D8
:102B9000D840E0231841346A5641E859974164DB34
:102BA000D5416E271742B4B75542CE1A9742C8AEE8
:102BB000D542B5885A43D40684BFA65FA7BF7443E5
:102BC000E0BF10B11AC01C2C58C0E8F697C0B84935
:102BD000D6C04E4E17C124D355C1802497C1A0B58D
:102BE000D5C1121A17C244AE55C2781797C26CAC41
:102BF000D5C267885AC320746F6F206C6F6E6720D0
:102C0000657874727573696F6E2070726576656E23
:102C10007465640A0020636F6C6420657874727553
:102C200073696F6E2070726576656E7465640A00F4
:102C30006F6B0A00526573656E643A200020453A56
:102C400000205A3A0020593A00583A000000220069
:102C5000250028002B0000002100240027002A0066
:102C60000202020202020202040404040404040434
:102C70000303030303030303010101010101010134
:102C80000102040810204080010204081020408046
:102C90000102040810204080804020100804020136
:102CA0004572726F722077726974696E6720746FF3
:102CB00020454550524F4D210A0042726978204309
:102CC000522D31302052656164792E005072696E48
:102CD00074696E672E2E2E005072696E74205061DA
:102CE000757365640000E4DAAFDA11241FBECFEF1C
:102CF000D0E4DEBFCDBF84B78093C53C14BE0FB611
:102D0000F894A8958091600088618093600010928B
:102D100060000FBE12E0A0E0B1E0EEE4F5EE01E0ED
:102D20000BBF02C007900D92A036B107D9F72CE374
:102D3000A0E6B2E001C01D92A53CB207E1F716E1A2
:102D4000C4E7D6E104C02197FE010E9486EEC33796
:102D5000D107C9F70E9449DC0C949BF20C94000047
:102D600080918B05811104C08091590580934106A3
:102D70000895CF93DF93EC01CB01BA010E94C1E724
:102D800020E030E040E251E40E9450EF2AE037EDCD
:102D900043E25CE30E94D9EE688379838A839B8354
:102DA000DF91CF910895CF93DF93EC01642F70E012
:102DB00090E080E00E94C1E729EC38EC48EC5EE34B
:102DC0000E9450EF20E030E040E05FE30E94D9EE47
:102DD0000E94BDEF6883DF91CF910895E0918B054C
:102DE00086E0E802F0011124E258FA4F809159057B
:102DF00090E0958384830895CF93DF93EC01CB011A
:102E0000BA010E94C1E720E030E048EC52E40E94A1
:102E100050EF2FE632E143E85AE30E94D9EE68838F
:102E200079838A839B83DF91CF910895CF93DF933A
:102E3000EC01CB01BA010E94C1E720E030E048EC90
:102E400052E40E9450EF2FE632E143E85AE30E9439
:102E5000D9EE688379838A839B83DF91CF9108952C
:102E6000CF93DF93EC01CB01BA010E94BFE72AE0C8
:102E700037ED43E25DE30E9450EF0E94BDEF6883AF
:102E800079838A839B83DF91CF910895CF93DF93DA
:102E9000EC01CB01BA010E94C1E72AE037ED43E221
:102EA0005DE30E9450EF688379838A839B83DF917F
:102EB000CF910895CF93DF93EC01CB01BA010E942B
:102EC000C1E7688379838A839B83DF91CF910895DB
:102ED000FC01518340830895CF93DF93EC01CB0134
:102EE000BA010E94C1E720E030E04AE754E40E94C2
:102EF00050EF27E137EB41ED58E30E94D9EE6883AC
:102F000079838A839B83DF91CF9108958091A20575
:102F10009091A3052091A0053091A10582179307F8
:102F200024F49093A1058093A00508958091A005B5
:102F30009091A1052091A2053091A305281739078A
:102F400024F49093A3058093A2050895FC01A08129
:102F5000B1811C92A281B3818C918F5F8C9302808E
:102F6000F381E02D90818CE0989F800D1124EDE09D
:102F7000F3E113AE84AF0895119800C087FD43C0FC
:102F8000419800C0119A00C000C0119800C086FD91
:102F900046C0419800C0119A00C000C0119800C0FE
:102FA00085FD3BC0419800C0119A00C000C0119837
:102FB00000C084FD30C0419800C0119A00C000C01C
:102FC000119800C083FD25C0419800C0119A00C02F
:102FD00000C0119800C082FD1AC0419800C0119A2B
:102FE00000C000C0119800C081FD0FC0419800C012
:102FF000119A00C000C0119800C0419800C0119AF9
:1030000000C000C00895419ABCCF419AF0CF419AC8
:10301000E5CF419ADACF419ACFCF419AC4CF419AB6
:10302000B9CF90E080E00895CF93DF93C0910E0D6B
:10303000D0910F0D81E0CE31D105E4F020E030E0F9
:1030400040E05FE360910A0D70910B0D80910C0DD3
:1030500090910D0D0E94D9EE0E94B8EF6C1B7D0B74
:1030600077FF03C071956195710981E06330710547
:103070000CF080E0DF91CF91089590E080E008951A
:1030800020914B13833021F425FD0CC024FD0CC08E
:1030900030E0A90102C0559547958A95E2F7CA012B
:1030A0008170089581E0089580E0089580918503FE
:1030B00084FD0BC08091870387FD07C09091880332
:1030C000937081E019F480E0089581E008952FEB7A
:1030D000280F2A3108F047C0E22FF0E080918503E5
:1030E00090918603A0918703B091880304C0B695A0
:1030F000A795979587952A95D2F780FD02C0817094
:103100000895EA59FC4FE081EE2341F180911806C1
:1031100090911906E80FF92FF11D808190ED980F1D
:103120009A3030F08E3251F4818180538A3098F495
:10313000F0936503E093640381E008958D3211F00C
:103140008B3249F4818190ED980F9A3088F38E325A
:1031500011F48281EACFF0E0E0E0EACF109265035B
:1031600010926403E9CF80E00895CF93DF9385E464
:10317000AEDF882309F188E04091850350918603F2
:103180006091870370918803972F9170C92F90E009
:10319000D92FCC0FDD1F71FB222720F930E0220F41
:1031A000331F220F331FC22B67FB442740F9C42B68
:1031B0008C2BDF91CF91089580E0DECF88DF8823CC
:1031C00041F081E02091640330916503232B09F4E1
:1031D00080E008958F929F92AF92BF92CF92DF923C
:1031E000EF92FF92FC01828158E5C52E52E0D52E68
:1031F000C81AD10887FDD394CC0CDD1CCC0CDD1C87
:103200000D2C000CEE08FF08818178E8872E912CA8
:10321000881A910887FD9394880C991C880C991C36
:10322000092C000CAA08BB0880818F3FD1F190E0E7
:10323000FC01EE0FFF1FE80FF91FE85AF24F8181E2
:10324000928133E0880F991F3A95E1F7B0E0A0E052
:1032500044E0B595A795979587954A95D1F702963D
:103260009C012F5F3F4F032E000C440B550B281978
:1032700039094A095B09A4EBB0E00E9427EEA701D7
:103280009601281939094A095B090E940BEEC90108
:10329000FF90EF90DF90CF90BF90AF909F908F9076
:1032A000089590E080E0DCCF0C94ABAA0C94B2AA15
:1032B000CF92DF92EF92FF920E94C1E720E030E0D0
:1032C00040E251E40E9450EF2AE037ED43E25CE334
:1032D0000E94D9EE6B017C0120E030E0A9010E9440
:1032E000BBE72DEB37E346E055E387FF04C02DEB4A
:1032F00037E346E055EBC701B6010E94D9EE43E043
:1033000050E00E94ECA4FF90EF90DF90CF900895E2
:103310000C94758ECF92DF92EF92FF920E94C1E7DC
:1033200020E030E048EC52E40E9450EF2FE632E11A
:1033300043E85AE30E94D9EE6B017C0120E030E0C3
:10334000A9010E94BBE72DEB37E346E055E387FF79
:1033500004C02DEB37E346E055EBC701B6010E94F0
:10336000D9EE0E9452A5FF90EF90DF90CF90089584
:1033700065EA75E382E00C9474D867EA75E381E04E
:103380000C9474D869EA75E380E00C9474D86BEA05
:1033900075E383E00C9474D880915A0B882301F173
:1033A0002FEF3FEF3093400120933F0181508093F6
:1033B0005A0BE8EDFCE0882351F08150990B2BE18A
:1033C000289FF001299FF00D1124E155F44F8BE166
:1033D000ADEBBCE001900D928A95E1F70E9430863A
:1033E00020915A0B211105C08091650B8064809358
:1033F000650B81E090E0A0E0B0E0211103C080E027
:1034000090E0DC0180936D0590936E05A0936F05AD
:10341000B09370051092660581E080937D0583E08E
:10342000809350010895109266050C946B8770E0AC
:1034300090E080E00E94C1E729EC38EC48EC5EE3C4
:103440000E9450EF20E030E040E05FE30E94D9EEC0
:103450000E94BDEF862F0C9404A4CB010C94D0A342
:1034600080915001882341F06091590570915A056F
:1034700041E081E00C941BBA08950C94429F0C9497
:103480003DB0CF92DF92EF92FF926B017C0120E082
:1034900030E0A9010E94BBE787FD0FC06DEB77E329
:1034A00086E095E3A70196010E94D9EE0E9484A4CC
:1034B000FF90EF90DF90CF9008956DEB77E386E07B
:1034C00095EBF0CF0E94C1E72AE037ED43E25DE3E0
:1034D0000E9450EFD6CF0E94C1E7D3CF0E94BFE732
:1034E0002AE037ED43E25DE30E9450EF0E94BDEF1A
:1034F0000E94BFE70C9484A4CF92DF92EF92FF92D8
:103500006B017C0120E030E0A9010E94BBE787FD50
:1035100011C06DEB77E386E095E3A70196010E9469
:10352000D9EE42E050E00E9425BCFF90EF90DF9082
:10353000CF9008956DEB77E386E095EBEECF0E9498
:10354000C1E720E030E04AE754E40E9450EF27E171
:1035500037EB41ED58E30E94D9EECECFCF92DF9208
:10356000EF92FF920E94C1E720E030E048EC52E485
:103570000E9450EF2FE632E143E85AE30E94D9EE71
:103580006B017C0120E030E0A9010E94BBE72DEB3C
:1035900037E346E055E387FF04C02DEB37E346E011
:1035A00055EBC701B6010E94D9EE0E94A4BCFF9062
:1035B000EF90DF90CF9008950C94A7910C94A79171
:1035C0000C9463910C9463910C9463910C946391AB
:1035D000CF92DF92EF92FF92CF93C82F0E943FBF0E
:1035E0006B017C0124EA30E74DE75FE36091130152
:1035F0007091140180911501909116010E94BBE712
:1036000087FD18C08AEF90E0A0E0B0E08C0D9D1D12
:10361000AE1DBF1D8093AA039093AB03A093AC0390
:10362000B093AD03C0931101CF91FF90EF90DF9065
:10363000CF90089580E090E0DC01E8CF0F931F93D6
:103640000E943FBF00918C0310918D0320918E0347
:1036500030918F03061B170B280B390B1016110620
:10366000120613068CF020918B03209520938B0378
:103670006A547C4F8F4F9F4F60938C0370938D03E0
:1036800080938E0390938F0381E090918B0391112F
:1036900001C080E01F910F910895CF93DF93C091F7
:1036A0000E0DD0910F0D209729F160910A0D7091A8
:1036B0000B0D80910C0D90910D0D0E94B8EF6E5F77
:1036C0007F4F24976C177D07ACF47093320460939E
:1036D00031040E943FBF605A75418F4F9F4F6093E6
:1036E0003304709334048093350490933604DF914F
:1036F000CF9108951092330410923404109235043F
:1037000010923604F4CFEF92FF920F931F93CF9352
:10371000DF93EC018B017A018A859B8586179707D9
:1037200031F0888199810E943ED61B870A87B701B4
:10373000888199810E940FBB2E813F81820F932F38
:10374000911D9F838E8390E080E0CDB7DEB7E6E0E9
:103750000C94C9EEB0E0A0E0E0EBFBE10C94A9EE24
:10376000EC017B018A018A859B858617970731F0DA
:10377000888199810E943ED6FB86EA868885998554
:10378000019609F5CC80DA808E81D80EA880B980A8
:10379000D5015596ED91FC91C5010995C80E7801AA
:1037A00010E0F70121917F0121111FC08E819F81BF
:1037B000810F911D9F838E8390E080E0CDB7DEB7AF
:1037C000EAE00C94C5EEEE80FF80B8018881998113
:1037D0000E940FBB8E0D9F2D911D288539852817BE
:1037E000390780F681E090E0E9CF4C2D6D2DC501C1
:1037F0000E9449D7D80E180FD4CFB0E0A0E0E3E084
:10380000FCE10C94ACEEEC01D62E1CAD0BAD7C01B2
:1038100084E0E80EF11CE98DFA8DC7010995412F6E
:10382000480F2D2D602FC7010E9449D79BAD890FEE
:103830008BAF81E090E0CDB7DEB7E7E00C94C8EE47
:10384000B0E0A0E0E6E2FCE10C94AAEE6B01E90135
:103850004A3009F4D5C0453109F081C0DB01129628
:10386000ED91FC91F28096818781139A00C000004F
:10387000E6E2F0E03197F0F7092F182FEF2CE294F1
:1038800020EFE22230E1B32EBF0CE80188EF74DBB9
:1038900000C0000086E290E00197F0F7BFE1BF159D
:1038A00008F49BC08F2D8077806866DB8E2D64DBEB
:1038B00000C0000086E290E00197F0F780E85CDB52
:1038C00080E05ADB00C0000086E290E00197F0F74C
:1038D0008AEF52DB00C0000086E290E00197F0F72B
:1038E000005F1F4F8881807F47DB89918295807FB1
:1038F00043DBC017D107B1F700C0000086E290E0BB
:103900000197F0F7F394E0E1EE0EFB10BECF1398B1
:10391000D6011296ED91FC9180819281980F92834D
:103920002181921708F09FC194819F5F94839381B6
:10393000890F821710F08FEF820F8383458150E04B
:10394000440F551F70E060E0868197810E9426F247
:1039500081E0CDB7DEB7E9E00C94C6EEDEC1FB0135
:1039600002811381423309F485C108F48DC14634C4
:1039700009F475C1473409F482C14B3349F7898191
:103980002B81D80112967C91129713963C9121308D
:1039900009F4BFC1233009F0A0C148EF480F582FE8
:1039A00091E0341708F490E031E0541708F030E06B
:1039B000492F432B61E0571708F460E0462311F4C8
:1039C000932331F2FA8030E0F901E958FE4FD080BC
:1039D0002D583E4FF901E08099C180EE8F0D80682F
:1039E000807FCADA8F2D8295807FC6DA00C0000002
:1039F00086E290E00197F0F780E8BEDA80E861CFD8
:103A00000B9A1398399A4198099A119A139A00C0FF
:103A1000000086E290E00197F0F788E790E0CEE9B9
:103A2000DFE0FE013197F1F70197D9F788EFA4DACB
:103A300000C0000086E290E00197F0F780E29CDA97
:103A400080E09ADA00C0000086E290E00197F0F78B
:103A500080E092DA80E890DA00C0000086E290E030
:103A60000197F0F780E088DA80E186DA00C0000094
:103A700086E290E00197F0F7CE010197F1F7CE01D1
:103A80000197F1F7CE010197F1F7CE010197F1F718
:103A9000CE010197F1F7CE010197F1F7CE01019721
:103AA000F1F7CE010197F1F7CE010197F1F7CE01C1
:103AB0000197F1F7CE010197F1F7CE010197F1F7E8
:103AC000CE010197F1F7CE010197F1F72197F1F7B8
:103AD00080E252DA80E450DA00C0000086E290E032
:103AE0000197F0F780E248DA80E646DA00C000008D
:103AF00086E290E00197F0F7D0E0C0E08C2F80776D
:103B000080683ADA8D2F38DA00C0000086E290E053
:103B10000197F0F780E830DA80E02EDA00C000008C
:103B200086E290E00197F0F78AEF26DA00C0000005
:103B300086E290E00197F0F780E2119800C041988A
:103B400000C0119A00C000C0119800C0419800C088
:103B5000119A00C000C0119800C0419800C0119A8D
:103B600000C000C0119800C0419800C0119A00C068
:103B700000C0119800C0419800C0119A00C000C058
:103B8000119800C0419800C0119A00C000C011985F
:103B900000C0419800C0119A00C000C0119800C038
:103BA000419800C0119A00C000C0119800C041980F
:103BB00000C0119A00C000C0119800C0419800C018
:103BC000119A00C000C0119800C0419800C0119A1D
:103BD00000C000C0119800C0419800C0119A00C0F8
:103BE00000C0119800C0419800C0119A00C000C0E8
:103BF000119800C0419800C0119A00C000C01198EF
:103C000000C0419800C0119A00C000C0119800C0C7
:103C1000419800C0119A00C000C000C00000E6E258
:103C2000F0E03197F0F7815009F087CF88EFA4D901
:103C300000C0000086E290E00197F0F7CF5FD05F10
:103C4000C03209F05BCF80E097D980EC95D900C0F5
:103C5000000086E290E00197F0F7139879CEF80122
:103C60008581888375CE80E0CDB7DEB7E9E00C941E
:103C7000C6EE53C0B901C8010E94EAD469CED8018A
:103C800011968C91888364CE443191F0473109F0CC
:103C90005FCE1882D80112968C911297898315965F
:103CA0008C91159781508A8313968C918B8350CE7B
:103CB000D80115964C91159750E0440F551F70E0B0
:103CC00060E016968D919C910E9426F2F801128276
:103CD00080818150838314823BCE381708F438CE1C
:103CE000871708F435CEFA80E12CD12C243070F4FB
:103CF0006ACEBE01C8010E94EAD4898198819D0DD7
:103D000098838E0D8983FF0C09F422CEF7FEF6CF3F
:103D1000F0CF58E0580F482F43CE2091960322232E
:103D200009F459C0E22FF0E060E2243630F0CF0110
:103D300064E670E00E9473EE605D6093620580E26D
:103D40002A3058F02AE030E0CF01B9010E9473EE2A
:103D5000CB01B9010E9473EE805D80936305CF01B2
:103D60006AE070E00E9473EE805D8093640544E039
:103D700050E060E270E08FEF92E10E9426F2109234
:103D800003138FEF92E1FC0101900020E9F7CF01CE
:103D9000805093418D30910550F44EE050E0481B27
:103DA000590B62E675E081509D4E0E9404E78FEF4B
:103DB00092E1FC0101900020E9F7CF01805093418E
:103DC0008D30910540F4FC01E150FD4E25E2208349
:103DD0000C9709F011820895A4E1B0E0E2EFFEE152
:103DE0000C94ADEE7C01FB01608171818281938135
:103DF0008E010F5F1F4F248141E00E94E7E2F7012F
:103E000001900020E9F79F01215031092E193F0947
:103E10002E31310550F44FE150E0421B530BBC01F1
:103E2000C701820F931F0E9404E7C7016496E6E072
:103E30000C94C9EE8091640390916503009731F072
:103E40004AE050E070E060E00C9487E560E070E0EC
:103E5000CB0108958091640390916503009731F040
:103E60004AE050E070E060E00C945AE460E070E0FA
:103E7000CB010895EFDFCB010895ECDF97FD0AC079
:103E8000E9DF6F3F71058105910509F02CF4E2DF50
:103E9000862F089580E008958FEF08958091640340
:103EA00090916503892B39F0E8DF91E0811101C021
:103EB00090E0892F089591E0FCCFCF93DF93C82F36
:103EC000D62F7CD9882321F0E9DFDF91CF910895A7
:103ED0008C2FFDD88111F9CF8D2FF7CF0F931F9322
:103EE000CF9380916403909165030097F9F0FC01F2
:103EF0008F01C1912C2F2F7DA1F0C53431F0C53633
:103F000021F0C83511F0C83799F7F801108270E038
:103F100060E00E9404E3F801C083CF911F910F91EC
:103F2000089570E060E00E9404E3F7CF60E070E085
:103F3000CB01F3CFB0E0A0E0E0EAFFE10C94B1EEFA
:103F400020E24F8158856E818D810E94AEBAE2E0F9
:103F50000C94CDEEE0910404E63028F581E08E0F5C
:103F60008093040440916D0550916E0560916F053A
:103F700070917005209166059091670580910D0400
:103F800039E0E39FF0011124E253FC4FA091FD12B0
:103F9000B091FE12B183A0834283538364837583FF
:103FA0002683978380870895A2E0B0E0EAEDFFE1E1
:103FB0000C94B1EE4BE250E06623B9F0BC0182ED07
:103FC00092E10E94B5E68AE290E09A838983CE016D
:103FD00001960E9426B21092CD031092CC0310924B
:103FE000CB032296E2E00C94CDEEBC0182ED92E18F
:103FF0000E9404E7E8CFB0E0A0E0E1E0F0E20C943A
:10400000B1EE8D8187FF03C010920D0980E0909181
:104010000D09282F082E000C330B9217130609F0F8
:104020009CF480930D099E01285F3F4F4E815F8174
:104030006AE270E082ED92E10E9483E71092CD0384
:104040001092CC031092CB03E2E00C94CDEEA1E2EF
:10405000B0E0EDE2F0E20C94B1EE67FF03C0109225
:104060000D0960E050910D09262F062E000C330B30
:104070005217130609F024F560930D0919821F8E5B
:10408000442311F14FE150E0BC01CE0101960E94A2
:10409000B5E64BE250E0BE016F5F7F4F82ED92E1EB
:1040A0000E9404E78AE290E099A388A3CE0180965B
:1040B0000E9426B21092CD031092CC031092CB0333
:1040C000A196E2E00C94CDEE4FE150E0BC01CE01B0
:1040D00001960E9404E7DDCFA7E0B0E0E2E7F0E25E
:1040E0000C94A1EE6C015B01542E1901ED824E2C53
:1040F0002EEF91EA892E9EE0992E421721F08DE94C
:10410000882E8EE0982E852D052C000C990BFC0135
:10411000E159FE4FFF83EE8314140CF07CC0AE0116
:104120004F5F5F4F6FEC77E7C5010E945AA67C0195
:1041300049815A816B817C81411551056105710569
:1041400009F469C04B3751056105710509F4C0C018
:104150004E3751056105710509F4BAC04A3251055F
:104160006105710509F05DC057FE17C0442D042C90
:10417000000C550B4F5F5F4FB401C6010E94B5E6BE
:10418000C6010E944CA6481AF60101900020E9F7EA
:104190009F012150310939012EC03601FFEF6F1AFE
:1041A0007F0A25E4F60120834A94442009F457C08D
:1041B000630181E04B3751056105710509F480E029
:1041C000850D8A3084F036013FEF631A730A4A94F2
:1041D0006AE00E9452EE805DF6018083442009F47B
:1041E0003EC0892F63013601FFEF6F1A7F0A805DA1
:1041F000F60180834A94141494F5442D042C000C89
:10420000550B4F5F5F4FB701C3010E94B5E6C30175
:104210000E944CA6481A8D8184192796E2E10C94DD
:10422000BDEE443251056105710509F03FC001152D
:104230001105C1F0442D042C000C550B4F5F5F4F4E
:10424000B801C6010E94B5E6C6010E944CA6481AF4
:10425000F60101900020E9F7CF0101973C016301CD
:1042600057015ACF2114310451F4F501D6013D0113
:10427000EE16FF0649F184918D933196F8CF442DC7
:10428000042C000C550B4F5F5F4FB101C6010E941B
:1042900004E7C6010E944CA6481AF60101900020CE
:1042A000E9F79F01215031093901D9CF4034510537
:1042B00061057105D1F636013FEF631A730AEE818D
:1042C000FF818081F6018083F30110824A94C7CF79
:1042D00057FE6FCF4BCFCF92DF92EF92FF920E94AB
:1042E0003FBF6B017C0129B191E023FB222720F91C
:1042F000292789B182FB882780F989273091C40357
:1043000090E020FB90F980FB91F9932790FF67C024
:10431000B701A6014E5F5F4F6F4F7F4F4093C003C1
:104320005093C1036093C2037093C30391FF70C0A5
:10433000B701A6014E5F5F4F6F4F7F4F4093BB03A6
:104340005093BC036093BD037093BE039091C4036C
:1043500020FB90F980FB91F99093C4032091BF0357
:10436000822F8170269521702827880F282B809115
:10437000BA032817C9F0422F481B550BCA010596EE
:1043800064E070E00E9473EE81502093BA038230A3
:1043900009F057C08091B903880F882329F09091C4
:1043A000CA03890F8093CA038091C6039091C70303
:1043B000A091C803B091C9038C199D09AE09BF092A
:1043C000181619061A061B062CF0309B3DC080E01B
:1043D0008093C503FF90EF90DF90CF9008954091B8
:1043E000C0035091C1036091C2037091C3034C1983
:1043F0005D096E097F0914161506160617060CF4DA
:1044000095CF3091BF0320FB30F93093BF038ECF9F
:104410004091BB035091BC036091BD037091BE03FA
:104420004C195D096E097F09141615061606170644
:104430000CF48CCF9091BF0380FB91F99093BF0354
:1044400085CF8093B903A9CF84E0C2CF8F3010F419
:104450008F5F08958F5008959CE0899F802D1124CF
:1044600091E0980F90938A032CE0280F20938A05FF
:1044700030E02E5F3F4F409145134217130619F06D
:1044800014F080E00895209147139217D0F7662327
:1044900041F08E5F0E94B8D680918A058E5F0E949F
:1044A000B8D680918A0590914513891750F32091D1
:1044B000471390918A03291720F310924813809391
:1044C000491381E0089520918903022E000C330BDB
:1044D0008217130641F0809389036EE972E181E14E
:1044E00093E10C943ED60895ACE0B0E0EAE7F2E246
:1044F0000C94ADEEFC0160817181828193816F3FEC
:1045000071058105910509F070F48DE093E175D98D
:10451000E0911513F09116133196849190E02C964A
:10452000E6E00C94C9EE10914813009149132091D4
:10453000900321110FC040E45DE0602F812F0E94A5
:10454000A1D790E080E0180F10934813009349130F
:104550009927E5CFE0901513F090161321E133E190
:104560003A832983212F30E03C832B83202F30E0B6
:104570003E832D8318861F822FEF3FEF3A872987CE
:104580001C861B862AEA3BE1AE014F5F5F4FBF01ED
:10459000C7010E9469B1B70181E193E10E943ED653
:1045A0008F819885D0CFA8E0B0E0E9EDF2E20C94DD
:1045B000A3EE6C015A014901FB0190818CE0989FA8
:1045C000800D1124982FF6012081822F880F820FF1
:1045D000880F80934813909349134115510509F4AE
:1045E000A0C0DA82C9827C836B83011122C0AE0134
:1045F0004B5F5F4FB401C5010E945AA65C018D81DB
:104600009E81AF81B885892B8A2B8B2B09F489C0B9
:10461000CE01059669DFF60180818F5F8083853149
:1046200030F3CE0101960E94A617E1CF10E075018C
:104630000DC07A0110E00AC0E114F104B9F38FEF64
:10464000E81AF80A10E0E114F10489F3AE014B5FB7
:104650005F4FB401C5010E945AA65C014D805E8087
:104660006F8078844114510461047104E9F0F0E230
:104670004F16510461047104A9F0D301C2018D9752
:10468000A109B1090297A105B10570F04BE24416EA
:1046900051046104710441F05AE04516510461046B
:1046A0007104E9F5112341F2F6018081482F410F91
:1046B0005527551F4631510534F0853020F0CE0185
:1046C00001960E94A61781E041145104610471040F
:1046D00009F480E0180FF6018081810F8083112397
:1046E00069F01150AE014B5F5F4FB401C7010E94EA
:1046F0005AA67C01CE010596F7DEF1CF4114510494
:104700006104710471F0FAE04F1651046104710400
:1047100009F08CCFCE0101960E94A61788CF1F5FAB
:1047200092CF2896E0E10C94BFEEACE0B0E0EBE96C
:10473000F3E20C94ABEEF0904813E0904913209113
:104740009003211112C040E25DE06E2D8F2D0E947A
:10475000A1D790E080E0F80EF0924813E092491360
:1047600099272C96E8E00C94C7EEC0901513D090D2
:10477000161321E133E13A8329832F2D30E03C8366
:104780002B832E2D30E03E832D8318861F822FEF42
:104790003FEF3A8729871C861B860AEA1BE19E01A8
:1047A0002F5F3F4F4FEC57E7BC01C6010E9400B29C
:1047B000B60181E193E10E943ED68F819885CBCFEF
:1047C000EDE0F3E183AF64AFCA01AFCFAECFCF93DB
:1047D000DF93FC0125AD211104C021E025AF0E942B
:1047E00029D5C0911313D0911413E0914213F09185
:1047F000431382E00995E0914213F091431381E065
:10480000099530E020E044E1BE0181E193E10E949E
:1048100024D524E433E147E1BE0181E193E10E9424
:1048200024D5E0914213F091431380E00995DF9184
:10483000CF9108950F93CF9380919103811154C02C
:10484000109248131092491310924A1310921613A3
:1048500010921513109218131092171310921A1326
:1048600081E08093191382E280931B13109220132E
:1048700010921F13E4E3F3E122E433E18FEF81931D
:104880002E173F07E1F7C1E0C093311321EC30EB65
:104890003093271320932613C093281310922913C3
:1048A00010922A1390E490932B1310922C1320EC67
:1048B00030EB30934313209342132AE031E03093DE
:1048C0001413209313139EE19093381391E1909366
:1048D00039139CE1909336138093351380933413EE
:1048E0000E9429D5C093910381E08093900389E9C8
:1048F0009DE09093550B8093540B1092570B1092A0
:10490000560B109231138DE093E161DF0091121389
:104910002091111340E060E081E193E10E94FCD618
:1049200081E193E10E940ED68111F0CF81E0809366
:10493000311353985B9A52985A9A3898409ACBDC24
:104940001092CA030E9447B2CF910F910895ACE034
:10495000B0E0EDEAF4E20C94ABEEF0904813E09096
:10496000491320919003211112C040E05DE06E2DAB
:104970008F2D0E94A1D790E080E0F80EF0924813AE
:10498000E092491399272C96E8E00C94C7EEC0906A
:104990001513D090161321E133E13A8329832F2D8B
:1049A00030E03C832B832E2D30E03E832D83188610
:1049B0001F827A8769871C861B860AEA1BE19E0193
:1049C0002F5F3F4F42ED57E7BC01C6010E9400B286
:1049D000B60181E193E10E943ED68F819885CDCFCB
:1049E0006FEF7FEFB4CFA6E0B0E0E9EFF4E20C9414
:1049F000A1EE3C015B014DB75EB75E834D830E9423
:104A00003EA6482EC5010E944CA6512C23E130E061
:104A10006901C81AD10875E2F72EC414D50414F43C
:104A20006FE1F62E8F2D90E09C012E5F3F4F40915D
:104A300045134217130611F00CF052C0099720914C
:104A40004713281719060CF44BC000918E051091DE
:104A50008F0520918C0530918D0540918B0510922A
:104A60004813F09249132DB63EB68DB79EB78655C2
:104A700091090FB6F8949EBF0FBE8DBF01964C01F1
:104A80005AE2E52EB30128DB6CEF70E0C4015FDF72
:104A90000FB6F8943EBE0FBE2DBE11E0A114B104B6
:104AA000A1F084E69DE092DEC414D504DCF49CE021
:104AB000F90E80914513F81640F0209147134F2DC1
:104AC0004950550B241715067CF48D819E810FB635
:104AD000F8949EBF0FBE8DBF2696E2E10C94BDEE0A
:104AE00010E0DCCF112389F380E290E0A0E0B0E099
:104AF00089839A83AB83BC838C2D880FC80ECC0C22
:104B0000C0924813F0924913CE010196EDDCC50125
:104B100067DFDBCFADE0B0E0E0E9F5E20C94A1EEB9
:104B2000982F862F3A016901502E2DB63EB6692F77
:104B300093DC882309F4A6C0C601002309F44DC004
:104B40000E943EA6F82EA0901513B09016138091E7
:104B50009003811161C08FEF9FEF8D8783E1482E15
:104B60004F1800918E0510918F0520918C05309182
:104B70008D0540918B058DB69EB6842D90E00196F3
:104B8000880F991F6DB77EB7681B790B0FB6F89425
:104B90007EBF0FBE6DBF8DB79EB701965C01E42C42
:104BA000B3019ADA182F96E0499EB0011124C5018D
:104BB000CEDE0FB6F8949EBE0FBE8DBEFF2009F468
:104BC00061C0411A82E69DE001DE442009F442C042
:104BD00080E69DE0FBDD4A94F8CF0E944CA6F82EBB
:104BE000A0901513B090161380919003882309F4B8
:104BF000B2CFFE0133968AE0DF011D928A95E9F774
:104C000081E193E19A83898303E81BE19E012F5F91
:104C10003F4F42ED57E712C0FE0133968AE0DF01B5
:104C20001D928A95E9F781E193E19A83898303E8EC
:104C30001BE19E012F5F3F4F4FEC57E7B601C501C7
:104C40000E9400B2B50181E193E10E943ED68F81BE
:104C5000988583CF40918A05AD858A2F90E0B6E094
:104C6000FB9E900111240296821793070CF4C90150
:104C700090E8981B9093481340934913C601552020
:104C800051F053DD0FB6F8943EBE0FBE2DBE2D96EB
:104C9000E2E10C94BDEEA4DEF5CFCF93DF93DB0110
:104CA000F9019C919130C1F0943080F094509C9324
:104CB0008830D1F480819181009771F001979183C0
:104CC0008083480F591FEA01188206C08C3539F4D9
:104CD0009C5F9C93943041F4DF91CF9108958B3386
:104CE00039F781E08C93F8CF20813181B9016F5F72
:104CF0007F4F71836083420F531FEA018883808155
:104D000091818F3591056CF7E7CF0F931F9381E069
:104D10000091610B1091620B2091630B3091640B39
:104D200040915D0B50915E0B60915F0B7091600B39
:104D3000041715072607370708F480E01F910F9125
:104D4000089590910105992321F0682F80E00E9439
:104D5000A8A080E008954F925F926F927F928F9209
:104D60009F92BF92CF92DF92EF92FF920F931F9389
:104D7000CF93DF9310928103109280032FE320934F
:104D80008403109283031092820310928503109281
:104D9000860310928703109288039C01F901908189
:104DA0002F5F3F4F9032D1F39E34C9F4818190ED53
:104DB000980F9A3020F08D3211F08B3281F43296B8
:104DC0009F012F5F3F4F808180538A3008F46DC070
:104DD0009F012F5F3F4F8081803209F468C0F093BC
:104DE0001906E09318068F010F5F1F4FC0816AE21A
:104DF00070E0C8010E9440F2009731F0FC01319749
:104E000080818032E1F31182CD3421F0C43511F07C
:104E1000C734D9F5F80180810F5F1F4F8032D1F37D
:104E200080538A3090F5C093840390E080E06AE07C
:104E3000AF014F5F5F4F689F9001699F300D112454
:104E4000C901C0972081820F911D27FD9A95FA0113
:104E5000208120532A3060F3909383038093820350
:104E6000DF0131962C912032D9F3CD3461F58E31AA
:104E7000910539F0F0F48731910519F08C319105E5
:104E800011F5B0938103A0938003DF91CF911F911F
:104E90000F91FF90EF90DF90CF90BF909F908F90F9
:104EA0007F906F905F904F900895F90189CFF9013D
:104EB0008FCF8537910538F08737910510F3803A09
:104EC00013E09107F1F2809018069090190640E0E7
:104ED00050E0BA0130E020E0C12CD12C7601C3941F
:104EE000FD013196DC91DD2309F484C0D132F1F467
:104EF000CD34E1F480329105C9F440938503509399
:104F000086036093870370938803F0938103E09393
:104F1000800363E270E0CF010E9440F2009709F441
:104F2000B4CFFC011082B1CFDF01DACFD154DA3136
:104F300008F05BC0DF011D91103291F0A0EDA10FD0
:104F4000AA30E8F01E3271F4A181A053AA30B8F063
:104F50002115310519F49F0121503109B12C13C0DD
:104F6000FD01E8CF1D3211F01B3291F7A181B0EDA8
:104F7000BA0FBA3020F0AE3259F7A281E6CFBE2E7A
:104F8000B818309759F3AD2FB0E02601370104C0AF
:104F9000440C551C661C771CDA95D2F74429552918
:104FA00066297729AA59BC4FBC92A081A154AA3185
:104FB00008F4BACFDF01D191DD2309F491CF00EDE0
:104FC000B02EBD0E19E01B15A8F713EDB12EBD0EC6
:104FD00011E01B1578F7DB3269F3FD013196DC91A6
:104FE000D03209F07DCFDF01F8CF21153105E9F688
:104FF0009D01DBCF30938103209380034093850391
:105000005093860360938703709388033ECF20916B
:105010000D09211103C060E00C94D41F0895FC0118
:1050200065917591859194910895EFE6F0E0808106
:105030008260808308958091910590919205892BDB
:1050400079F48091910590919205892B49F42091F2
:1050500091053091920581E0232B19F480E00895A9
:1050600081E00895BC0190E080E00C946FB2CF9293
:10507000DF92EF92FF926B017C0183E3C816D104AB
:10508000E104F10470F082E3C81AD108E108F108E4
:1050900062E370E080E090E00E94B6BE0E94238B45
:1050A000ECCFC701B6010E94B6BE0E94238BFF90D1
:1050B000EF90DF90CF9008959091650B94FB882737
:1050C00080F994FF06C081E09091710B911101C0AD
:1050D00080E00895F1DF882339F08091650B82FB31
:1050E000882780F991E0892708950E9447B2F2DF6E
:1050F000882331F088EC9EE09093100580930F0593
:105100000C94AFA29091650B92FB882780F992FFD7
:1051100005C097FB882780F991E089270895809141
:10512000530B813009F0EECF81E00895A1E1B0E0AA
:10513000ECE9F8E20C94A1EEF2DF882309F4A7C0B1
:105140000E9462A24B015C0120E13EE040E050E0A1
:105150000E94E9ED69017A0119018CE3482E512C76
:10516000612C712CC501B401A30192010E94E9EDEB
:105170006E877F87888B998BCA01B901A301920141
:105180000E94E9ED8E010F5F1F4F20E8821621E596
:10519000920621E0A206B10408F47DC07F936F93CC
:1051A000C60168E170E00E945FEE9F938F93C50196
:1051B000B40120E831E541E050E00E94E9ED3F9381
:1051C0002F9388E89DE09F938F931F930F930E94E6
:1051D00054E7C8010E94C9E60FB6F894DEBF0FBEBF
:1051E000CDBF2AE0281B85E48093FF1210920013A4
:1051F0008FEF92E1FC0101900020E9F7CF01805090
:1052000093418D30910540F4FC01E150FD4E3AE3AD
:1052100030830C9709F011828FEF92E1FC0101902D
:105220000020E9F7CF0180509341022E000C330B90
:105230004DE050E06A01C81AD90A2C153D050CF45E
:1052400069011C141D0474F49C0121503D4E790128
:10525000A60160E270E0C9010E9426F2EC0CFD1C80
:10526000F70110828FEF92E1FC0101900020E9F735
:10527000CF01805093418D30910548F44EE050E0CD
:10528000481B590BB80181509D4E0E9404E761965E
:10529000E2E10C94BDEEC114D104A9F4FF85FF93A3
:1052A0002E852F937F936F938CE79DE09F938F9331
:1052B0001F930F930E9454E70FB6F894DEBF0FBE02
:1052C000CDBF85E08ECFE4E6CE16D10438F47F93CF
:1052D0006F93DF92CF9280E79DE0E8CF7F936F934B
:1052E000DF92CF9286E69DE09F938F931F930F935B
:1052F0000E9454E70FB6F894DEBF0FBECDBF86E024
:1053000070CF9091900D8091910D981301C007CFAF
:1053100081E00895B0E0A0E0E0E9F9E20C94A9EEA4
:10532000EC018B01A42EB22E8091FD129091FE1201
:105330008C179D0709F44CC01092280422E5C73E43
:10534000D20709F04AC080569A4271F40E943FBFCA
:105350006E517B4F8F4F9F4F6093050470930604EF
:1053600080930704909308048091FD129091FE129F
:1053700080569A4241F482E5C73ED80721F4109244
:105380000D090E9447B2D093FE12C093FD1230E087
:1053900020E000936D0510936E0520936F05309308
:1053A0007005A0926605B0926705C056DA4221F4F6
:1053B00010920D041092040482E08093500181E069
:1053C00080937D0510920A0410920E041092090435
:1053D000CDB7DEB7EAE00C94C5EE2AE2C036D207BC
:1053E00019F6875E9245E9F4C0900504D090060452
:1053F000E0900704F09008040E943FBFC61AD70A45
:10540000E80AF90A1C141D041E041F0454F48091B8
:1054100000058770873029F474DFCBE8DBE7811162
:10542000A3CFC0E6DAE2A0CF20E040E070E060E089
:1054300087EC99E16FCF0E943B91882339F020E0FF
:1054400040E070E060E086E090E464CFEDCFCF9381
:10545000C1E0C0930D046093130170931401809315
:1054600015019093160120E040E070E060E080912B
:105470005705909158054EDFC0932804CF910895A9
:105480006DEC7CEC8CEC9CE3E2CF6DEC7CEC8CEC7A
:105490009DE3DDCF60E070E080E89FE3D8CF60E07F
:1054A00070E080E291E4D3CF8091650B84FF0E948D
:1054B0006B8720E040E070E060E08DE79DE52ACF5B
:1054C000A4E0B0E0E6E6FAE20C94A3EEE091CC03AF
:1054D000F091CD03309721F0099581110E9447B2D8
:1054E0008091520510925205882359F020E040E047
:1054F00070E060E087EE92E50DDF2496E0E10C9429
:10550000BFEE209117013091180140916D05509127
:105510006E05CA01820F931F2436310509F038C485
:1055200047305105E4F00697883EE3E09E0714F00B
:1055300087EE93E08A30910514F48AE090E0281712
:10554000390789F0909318018093170110926D0527
:1055500010926E0510926F051092700504C00696A9
:105560004A3F5F4F0CF380916905882309F450C1CD
:105570006091360D7091370D072E000C880B990B3A
:105580000E94C1E711E02091320D3091330D40911E
:10559000340D5091350D0E9429F018160CF010E0D2
:1055A00060910E0D70910F0D072E000C880B990B5A
:1055B0000E94C1E720910A0D30910B0D40910C0D16
:1055C00050910D0D0E9429F018160CF412601093E2
:1055D000A9034090190B50901A0B60901B0B709010
:1055E0001C0BC0901D0BD0901E0BE0901F0BF09079
:1055F000200B8090210B9090220BA090230BB09059
:10560000240B20E030E0A901C301B2010E94BBE7F6
:1056100020E030E040E05FEB87FD04C020E030E0B8
:1056200040E05FE3C301B2010E94D9EE0E94B8EFEF
:10563000CB010E9426A3BC0184EA93E00E944BF2B6
:1056400020E030E0A901C701B6010E94BBE720E0DD
:1056500030E040E05FEB87FD04C020E030E040E058
:105660005FE3C701B6010E94D9EE0E94B8EFCB01FB
:105670000E9426A3BC018FE993E00E944BF242E016
:1056800050E0C501B4010E9436A46B017C0180E2A8
:10569000F7FE09C0F094E094D094C094C11CD11CD2
:1056A000E11CF11C8DE280935E0560E2F0E1CF1613
:1056B000F7E2DF06E104F1048CF0C701B60120E156
:1056C00037E240E050E00E940BEECA01B9012AE047
:1056D00030E040E050E00E940BEE605D60935F05BB
:1056E00060E228EEC21623E0D206E104F1048CF059
:1056F000C701B60128EE33E040E050E00E940BEE17
:10570000CA01B9012AE030E040E050E00E940BEE0F
:10571000605D60936005C701B60124E630E040E0BB
:1057200050E00E940BEE6AE0862E912CA12CB12C49
:10573000CA01B901A50194010E940BEE605D60935E
:105740006105C701B601A50194010E940BEE6B0132
:105750007C01CA01B901A50194010E940BEECC2085
:1057600009F426C32EE220936205605D6093630511
:1057700040E3C40EC09264056EE575E087E993E0EE
:105780000E944BF28091650B24E683FD27C094DCD8
:10579000882309F41FC380915D0B90915E0BA0914B
:1057A0005F0BB091600B0097A105B10509F412C31E
:1057B000BC01CD016D597F4F8F4F9F4F24E630E0E4
:1057C00040E050E00E94E9ED6091610B7091620B46
:1057D0008091630B9091640B0E94E9ED20939603F6
:1057E000809110018217A1F02093100188E4289F76
:1057F000B001112490E080E00E94BFE72AE037ED7D
:1058000043E25CE30E9420E80E94BDEF60939503B1
:1058100081E00E94632280914513803180F4809161
:105820004713853060F04CE7E42E4EE0F42E0BE099
:1058300023E045E068E081E193E10E94FE7B8091F6
:10584000A903982F927048E00CE081FD02C042E16C
:1058500002E080914513843180F4809147138417CE
:1058600060F0992309F4B8C288E59EE07C0123E04A
:1058700068E481E193E10E94FE7B0E941E1B182FC9
:10588000809145138431B8F480914713823098F0A9
:10589000112309F4A4C280914106882309F49FC210
:1058A0008CE19EE07C0102E123E042E068E681E1D8
:1058B00093E10E94FE7B809145138C3108F013C167
:1058C0008090320D9090330DA090340DB090350D36
:1058D000C090360DD090370D843198F480914713E5
:1058E000883078F08091A90380FF7CC28EEC9DE027
:1058F0007C010CE022E048E068E281E193E10E9453
:10590000FE7B80914513883018F5D7FC6EC2C60126
:105910000E94A5A3FC0101900020E9F73197E81B44
:10592000F90B2E2F220F220FE21BE15DE0934813AB
:1059300027E02093491354D889E090E0A0E0B0E03C
:1059400089839A83AB83BC83CE0101960E94742223
:10595000809145138C3188F580914713843168F12B
:1059600020E030E040E05FE3C501B4010E94D9EEE1
:105970000E94B8EF77FD40C2CB010E94A5A3FC01B5
:1059800001900020E9F73197E81BF90B2E2F220F29
:10599000220FE21BE15DE09348132CE120934913B1
:1059A0001FD889E090E0A0E0B0E089839A83AB83C0
:1059B000BC83CE0101960E947422C0900A0DD09043
:1059C0000B0DE0900C0DF0900D0D8091451388307B
:1059D00038F580910E0D90910F0D97FD14C20E9425
:1059E000A5A3FC0101900020E9F73197E81BF90B12
:1059F0002E2F220F220FE21BEE5AE093481327E0CE
:105A0000209349130E94F02489E090E0A0E0B0E0E8
:105A100089839A83AB83BC83CE0101960E94742252
:105A2000809145138C3190F580914713843170F14A
:105A300020E030E040E05FE3C701B6010E94D9EE0C
:105A40000E94B8EF77FDE6C1CB010E94A5A3FC013F
:105A500001900020E9F73197E81BF90B2E2F220F58
:105A6000220FE21BEE5AE09348132CE120934913D6
:105A70000E94F02489E090E0A0E0B0E089839A835E
:105A8000AB83BC83CE0101960E94742280914513A2
:105A90008C3148F580914713843128F1809141067B
:105AA000882309F1E4E68E9FC001112481589F4F9D
:105AB0006FEF70E00E9473EECB010E94D0A327E647
:105AC000209348132CE1209349130E94F02485E28F
:105AD00090E0A0E0B0E089839A83AB83BC83CE01E1
