:100000000C9473150C94AC150C94AC150C94AC15A5
:100010000C94AC150C94AC150C94AC150C94AC155C
:100020000C94AC150C94AC150C94AC150C94AC154C
:100030000C94AC150C9474820C94AC150C94AC1507
:100040000C94B27E0C94AC150C94FDD10C94AC15B0
:100050000C94D84A0C94CE4A0C94AC150C94AC1564
:100060000C94AC150C94AC150C94AC150C94AC150C
:100070000C94AC150C94AC150C94AC150C94AC15FC
:100080000C94BD420C94AC150C94AC15076342362D
:10009000B79BD8A71A39685618AEBAAB558C1D3C19
:1000A000B7CC5763BD6DEDFD753EF6177231BF00DD
:1000B0000000803F08000000BE922449123EABAA17
:1000C000AA2ABECDCCCC4C3E00000080BEABAAAA72
:1000D000AA3E00000000BF000000803F00000000BA
:1000E00000084178D3BB4387D1133D190E3CC3BDF3
:1000F0004282AD2B3E68EC8276BED98FE1A93E4CA0
:1001000080EFFFBE01C4FF7F3F00000000004E41B2
:100110004E494E495459494E46CDCCCC3D0AD72381
:100120003C17B7D13877CC2B329595E6241FB14FC9
:100130000A000020410000C84200401C4620BCBE0E
:100140004CCA1B0E5AAEC59D74434F4D4D554E497A
:10015000434154494F4E0044525952554E00455266
:10016000524F525300494E464F004543484F0053AB
:10017000544F505045442E20005072696E74657281
:100180002073746F707065642064756520746F20CF
:100190006572726F72732E204669782074686520CC
:1001A0006572726F7220616E6420757365204D39BF
:1001B000393920746F20726573746172742E20282F
:1001C00054656D7065726174757265206973207213
:1001D000657365742E20536574206974206166749C
:1001E00065722072657374617274696E67290A00A2
:1001F0004E6F20436865636B73756D207769746813
:10020000206C696E65206E756D6265722C204C6184
:100210007374204C696E653A20004E6F2043686508
:10022000636B73756D2077697468206C696E6520E7
:100230006E756D6265722C204C617374204C696E12
:10024000653A2000636865636B73756D206D697333
:100250006D617463682C204C617374204C696E6509
:100260003A20004C696E65204E756D62657220699A
:1002700073206E6F74204C617374204C696E65201E
:100280004E756D6265722B312C204C617374204C5D
:10029000696E653A20004D313130005365726961F5
:1002A0006C20737461747573206D69736D61746310
:1002B000680A0053442072656164206572726F722F
:1002C0000A00746F6F206D75636820696E616374D6
:1002D0006976652074696D65202D2063757272657D
:1002E0006E7420636F6D6D616E643A200021212071
:1002F0004B494C4C20636175736564206279200022
:10030000627573793A2070617573656420666F72E7
:1003100020696E7075740A00627573793A20706195
:100320007573656420666F7220757365720A00626A
:100330007573793A2070726F63657373696E670ABB
:10034000004D6564696120496E736572746564006F
:10035000506C656173652052657365740050524935
:100360004E5445522048414C5445440025533A20B0
:100370002553004B494C4C45442E20005072696E69
:100380007465722068616C7465642E206B696C6C96
:1003900028292063616C6C6564210A006563686FBD
:1003A0003A004572726F723A004F4646004F4E0057
:1003B00042696C696E656172204C6576656C696E28
:1003C0006720477269643A0A0050726F62696E670B
:1003D00020506F696E740025532025692F25690010
:1003E0002E0A002F0050726F62696E67206D657370
:1003F0006820706F696E742000202844525952554D
:100400004E2900473239204175746F2042656420BF
:100410004C6576656C696E67003F20284C2C522C29
:10042000462C4229206F7574206F6620626F756EAE
:1004300064732E0A003F2856296572626F73652027
:100440006C6576656C20696D706C61757369626C42
:10045000652028302D34292E0A00426164205A205C
:1004600076616C75650A004E6F2062696C696E6515
:10047000617220677269640A0020440020204D32B6
:100480003030205300202844697361626C65642910
:100490003A0046696C616D656E74207365747469A9
:1004A0006E67730020204D3230312058004D617846
:1004B00020416363656C65726174696F6E20287595
:1004C0006E6974732F7332290020204D323033202F
:1004D00058004D61782066656564726174657320AB
:1004E00028756E6974732F73290020520020204DE7
:1004F000323034205000416363656C657261746909
:100500006F6E2028756E6974732F733229202850FE
:100510003C7072696E742D616363656C3E20523C61
:10052000726574726163742D616363656C3E2054FF
:100530003C74726176656C2D616363656C3E290065
:10054000204A0020540020530020204D3230352016
:100550004200416476616E6365642028423C6D69A7
:100560006E5F7365676D656E745F74696D655F75E9
:10057000733E20533C6D696E5F666565647261749D
:10058000653E20543C6D696E5F74726176656C5F88
:1005900066656564726174653E204A3C6A756E6387
:1005A0005F6465763E290020440020490020204DEC
:1005B000333031205000486F74656E6420504944D8
:1005C0000020440020490020204D333034205000CA
:1005D00042656420504944002E0A00D8085D295A1B
:1005E000295729206E6F742064697361626C656499
:1005F0002E20536861726564207769746800204911
:100600006E76616C696420657874727564657220B9
:1006100000536C6565702E2E2E005A2050726F624A
:10062000652050617374204265640A005A2050723C
:100630006F626520506173742042656400473238F0
:100640004C30005A2050726F6265205061737420E4
:1006500042656400205A3A200020593A2000426541
:100660006420583A20004D65736820706F696E747D
:10067000206F7574206F662072616E67650A004393
:100680006C69636B20746F20526573756D652E2ED7
:100690002E00616C736F20656E61626C6564290A5F
:1006A000004E6F204D6F76652E00456E64206669A2
:1006B0006C65206C6973740A00426567696E206618
:1006C000696C65206C6973740A004E6F206D6564F7
:1006D00069610A00534420636172642072656C652D
:1006E000617365640A00286E6F2066696C65290075
:1006F00043757272656E742066696C653A20004EAF
:100700006F74205344207072696E74696E670A00BA
:100710005344207072696E74696E672062797465E3
:1007200020002E0A0044656C6574696F6E20666156
:10073000696C65642C2046696C653A200046696CDA
:10074000652064656C657465643A002569730025ED
:10075000696D20256973002569682025696D20254C
:10076000697300256964202569682025696D202545
:100770006973002569792025696420256968202529
:10078000696D20256973005072696E742074696DFB
:10079000653A20006F6B006F6666006A0165015E56
:1007A000015701490144454255473A004D31313224
:1007B0002053687574646F776E004D313133205368
:1007C0000043522D3130204F46462E004649524DAF
:1007D000574152455F4E414D453A4D61726C696ECD
:1007E00020322E312E322E3820284A756C20323499
:1007F00020323032362031373A35303A30362920FF
:10080000534F555243455F434F44455F55524C3A11
:100810006769746875622E636F6D2F4D61726C69C4
:100820006E4669726D776172652F4D61726C696E8B
:100830002050524F544F434F4C5F56455253494FEF
:100840004E3A312E30204D414348494E455F545970
:1008500050453A43522D3130204558545255444565
:10086000525F434F554E543A3120555549443A63EF
:10087000656465326132662D343161322D3437342E
:10088000382D396231322D63353563363266333671
:10089000376666002F2F004D31343520533C696E8A
:1008A0006465783E206F7574206F662072616E6794
:1008B000652028302D31290A003F4A206F757420A9
:1008C0006F662072616E67652028302E303120748B
:1008D0006F20302E33290A002058003B20002020B2
:1008E0004D61783A2000200020204D696E3A2000AA
:1008F000203B200020204D323131205300250A00BA
:1009000046523A0020466C6F773A20003A20002089
:10091000536572766F2000206F7574206F662072A9
:10092000616E67650A00536572766F2000646973B3
:1009300000656E0043290A0061626C656420286DC1
:10094000696E2074656D702000436F6C642065785B
:100950007472756465732061726520004F46460AA3
:1009600000466164652048656967687420004265D7
:1009700064204C6576656C696E6720004661696C21
:10098000656420746F20656E61626C6520426564E9
:10099000204C6576656C696E670A00496E76616CFD
:1009A0006964206D6573682E0A004D343231206908
:1009B0006E636F727265637420706172616D6574CD
:1009C00065722075736167650A004D6573682070F4
:1009D0006F696E74206F7574206F662072616E6728
:1009E000650A00454550524F4D204F4B0A00290AD9
:1009F0000020746F20003F5A206F7574206F6620AE
:100A000072616E6765202800290A0020746F20003B
:100A10003F59206F7574206F662072616E67652084
:100A2000282D00290A0020746F20003F58206F7580
:100A300074206F662072616E676520282D004D3826
:100A40003400446F6E65207072696E74696E672041
:100A500066696C650A004D3737004D333100496EC9
:100A600076616C69642065787472756465720A00D9
:100A7000203B0020204D3835312058005A2D50722F
:100A80006F6265204F66667365740020573A0043B5
:100A90006F6F6C696E672E2E2E0045312025530036
:100AA00020573A0042656420436F6F6C696E672E71
:100AB0002E2E004265642048656174696E672E2E93
:100AC0002E0023646566696E652044454641554C99
:100AD000545F00004245445F004B4420004B4920D6
:100AE000004B5020002066696E69736865642120A0
:100AF00050757420746865206C617374204B702C81
:100B0000204B6920616E64204B6420636F6E7374A8
:100B1000616E74732066726F6D2062656C6F7720F2
:100B2000696E746F20436F6E666967757261746970
:100B30006F6E2E680A00504944204175746F7475B9
:100B40006E6500206661696C6564212074696D655D
:100B50006F75740A00504944204175746F74756E46
:100B60006500206661696C6564212054656D70655F
:100B700072617475726520746F6F20686967680AA6
:100B800000504944204175746F74756E650050497A
:100B900044204379636C65730025532025692F2514
:100BA0006900204B643A2000204B693A2000204B1A
:100BB000703A200020436C6173736963205049448C
:100BC000200A00204E6F206F76657273686F6F7415
:100BD0000A002054753A2000204B753A2000206D01
:100BE00061783A2000206D696E3A200020643A2036
:100BF0000020626961733A200048656174696E671C
:100C00002E2E2E002073746172740A005049442005
:100C10004175746F74756E6500206661696C6564FA
:100C2000212054656D706572617475726520746FF2
:100C30006F20686967680A00504944204175746FE5
:100C400074756E6500504944204175746F74756EFB
:100C500065003F28432979636C6573206E6F7420AB
:100C6000706C61757369626C6520283E3D33292E76
:100C70000A00206661696C65642120426164206815
:100C800065617465722069640A00504944204175A9
:100C9000746F74756E65004572723A2075746638AB
:100CA00020666F6E74206E6F7420696E697469615E
:100CB0006C697A65642E004572723A2075746638E4
:100CC00020666F6E74206E6F7420696E697469613E
:100CD0006C697A65642E004572723A2075746638C4
:100CE00020666F6E74206E6F7420696E697469611E
:100CF0006C697A65642E0020003A003A0025687518
:100D00003A25303268750025303268753A25303220
:100D100068750025303268752725303268750025E2
:100D20006875642025303268753A25303268750060
:100D300042656400456E636C6F73757265004500B3
:100D4000200020002000200020002500202020205E
:100D5000202020002020202000657272001FE0204B
:100D600010201020101020102020102010303008EB
:100D700040048003001FE03FF03FF03FF01FE01F02
:100D8000E03FF03FF03FF00FC0078003003FFFF06F
:100D900038007030FC3020FC102078102030102CEF
:100DA00000D02E31D02F7BD02F7BD02E31D02C00F5
:100DB000D020301020781020FC1030FC303800702B
:100DC0003FFFF03FFFF03800703186302387102757
:100DD00087902F87D02F03D02030102078102078D4
:100DE000102030102F03D02F87D027879023871013
:100DF0003186303800703FFFF01FFFF81FFFF80406
:100E000010400208200208200410400820801041F1
:100E1000001041000820800410400000001FFFF86F
:100E20001FFFF85072696E742041626F72746564BE
:100E3000004D32350050617573696E672E2E2E009D
:100E40004D3234003F0049676E6F72650052657322
:100E5000657400496E697469616C697A65204545FD
:100E600050524F4D0046696C2E204469612E00455A
:100E700020696E206D6D5E3300200820466163742A
:100E8000002008204D6178002008204D696E004F39
:100E90006666004F6E004175746F74656D70004D2D
:100EA000696E2054726176656C20537065656400CC
:100EB0004D696E2056656C6F63697479004D617879
:100EC0002040205370656564004D617820452041C5
:100ED0006363656C004D6178204020416363656CFD
:100EE0000054726176656C20416363656C005265E5
:100EF000747261637420416363656C004163636570
:100F00006C0050726F6265205A204F66667365747C
:100F10000050726F62652059204F666673657400D9
:100F200050726F62652058204F666673657400408A
:100F30002073746570732F6D6D00416476616E630C
:100F400065642053657474696E6773003F00436184
:100F50006E63656C00496E697400496E69746961FD
:100F60006C697A6520454550524F4D0046696C6169
:100F70006D656E740054656D70657261747572652F
:100F80000053746570732F6D6D0050726F62652031
:100F90004F666673657473004A756E6374696F6E2D
:100FA0002044657600416363656C65726174696FA6
:100FB0006E004D617820537065656420286D6D2F3B
:100FC000732900436F6E66696775726174696F6E2D
:100FD00000000C0F00FE07022503BB017FFE08FE88
:100FE00008FE05080806000040F0C88888987810B8
:100FF000050808060000C0F88888888888F8050574
:10100000050600012030F830200508080600002001
:1010100070F820202020E00509090600FF2070A8B4
:10102000A8B888887020070505070001D86C366CC1
:10103000D80509090600FFF8A88888888888A8F8D4
:10104000050A0A0600FE205050505088A8A8887053
:1010500003030306000340A040FFFFFFFFFFFFFF65
:10106000FFFFFFFFFFFFFFFFFFFFFFFFFFFFFF008F
:1010700000000605FF0107070602008080808080CF
:101080000080030303060105A0A0A00506060600D4
:101090000050F85050F8500509090600FF2070A8CC
:1010A000A07028A87020050707060000C8C81020F7
:1010B00040989805070706000040A0A040A8906847
:1010C0000103030602058080800309090601FF2051
:1010D00040408080804040200309090601FF804095
:1010E0004020202040408005070706000020A8700F
:1010F0002070A8200505050600012020F820200208
:1011000003030601FFC04080050101060003F80249
:101110000202060100C0C005070706000008101003
:1011200020404080050707060000708898A8C888FE
:101130007003070706010040C040404040E005073B
:1011400007060000708808102040F8050707060011
:1011500000F80810300888700507070600001030F6
:101160005090F81010050707060000F880F00808F6
:101170008870050707060000304080F088887005F9
:101180000707060000F808101020202005070706B2
:101190000000708888708888700507070600007056
:1011A000888878081060020505060100C0C000C0EC
:1011B000C00206060601FFC0C000C040800305054E
:1011C0000601012040804020050303060002F800CC
:1011D000F803050506010180402040800507070649
:1011E000000070881020200020050707060000700E
:1011F00088B8A8B88070050707060000708888F8CE
:10120000888888050707060000F04848704848F0BD
:101210000507070600007088808080887005070732
:10122000060000F04848484848F005070706000057
:10123000F88080F08080F8050707060000F88080BD
:10124000F0808080050707060000708880809888FD
:1012500070050707060000888888F88888880307D3
:1012600007060100E04040404040E0050707060057
:1012700000381010101090600507070600008890D5
:10128000A0C0A090880507070600008080808080AD
:1012900080F805070706000088D8A8888888880590
:1012A00007070600008888C8A898888805070706E9
:1012B000000070888888888870050707060000F09D
:1012C0008888F0808080050707060000708888887D
:1012D000A89068050707060000F08888F0A09088AD
:1012E00005070706000070888070088870050707EA
:1012F000060000F820202020202005070706000017
:10130000888888888888700507070600008888888C
:101310008850502005070706000088888888A8A8FC
:101320005005070706000088885020508888050768
:1013300007060000888850202020200507070600A7
:1013400000F80810204080F80309090601FFE0803A
:10135000808080808080E005070706000080404094
:10136000201010080309090601FFE020202020209A
:101370002020E00503030600052050880501010632
:1013800000FEF8030303060105804020050505065D
:10139000000070087888780507070600008080F054
:1013A000888888F005050506000070808088700533
:1013B000070706000008087888888878050505066C
:1013C00000007088F0807005070706000030484074
:1013D000E04040400507070600FE708888887808CE
:1013E000700507070600008080F08888888803075A
:1013F000070601004000C0404040E0040909060122
:10140000FE10003010101010906005070706000055
:1014100080808890E09088030707060100C0404064
:10142000404040E0050505060000D0A8A8A8A80592
:101430000505060000B0C888888805050506000077
:1014400070888888700507070600FEF0888888F095
:1014500080800507070600FE7888888878080805D8
:101460000505060000B0C88080800505050600005F
:1014700078807008F00507070600002020F820207B
:101480002018050505060000888888986805050568
:101490000600008888885020050505060000888819
:1014A000A8A85005050506000088502050880507AB
:1014B000070600FE88888850204080050505060044
:1014C00000F8102040F80309090601FF20404040C1
:1014D00080404040200109090602FF808080808012
:1014E000808080800309090601FF80404040204041
:1014F00040408005030306000248A890FF41425384
:1015000000504C41004572723A20454550524F4DB3
:1015100020436F7272757074004572723A204545AF
:1015200050524F4D20435243004572723A20454578
:1015300050524F4D2053697A65004572723A2045EA
:101540004550524F4D2056657273696F6E0053744B
:101550006F72652053657474696E6773004C6F61B8
:10156000642053657474696E67730050726F6265AE
:10157000205A204F66667365740046616465204892
:101580006569676874004F6666004F6E0042656467
:10159000204C6576656C696E67004C6576656C20DD
:1015A000426564004732394E004732390041757454
:1015B0006F20486F6D65004D6F74696F6E005357F3
:1015C0002D4D6F64650053746F77004465706C6FC8
:1015D000790053656C662D546573740052657365AC
:1015E0007400426564004E6F7A7A6C650046616EE5
:1015F00020537065656400436F6E6669677572613C
:1016000074696F6E00526573746F7265204465660D
:1016100061756C7473004C6F6164205365747469F8
:101620006E67730053746F72652053657474696ECE
:1016300067730050726568656174202420436F6E83
:101640006600424C546F7563680050726F6265208B
:101650005A204F666673657400416476616E6365F7
:10166000642053657474696E6773004D61696E0020
:101670003F004261636B0053746F70004D32320063
:10168000417474616368204D65646961004D323155
:10169000005072696E742066726F6D204D656469CA
:1016A000610052656C65617365204D656469610018
:1016B000436F6E66696775726174696F6E00546519
:1016C0006D7065726174757265004D6F74696F6ECF
:1016D00000526573756D65205072696E74005475A3
:1016E0006E650053746F70205072696E74005061A3
:1016F000757365205072696E7400496E666F205371
:10170000637265656E003F0053746172742050729D
:10171000696E740043616E63656C005072696E742B
:101720000043616E6E6F7420656E74657220737510
:10173000626469723A200002202E2E000152656612
:1017400072657368004D61696E002100486F7465B1
:101750006E6420746F6F20636F6C64004261636B12
:101760000050726F63656564004D6F766520457843
:10177000747275646572004D6F74696F6E004469B0
:101780007361626C65205374657070657273004D8F
:10179000383400426564204C6576656C696E67007C
:1017A00053746F77205A2D50726F6265004D34303C
:1017B00032004465706C6F79205A2D50726F6265EB
:1017C000004D343031004175746F20486F6D6500F5
:1017D000473238004D61696E00507265686561740A
:1017E000202420426564005072656865617420247D
:1017F00020456E640054656D706572617475726524
:10180000000115FD14436F6F6C646F776E005072AA
:10181000656865617420240046616E2053706565BB
:101820006400426564004E6F7A7A6C65004D6169B0
:101830006E004261627973746570205A0042616281
:101840007973746570204000466C6F770046616E56
:1018500020537065656400426564004E6F7A7A6C4F
:1018600065005370656564004D61696E00486F6D79
:10187000696E67204661696C6564006F70656E0013
:10188000545249474745524544003A20007A5F6D1B
:10189000696E00795F6D696E00785F6D696E0052E8
:1018A00065706F7274696E6720656E6473746F70B3
:1018B000207374617475730A0020746F6F206C6FED
:1018C0006E6720657874727573696F6E20707265CB
:1018D00076656E7465640A0020636F6C64206578B9
:1018E00074727573696F6E2070726576656E74655B
:1018F000640A00486F6D6520257320466972737411
:1019000000000000000000000000000000576172AD
:101910006E696E673A20486F6D696E672042756D1B
:10192000702044697669736F72203C20310A00028E
:1019300002040000A043000096430000C8430000DA
:10194000A0400000A0400000004053544F505045BC
:10195000442E20005072696E7465722073746F702B
:101960007065642064756520746F206572726F7293
:10197000732E2046697820746865206572726F72D4
:1019800020616E6420757365204D39393920746F7C
:1019900020726573746172742E202854656D7065B1
:1019A0007261747572652069732072657365742E37
:1019B00020536574206974206166746572207265B5
:1019C0007374617274696E67290A00206572726FA0
:1019D00072202D2072657374617274207769746847
:1019E000204D3939390A00424C546F756368002123
:1019F000212053544F502063616C6C6564206265F4
:101A00006361757365206F6620000000A0430000CD
:101A100096430000C84300000000000000000000E2
:101A2000000053657474696E67732053746F726538
:101A30006400290A002062797465733B2063726335
:101A4000200053657474696E67732053746F7265F8
:101A50006420280048617264636F64656420446593
:101A60006661756C742053657474696E6773204C7D
:101A70006F616465640020286D6D2900203B204C57
:101A80006576656C696E67200020204D3432302009
:101A900053004175746F20426564204C6576656C17
:101AA000696E670020460020420020480020204D3B
:101AB0003134352053004D6174657269616C206862
:101AC000656174757020706172616D6574657273A3
:101AD00000204A002020473239205720490020208A
:101AE0004D3134392043203B20556E697473206991
:101AF0006E2043656C736975730A0054656D70657B
:101B000072617475726520556E6974730020204788
:101B10003231203B004C696E65617220556E6974EC
:101B20007300454550524F4D206461746173697A6A
:101B300065206572726F722E0A00202863616C63E3
:101B4000756C6174656429210A0020213D200045DF
:101B50004550524F4D20435243206D69736D61745F
:101B60006368202D202873746F72656429200045F6
:101B70004550524F4D20436F72727570740A0020A9
:101B800053697A653A2000496E6465783A200029E5
:101B90000A002062797465733B2063726320002021
:101BA00073746F7265642073657474696E677320F3
:101BB00072657472696576656420280000401C4572
:101BC00000401C450000C8420000C8410000A0427F
:101BD0000000A0420000C8430000BE42F401000023
:101BE000F40100006400000088130000204D6172C1
:101BF0006C696E3D563838290A00454550524F4DA4
:101C00002076657273696F6E206D69736D617463A0
:101C1000682028454550524F4D3D0020436F756E5A
:101C20007420583A00426564004531004500626501
:101C300064002C2073797374656D2073746F7070F9
:101C4000656421204865617465725F49443A2000EB
:101C50004572723A204D415854454D50004D4158FF
:101C600054454D5020747269676765726564004819
:101C7000656174696E67204661696C6564004865DA
:101C80006174696E67206661696C65640045727293
:101C90003A204D494E54454D50004D494E54454D06
:101CA00050207472696767657265640054484552D4
:101CB0004D414C2052554E41574159005468657270
:101CC0006D616C2052756E6177617900202F002064
:101CD00042403A0020403A007C3C3E5E2B3D3F2F84
:101CE0005B5D3B2C2A225C005344206361726420BC
:101CF0006F6B0A006F70656E526F6F74206661695A
:101D00006C65640A00766F6C756D652E696E69741A
:101D1000206661696C65640A004E6F20534420633D
:101D20006172640A000A4D3234004D32332025734B
:101D3000002E0A006F70656E206661696C65642C08
:101D40002046696C653A200046696C652073656CB5
:101D500065637465640A002053697A653A20004619
:101D6000696C65206F70656E65643A2000454E446D
:101D700020535542524F5554494E450A0022207077
:101D80006F73002220706172656E743A22005355A1
:101D900042524F5554494E452043414C4C207461AA
:101DA000726765743A220053756263616C6C204FF0
:101DB000766572666C6F7700457863656564656407
:101DC000206D617820535542524F5554494E45205D
:101DD00064657074683A0057726974696E6720743C
:101DE0006F2066696C653A200066726573680064EE
:101DF0006F696E67002066696C653A20004E6F77E8
:101E000020002F6175746F25632E6700200140014B
:101E100030013B01400136016001310170012C01AC
:101E200090012701B0012201C0011D01F00118013C
:101E30001002130130020E01600209019002040138
:101E4000C002FF000003FA004003F5008003F00029
:101E5000D003EB002004E6007004E100E004DC00A5
:101E60004005D700C005D2004006CD00D006C8000E
:101E70008007C3003008BE00F008B900C009B400F4
:101E8000B00AAF00B00BAA00D00CA500000EA00055
:101E9000500F9B00C01096005012910000148C004F
:101EA000C0158700B0178200B0197D00D01B7800E4
:101EB000001E730040206E0090226900F024640030
:101EC00040275F0090295A00E02B5500102E50004B
:101ED00020304B0010324600E033410090353C008A
:101EE0001037370070383200A0392D00B03A280082
:101EF000A03B2300603C1E00103D1900903D1400E3
:101F0000103E0F00703E0A00C03E0500003F00007A
:101F1000403FFBFF803FF6FFC03FF1FF2020506CA9
:101F2000616E6E657242756666657242797465733C
:101F30003A20002046726565204D656D6F72793AD2
:101F4000200020436F6D70696C65643A204A756C9F
:101F500020323420323032360A00204C6173742033
:101F6000557064617465643A20323032362D3036F3
:101F70002D3234207C20417574686F723A202843DA
:101F80007265616C6974792043522D3130290A00E1
:101F90004D61726C696E20322E312E322E380A005D
:101FA00020536F6674776172652052657365740A99
:101FB00000205761746368646F67205265736574AD
:101FC0000A002042726F776E206F7574205265731D
:101FD00065740A002045787465726E616C205265E4
:101FE0007365740A00506F77657255700A007374D8
:101FF0006172740A004732385859004D313030311F
:10200000006F6B006572726F722077726974696E0F
:102010006720746F2066696C650A00446F6E6520E6
:10202000736176696E672066696C652E0A004D32B1
:102030003900456E6473746F7073002553202563F7
:1020400020256320256320256300656E6473746F0B
:102050007073206869743A200000000001020009D2
:102060000A00000000040308070000000000000050
:1020700000000000000000000024F404D9201BC46C
:102080000C5C0E9804C4095F0265077101F405F940
:1020900000FB04B30048048700C1036900580355DE
:1020A0000003034500BE023A008402310053022AB5
:1020B000002902250004022000E4011C00C80119C7
:1020C00000AF011700980114008401130071011082
:1020D000006101100051010E0043010D0036010B9B
:1020E000002B010B0020010B00150109000C010958
:1020F0000003010800FB000800F3000800EB0007E4
:1021000000E4000600DE000600D8000600D200064B
:1021100000CC000500C7000500C2000500BD00049A
:1021200000B9000400B5000400B1000400AD0004D3
:1021300000A9000400A5000300A20003009F000402
:10214000009B000300980003009500020093000329
:1021500000900003008D0002008B00030088000245
:10216000008600020084000300810002007F00025C
:10217000007D0002007B0002007900020077000170
:10218000007600020074000200720001007100027B
:10219000006F0002006D0001006C0002006A000187
:1021A000006900020067000100660001006500018F
:1021B0000064000200620001006100010060000193
:1021C000005F0002005D0001005C0001005B000197
:1021D000005A000100590001005800010057000199
:1021E000005600010055000100540001005300009A
:1021F0000053000100520001005100010050000195
:10220000004F0001004E0000004E0001004D000193
:10221000004C0001004B0000004B0001004A00018F
:10222000004900010048000000480001004700018B
:102230000046000000460001004500000045000186
:102240000044000100430000004300010042000080
:102250000042000100410000004100010040000177
:10226000003F0000003F0001003E0000003E000172
:10227000003D0000003D0001003C0000003C00006B
:10228000003C0001003B0000003B0001003A000060
:10229000003A000100390000003900010038000058
:1022A000003800000038000100370000003700014E
:1022B0000036000000360000003600010035000046
:1022C000003500000035000100340000003400003B
:1022D000003400010033000000330000003300012F
:1022E0000032000000320000003200010031000026
:1022F000003100000031000100300000003000001B
:1023000000300001002F0000002F0000002F00000F
:10231000002F0001002E0000002E0000002E000102
:10232000002D0000002D0000002D0000002D0001F8
:10233000002C0000002C0000002C0000002C0001EC
:10234000002B0000002B0000002B0000002B0001E0
:10235000002A0000002A0000002A0000002A0001D4
:1023600000290000002900000029000000290000C9
:1023700000290001002800000028000000280000BB
:1023800000280000002800010027000000270000AE
:1023900000270000002700000027000100260000A1
:1023A0000026000000260000002600000026000194
:1023B0000025000000250000002500000025000089
:1023C000002500000025000100240000002400007A
:1023D000002400000024000000240001002300006D
:1023E0000023000000230000002300000023000061
:1023F0000023000000230001002200000022000052
:102400000022000000220000002200000022000143
:102410000021000000210000002100000021000038
:102420000021000000210000002100010020000028
:10243000002000000020000000200000002000001C
:10244000002000000020000000200001001F00000C
:10245000001F0000001F0000001F0000001F000000
:10246000001F0000001F0001001E0000001E0000F1
:10247000001E0000001E00000024F4D43050C38E63
:1024800020C2A24017828B7011127A910D816CD9F3
:102490000AA861E108C7586607615143061E4B5DF3
:1024A00005C145A7041A411104093D98037139314A
:1024B000034036DB0265339102D4305402802E1D76
:1024C00002632CEE01752AC501B028A001102781F6
:1024D000018F2564012B244B01E0223401AC211F24
:1024E000018D200D01801FFC00841EED00971DDF73
:1024F00000B81CD200E61BC600201BBC00641AB248
:1025000000B219A8000A19A0006A189900D1179101
:102510000040178B00B516840031167E00B3157984
:10252000003A157300C7146F0058146A00EE136662
:10253000008813630025135E00C7125B006C1257FE
:102540000015125400C111510070114F0021114BA0
:1025500000D61049008D104700461044000210427A
:1025600000C00F4000800F3E00420F3C00060F3BB2
:1025700000CB0E3800930E37005C0E3500270E346A
:1025800000F30D3200C10D3100900D3000600D2EB2
:1025900000320D2D00050D2C00D90C2B00AE0C299E
:1025A00000850C29005C0C2700350C27000E0C263A
:1025B00000E80B2400C40B2400A00B23007D0B2398
:1025C000005A0B2100390B2100180B2000F80A1FBC
:1025D00000D90A1E00BB0A1E009D0A1D00800A1DAC
:1025E00000630A1C00470A1B002C0A1B00110A1A70
:1025F00000F7091A00DD091900C4091900AB09190F
:1026000000920917007B091800630917004C09168E
:102610000036091600200916000A091500F50815EC
:1026200000E0081400CC081400B8081400A4081432
:1026300000900813007D0812006B08130058081260
:102640000046081200340811002308110012081176
:102650000001081100F0071000E0071000D007107B
:1026600000C0071000B0070F00A107100091070E6F
:102670000083070F0074070F0065070E0057070E51
:102680000049070E003B070D002E070E0020070D26
:102690000013070D0006070D00F9060C00ED060DEE
:1026A00000E0060C00D4060C00C8060C00BC060CAA
:1026B00000B0060C00A4060B0099060C008D060B5A
:1026C0000082060B0077060B006C060B0061060A01
:1026D0000057060B004C060A0042060A0038060A9C
:1026E000002E060A0024060A001A060A001006092F
:1026F0000007060A00FD050900F4050900EB0509BD
:1027000000E2050900D9050900D0050900C705093F
:1027100000BE050900B5050800AD050800A50509BE
:10272000009C050800940508008C05080084050835
:10273000007C050800740508006C050700650508A5
:10274000005D050700560508004E05070047050710
:10275000004005080038050700310507002A050775
:1027600000230507001C050600160507000F0507D6
:10277000000805060002050700FB040600F5040733
:1027800000EE040600E8040600E2040700DB04068D
:1027900000D5040600CF040600C9040600C30406E1
:1027A00000BD040600B7040600B1040500AC040631
:1027B00000A6040600A00405009B0406009504057D
:1027C00000900406008A04050085040500800406C4
:1027D000007A04050075040500700405006B04050B
:1027E0000066040500610405005C0405005704054B
:1027F00000520405004D040500480405004304058B
:10280000003E0404003A04050035040500300404C9
:10281000002C04050027040400230405001E040402
:10282000001A04040016040500110404000D040439
:1028300000090405000404040000040400FC03046F
:1028400000F8030400F4030400F0030400EC0304A4
:1028500000E8030400E4030400E0030400DC0304D4
:1028600000D8030400D4030400D0030400CC030404
:1028700000C8030300C50303005D2E00006E2300A3
:102880000013180000AF0E00003D080000630400B4
:102890000045020000270100004D6F766520246D81
:1028A0006D00302E303235004D6F766520302E3180
:1028B0006D6D004D6F766520316D6D004D6F7665E5
:1028C0002031306D6D004D6F766520417869730061
:1028D0004D6F7665202A004D6F7665204000200000
:1028E0005072696E742066726F6D204D6564696107
:1028F000002000200020002000FFFFFF50726F62C8
:10290000696E67204661696C65640A0050726F6287
:10291000696E67204661696C656400205A3A200040
:1029200020593A200042656420583A200043616EE5
:102930006E6F74206F70656E2073756264697220AB
:1029400000220A00556E6B6E6F776E20636F6D6D9F
:10295000616E643A202200204500205A0020590070
:1029600020204D39322058005374657073207065F3
:102970007220756E697400DB0FC93F45BCDA3F8F6A
:10298000B30240FCF0274056946140FE4B9B4084CC
:10299000A5D840E0231841346A5641E8599741646C
:1029A000DBD5416E271742B4B75542CE1A9742C8BD
:1029B000AED542B5885A43D40684BFA65FA7BF747C
:1029C00043E0BF10B11AC01C2C58C0E8F697C0B83D
:1029D00049D6C04E4E17C124D355C1802497C1A0FB
:1029E000B5D5C1121A17C244AE55C2781797C26C3A
:1029F000ACD5C267885AC320746F6F206C6F6E6746
:102A000020657874727573696F6E20707265766573
:102A10006E7465640A0020636F6C6420657874725C
:102A20007573696F6E2070726576656E7465640A81
:102A3000006F6B0A00526573656E643A2000204592
:102A40003A00205A3A0020593A00583A0000002231
:102A500000250028002B0000002100240027002A68
:102A6000000202020202020202040404040404043A
:102A70000403030303030303030101010101010133
:102A800001010204081020408001020408102040C7
:102A900080010204081020408080402010080402B9
:102AA000014572726F722077726974696E67207463
:102AB0006F20454550524F4D210A0043522D313071
:102AC0002052656164792E005072696E74696E6778
:102AD0002E2E2E005072696E7420506175736564DD
:102AE00000005CE36FEA11241FBECFEFD0E4DEBF2D
:102AF000CDBF84B78093E11314BE0FB6F894A895A8
:102B000080916000886180936000109260000FBE29
:102B100012E0A0E0B1E0EAEDFEEE01E00BBF02C082
:102B200007900D92AE36B107D9F723E1AEE6B2E0D9
:102B300001C01D92A13EB207E1F715E1C2E7D5E160
:102B400004C02197FE010E9461F3C137D107C9F784
:102B50000E94B5E40C9461F70C940000CF93DF93CE
:102B6000EC01CB01BA010E94EFEE20E030E048EC2E
:102B700052E40E942BF42FE632E143E85AE30E942C
:102B8000B4F3688379838A839B83DF91CF9108951F
:102B9000CF93DF93EC01CB01BA010E94EFEE20E06E
:102BA00030E048EC52E40E942BF42FE632E143E897
:102BB0005AE30E94B4F3688379838A839B83DF910D
:102BC000CF910895CF93DF93EC01CB01BA010E941E
:102BD000EFEE20E030E040E251E40E942BF42AE0E6
:102BE00037ED43E25CE30E94B4F3688379838A8320
:102BF0009B83DF91CF910895CF93DF93EC01CB01BD
:102C0000BA010E94EDEE2AE037ED43E25DE30E9457
:102C10002BF40E9498F4688379838A839B83DF91E5
:102C2000CF910895CF93DF93EC01CB01BA010E94BD
:102C3000EFEE2AE037ED43E25DE30E942BF4688378
:102C400079838A839B83DF91CF910895CF93DF931C
:102C5000EC01CB01BA010E94EFEE688379838A838D
:102C60009B83DF91CF910895FC01518340830895A8
:102C7000CF93DF93EC01CB01BA010E94EFEE20E08D
:102C800030E04AE754E40E942BF427E137EB41EDB2
:102C900058E30E94B4F3688379838A839B83DF912E
:102CA000CF910895FC01A081B1811C92A281B381D2
:102CB0008C918F5F8C930280F381E02D90818CE06A
:102CC000989F800D1124EEEAF1E113AE84AF0895D0
:102CD000119800C087FD43C0419800C0119A00C000
:102CE00000C0119800C086FD46C0419800C0119AEE
:102CF00000C000C0119800C085FD3BC0419800C0D5
:102D0000119A00C000C0119800C084FD30C04198E5
:102D100000C0119A00C000C0119800C083FD25C0FA
:102D2000419800C0119A00C000C0119800C082FDF7
:102D30001AC0419800C0119A00C000C0119800C08C
:102D400081FD0FC0419800C0119A00C000C01198C9
:102D500000C0419800C0119A00C000C00895419A77
:102D6000BCCF419AF0CF419AE5CF419ADACF419A50
:102D7000CFCF419AC4CF419AB9CF90E080E0089577
:102D8000CF93DF93C0911111D091121181E0CE3118
:102D9000D105E4F020E030E040E05FE360910D1108
:102DA00070910E1180910F11909110110E94B4F347
:102DB0000E9493F46C1B7D0B77FF03C071956195A6
:102DC000710981E0633071050CF080E0DF91CF91F3
:102DD0000895CF93DF93DB01F9019C919130C1F00D
:102DE000943080F094509C938830D1F4808191810C
:102DF000009771F0019791838083480F591FEA0172
:102E0000188206C08C3539F49C5F9C93943041F451
:102E1000DF91CF9108958B3339F781E08C93F8CF10
:102E200020813181B9016F5F7F4F71836083420FD1
:102E3000531FEA018883808191818F3591056CF75A
:102E4000E7CF0F931F9381E00091021310910313BA
:102E500020910413309105134091FE125091FF12FE
:102E600060910013709101130417150726073707A7
:102E700008F480E01F910F9108952091EC118330A8
:102E800021F425FD0CC024FD0CC030E0A90102C0D6
:102E9000559547958A95E2F7CA018170089581E0BA
:102EA000089580E008958091DC0384FD0BC080913B
:102EB000DE0387FD07C09091DF03937081E019F472
:102EC00080E0089581E008952FEB280F2A3108F063
:102ED00047C0E22FF0E08091DC039091DD03A091E8
:102EE000DE03B091DF0304C0B695A795979587954B
:102EF0002A95D2F780FD02C081700895EE53FC4FF1
:102F0000E081EE2341F180916B0690916C06E80F11
:102F1000F92FF11D808190ED980F9A3030F08E32AC
:102F200051F4818180538A3098F4F093B703E09391
:102F3000B60381E008958D3211F08B3249F481811E
:102F400090ED980F9A3088F38E3211F48281EACF97
:102F5000F0E0E0E0EACF1092B7031092B603E9CFB9
:102F600080E00895CF93DF9385E4AEDF882309F1F5
:102F700088E04091DC035091DD036091DE037091A5
:102F8000DF03972F9170C92F90E0D92FCC0FDD1F51
:102F900071FB222720F930E0220F331F220F331F4D
:102FA000C22B67FB442740F9C42B8C2BDF91CF91B8
:102FB000089580E0DECF88DF882341F081E0209112
:102FC000B6033091B703232B09F480E008958F9264
:102FD0009F92AF92BF92CF92DF92EF92FF92FC014D
:102FE000828158E5C52E52E0D52EC81AD10887FD3A
:102FF000D394CC0CDD1CCC0CDD1C0D2C000CEE088D
:10300000FF08818178E8872E912C881A910887FD26
:103010009394880C991C880C991C092C000CAA0804
:10302000BB0880818F3FD1F190E0FC01EE0FFF1FC4
:10303000E80FF91FEF59FE4E8181928133E0880F2E
:10304000991F3A95E1F7B0E0A0E044E0B595A79567
:10305000979587954A95D1F702969C012F5F3F4F30
:10306000032E000C440B550B281939094A095B093A
:10307000A4EBB0E00E9402F3A701960128193909D8
:103080004A095B090E94E6F2C901FF90EF90DF90C8
:10309000CF90BF90AF909F908F90089590E080E088
:1030A000DCCFA4E0B0E0E7E5F8E10C948CF30E94FB
:1030B000EDEE69837A838B839C83CE0101960E9417
:1030C000139E2496E2E00C94A8F30E94EDEE2AE011
:1030D00037ED43E25DE30E942BF40E9498F4E1CFC8
:1030E000CF92DF92EF92FF92CF93DF9300D000D088
:1030F000CDB7DEB76B017C0120E030E0A9010E9472
:10310000E9EE87FD1BC06DEB77E386E095E3A70151
:1031100096010E94B4F369837A838B839C83CE01EA
:1031200001960E94139E0F900F900F900F90DF91C9
:10313000CF91FF90EF90DF90CF9008956DEB77E304
:1031400086E095EBE4CF0E94EFEE2AE037ED43E214
:103150005DE30E942BF4C4CF0E94EFEEC1CFCF926B
:10316000DF92EF92FF926B017C0120E030E0A90139
:103170000E94E9EE87FD3EC06DEB77E386E095E3C4
:10318000A70196010E94B4F341E050E00E94C59D62
:103190009B018BE237FF05C022273327261B370B05
:1031A0008DE280937C04C90164E670E00E944EF3D6
:1031B000CB01EAE0F0E0BF010E944EF3805D809316
:1031C0007D04C901BF010E944EF39C01CB01BF01E8
:1031D0000E944EF3805D80937E048EE280937F0494
:1031E000205D209380048CE794E0FF90EF90DF90C7
:1031F000CF9008956DEB77E386E095EBC1CF0E9409
:10320000EFEE20E030E040E251E40E942BF42AE0AF
:1032100037ED43E25CE30E94B4F3A1CF8F929F921B
:10322000AF92BF92CF92DF92EF92FF926B017C013F
:1032300020E030E0A9010E94E9EE87FDC3C06DEBFC
:1032400077E386E095E3A70196010E94B4F36B0152
:103250007C0120E030E0A9010E94E9EE87FF04C074
:10326000F7FAF094F7F8F09442E050E0C701B601A5
:103270000E94C59D6B017C0160E280E4C81682E477
:10328000D8068FE0E806F1048CF0C701B60120E40F
:1032900032E44FE050E00E94E6F2CA01B9012AE0B0
:1032A00030E040E050E00E94E6F2605D6093790417
:1032B00060E280EAC81686E8D80681E0E806F104F4
:1032C0008CF0C701B60120EA36E841E050E00E94E8
:1032D000E6F2CA01B9012AE030E040E050E00E9485
:1032E000E6F2605D60937A0460E280E1C81687E2EE
:1032F000D806E104F1048CF0C701B60120E137E201
:1033000040E050E00E94E6F2CA01B9012AE030E054
:1033100040E050E00E94E6F2605D60937B0460E272
:1033200088EEC81683E0D806E104F1048CF0C701EA
:10333000B60128EE33E040E050E00E94E6F2CA0118
:10334000B9012AE030E040E050E00E94E6F2605D22
:1033500060937C04C701B60124E630E040E050E011
:103360000E94E6F28AE0882E912CA12CB12CCA0191
:10337000B901A50194010E94E6F2605D60937D04AD
:103380008EE280937E04C701B601A50194010E94DC
:10339000E6F26B01CA01B901A50194010E94E6F2AF
:1033A000605D60937F0480E3C80EC092800489E76B
:1033B00094E0FF90EF90DF90CF90BF90AF909F9000
:1033C0008F9008956DEB77E386E095EB3CCF0E94FC
:1033D000EFEE20E030E048EC52E40E942BF42FE6C0
:1033E00032E143E85AE30E94B4F318CF8F929F92E0
:1033F000AF92BF92CF92DF92EF92FF926B017C016E
:1034000020E030E0A9010E94E9EE87FD6AC06DEB83
:1034100077E386E095E3A70196010E94B4F343E0C9
:1034200050E00E94C59D6B017C01C114D104E104F0
:10343000F10409F45BC0F7FE59C0F094E094D09415
:10344000C094C11CD11CE11CF11C8DE280937B0453
:10345000C701B60128EE33E040E050E00E94E6F2FA
:103460008AE0882E912CA12CB12CCA01B901A501AA
:1034700094010E94E6F2605D60937C048EE280938A
:103480007D04C701B60124E630E040E050E00E9430
:10349000E6F2CA01B901A50194010E94E6F2605D5D
:1034A00060937E04C701B601A50194010E94E6F273
:1034B0006B01CA01B901A50194010E94E6F2605DA9
:1034C00060937F0480E3C80EC09280048BE794E091
:1034D000FF90EF90DF90CF90BF90AF909F908F9034
:1034E00008956DEB77E386E095EB95CF80E2AECF64
:1034F0000E94EFEE20E030E04AE754E40E942BF413
:1035000027E137EB41ED58E30E94B4F36FCF0E94FF
:10351000EFEE20E030E048EC52E40E942BF42FE67E
:1035200032E143E85AE30E94B4F30C94FFA9CB01C3
:103530000C94D99B0C94F9870C94F9870C94B5875B
:103540000C94B5870C94B5870C94B5878091620173
:10355000882341F0609172047091730441E081E02E
:103560000C94BACD0895CF92DF92EF92FF920F9311
:103570001F930E94D1D10091EC031091ED03209193
:10358000EE033091EF036B017C01C01AD10AE20A0D
:10359000F30A9701860137FD11C02091EB032095B6
:1035A0002093EB036A547C4F8F4F9F4F6093EC0343
:1035B0007093ED038093EE039093EF0381E090917D
:1035C000EB03911101C080E01F910F91FF90EF90EC
:1035D000DF90CF900895CF93DF93C0911111D091D8
:1035E0001211209729F160910D1170910E118091A7
:1035F0000F11909110110E9493F46E5F7F4F2497EA
:103600006C177D07ACF47093E4046093E3040E94AC
:10361000D1D1605A75418F4F9F4F6093E5047093ED
:10362000E6048093E7049093E804DF91CF91089536
:103630001092E5041092E6041092E7041092E80458
:10364000F4CFB0E0A0E0E7E2FBE10C9485F36B017E
:10365000E9014A3009F4D5C0453109F081C0DB01E8
:103660001296ED91FC91F28096818781139A00C0A9
:103670000000E6E2F0E03197F0F7092F182FEF2C69
:10368000E29420EFE22230E1B32EBF0CE80188EF94
:103690001FDB00C0000086E290E00197F0F7BFE179
:1036A000BF1508F49BC08F2D8077806811DB8E2DAD
:1036B0000FDB00C0000086E290E00197F0F780E8A1
:1036C00007DB80E005DB00C0000086E290E00197A8
:1036D000F0F78AEFFDDA00C0000086E290E0019783
:1036E000F0F7005F1F4F8881807FF2DA8991829521
:1036F000807FEEDAC017D107B1F700C0000086E284
:1037000090E00197F0F7F394E0E1EE0EFB10BECFEE
:103710001398D6011296ED91FC9180819281980FB9
:1037200092832181921708F09FC194819F5F9483B7
:103730009381890F821710F08FEF820F8383458169
:1037400050E0440F551F70E060E0868197810E9431
:103750000DF781E0CDB7DEB7E9E00C94A1F3DEC14F
:10376000FB0102811381423309F485C108F48DC144
:10377000463409F475C1473409F482C14B3349F723
:1037800089812B81D80112967C91129713963C91D6
:10379000213009F4BFC1233009F0A0C148EF480F20
:1037A000582F91E0341708F490E031E0541708F0F6
:1037B00030E0492F432B61E0571708F460E04623BF
:1037C00011F4932331F2FA8030E0F901E756FE4F0D
:1037D000D0802B563E4FF901E08099C180EE8F0DCD
:1037E0008068807F75DA8F2D8295807F71DA00C0C6
:1037F000000086E290E00197F0F780E869DA80E85F
:1038000061CF0B9A1398399A4198099A119A139A91
:1038100000C0000086E290E00197F0F788E790E0B2
:10382000CEE9DFE0FE013197F1F70197D9F788EF94
:103830004FDA00C0000086E290E00197F0F780E2E6
:1038400047DA80E045DA00C0000086E290E00197A8
:10385000F0F780E03DDA80E83BDA00C0000086E265
:1038600090E00197F0F780E033DA80E131DA00C0D0
:10387000000086E290E00197F0F7CE010197F1F7A2
:10388000CE010197F1F7CE010197F1F7CE01019733
:10389000F1F7CE010197F1F7CE010197F1F7CE01D3
:1038A0000197F1F7CE010197F1F7CE010197F1F7FA
:1038B000CE010197F1F7CE010197F1F7CE01019703
:1038C000F1F7CE010197F1F7CE010197F1F72197BA
:1038D000F1F780E2FDD980E4FBD900C0000086E268
:1038E00090E00197F0F780E2F3D980E6F1D900C0CB
:1038F000000086E290E00197F0F7D0E0C0E08C2F66
:1039000080778068E5D98D2FE3D900C0000086E27A
:1039100090E00197F0F780E8DBD980E0D9D900C0CA
:10392000000086E290E00197F0F78AEFD1D900C05D
:10393000000086E290E00197F0F780E2119800C065
:10394000419800C0119A00C000C0119800C0419871
:1039500000C0119A00C000C0119800C0419800C07A
:10396000119A00C000C0119800C0419800C0119A7F
:1039700000C000C0119800C0419800C0119A00C05A
:1039800000C0119800C0419800C0119A00C000C04A
:10399000119800C0419800C0119A00C000C0119851
:1039A00000C0419800C0119A00C000C0119800C02A
:1039B000419800C0119A00C000C0119800C0419801
:1039C00000C0119A00C000C0119800C0419800C00A
:1039D000119A00C000C0119800C0419800C0119A0F
:1039E00000C000C0119800C0419800C0119A00C0EA
:1039F00000C0119800C0419800C0119A00C000C0DA
:103A0000119800C0419800C0119A00C000C01198E0
:103A100000C0419800C0119A00C000C000C0000062
:103A2000E6E2F0E03197F0F7815009F087CF88EFB8
:103A30004FD900C0000086E290E00197F0F7CF5F19
:103A4000D05FC03209F05BCF80E042D980EC40D932
:103A500000C0000086E290E00197F0F7139879CE5D
:103A6000F8018581888375CE80E0CDB7DEB7E9E0C7
:103A70000C94A1F353C0B901C8010E9447D269CE8A
:103A8000D80111968C91888364CE443191F04731EE
:103A900009F05FCE1882D80112968C911297898313
:103AA00015968C91159781508A8313968C918B83F0
:103AB00050CED80115964C91159750E0440F551FE4
:103AC00070E060E016968D919C910E940DF7F801D0
:103AD000128280818150838314823BCE381708F490
:103AE00038CE871708F435CEFA80E12CD12C24305B
:103AF00070F46ACEBE01C8010E9447D289819881C4
:103B00009D0D98838E0D8983FF0C09F422CEF7FE5C
:103B1000F6CFF0CF58E0580F482F43CE2091E9035D
:103B2000022E000C330B8217130641F08093E90339
:103B300061ED7FE082EB91E10C949BD40895EF92CC
:103B4000FF920F931F93CF93DF93EC018B017A01C8
:103B50008A859B858617970731F0888199810E9415
:103B60009BD41B870A87B701888199810E94A3CEC5
:103B70002E813F81820F932F911D9F838E8390E032
:103B800080E0CDB7DEB7E6E00C94A4F3B0E0A0E0AF
:103B9000ECECFDE10C9484F3EC017B018A018A8555
:103BA0009B858617970731F0888199810E949BD465
:103BB000FB86EA8688859985019609F5CC80DA80AE
:103BC0008E81D80EA880B980D5015596ED91FC91D3
:103BD000C5010995C80E780110E0F70121917F0118
:103BE00021111FC08E819F81810F911D9F838E8324
:103BF00090E080E0CDB7DEB7EAE00C94A0F3EE8071
:103C0000FF80B801888199810E94A3CE8E0D9F2DDF
:103C1000911D288539852817390780F681E090E0C5
:103C2000E9CF4C2D6D2DC5010E94F3D4D80E180F8D
:103C3000D4CFB0E0A0E0EFE1FEE10C9487F3EC011B
:103C4000D62E1CAD0BAD7C0184E0E80EF11CE98D95
:103C5000FA8DC7010995412F480F2D2D602FC701FF
:103C60000E94F3D49BAD890F8BAF81E090E0CDB77C
:103C7000DEB7E7E00C94A3F3CF93C0910304CC2309
:103C8000C9F14CE050E060E270E085EF93E00E9403
:103C90000DF72C2F30E060E2C43630F0C90164E645
:103CA00070E00E944EF3605D60937E0480E2CA3053
:103CB00058F0EAE0F0E0C901BF010E944EF3CB01E9
:103CC000BF010E944EF3805D80937F04C9016AE0CA
:103CD00070E00E944EF3805D8093800483E0EEE705
:103CE000F4E0A9EFB3E001900D928A95E1F785E247
:103CF0008093FC03CF910895ACE0B0E0E2E8FEE1F0
:103D00000C9486F3F090E911E090EA112091F00311
:103D1000211112C047EB5CE06E2D8F2D0E944CD517
:103D200090E080E0F80EF092E911E092EA11992714
:103D30002C96E8E00C94A2F3C090B611D090B71185
:103D400022EB31E13A8329832F2D30E03C832B8312
:103D50002E2D30E03E832D8318861F827A87698757
:103D60001C861B8606EC1DE19E012F5F3F4F4CE039
:103D700052E7BC01C6010E94E0C6B60182EB91E1A8
:103D80000E949BD48F819885CDCF8091B60390916E
:103D9000B703009731F04AE050E070E060E00C9427
:103DA0000AED60E070E0CB0108958091B603909138
:103DB000B703009731F04AE050E070E060E00C9407
:103DC000DFEB60E070E0CB010895EFDF97FD0AC004
:103DD000ECDF6F3F71058105910509F02CF4E5DFFB
:103DE000862F089580E008958FEF0895CF93C62F12
:103DF000E2D8882311F0E9DFC82F8C2FCF910895E6
:103E00008091B6039091B703892B39F0DEDF91E002
:103E1000811101C090E0892F089591E0FCCFCF93EC
:103E2000DF93C82FD62FC7D8882321F0E9DFDF9191
:103E3000CF9108958C2F48D88111F9CF8D2FF7CFCE
:103E4000B4DFCB010895CF93DF93EB01B4D888237F
:103E500011F0F6DFEC01CE01DF91CF9108950F93C1
:103E60001F93CF938091B6039091B7030097F9F019
:103E7000FC018F01C1912C2F2F7DA1F0C53431F0B1
:103E8000C53621F0C83511F0C83799F7F80110820E
:103E900070E060E00E948AEAF801C083CF911F9130
:103EA0000F91089570E060E00E948AEAF7CF60E029
:103EB00070E0CB01F3CFCF92DF92EF92FF926A01D5
:103EC0007B0179D8882319F0CADF6B017C01C70117
:103ED000B601FF90EF90DF90CF900895B0E0A0E0A2
:103EE000E4E7FFE10C948CF320E24F8158856E816A
:103EF0008D810E941ACEE2E00C94A8F3E0916D044B
:103F0000E63028F581E08E0F80936D0440914C06D9
:103F100050914D0660914E0670914F0620914506D6
:103F2000909146068091780439E0E39FF0011124D6
:103F3000E95CFB4FA091AC11B091AD11B183A083AE
:103F40004283538364837583268397838087089590
:103F50000C942F840C941AAF0C94B797B0E0A0E0A7
:103F6000E4EBFFE10C948CF38D81282F082E000CDC
:103F7000330B90919F109217130609F09CF48093D5
:103F80009F109E01285F3F4F4E815F8164E570E086
:103F90008AE490E10E94B1EE10924910109248100C
:103FA00010924710E2E00C94A8F30F931F93CF9365
:103FB000DF936F3F11F410929F1020919F102111F9
:103FC00022C08C010E9438EE800F911FEC01C01BB3
:103FD000D10BC535D1053CF00197FC012491207C23
:103FE0002038D1F3F3CFDD27AE01B8018AE490E1A8
:103FF0000E9459EEC65BDF4E188210924910109253
:10400000481010924710DF91CF911F910F910895A2
:104010000F931F930E94D1D100912A0410912B0479
:1040200020912C0430912D04601B710B820B930B9B
:1040300097FD0CC089B183FB882780F991E089271F
:104040004A9B8260309B846080932904809129047C
:1040500081709091290491FD8260909128049817B5
:1040600049F0813009F148F0823079F0833091F0E5
:10407000809328041F910F910895913079F0923028
:10408000B9F79091270491500CC0992339F09330DF
:10409000C1F3EECF9130A9F3923051F790912704FC
:1040A0009F5F90932704E4CF992359F3933001F74E
:1040B000F5CFCF92DF92EF92FF92CF93C82F0E945D
:1040C000D1D16B017C0124EA30E74DE75FE36091D9
:1040D00022017091230180912401909125010E9479
:1040E000E9EE87FD18C08AEF90E0A0E0B0E08C0D0B
:1040F0009D1DAE1DBF1D8093170490931804A093BF
:104100001904B0931A04C0931801CF91FF90EF9057
:10411000DF90CF90089580E090E0DC01E8CF8F3011
:1041200010F48F5F08958F500895CF938091F1031D
:10413000811154C01092E9111092EA111092EB1102
:104140001092B7111092B6111092B9111092B811C5
:104150001092BB1181E08093BA1182E28093BC116E
:104160001092C1111092C011E5EDF1E123EE31E1A1
:104170008FEF81932E173F07E1F7C1E0C093D21173
:104180002BE236EB3093C8112093C711C093C911AD
:104190001092CA111092CB1190E49093CC1110920E
:1041A000CD112AE236EB3093E4112093E31121E1A3
:1041B00031E03093B5112093B4119EE19093D91161
:1041C00091E19093DA119CE19093D7118093D611ED
:1041D0008093D5110E94ACD2C093F10381E080930B
:1041E000F00380E49DE09093A1108093A0101092C2
:1041F000A3101092A21053985B9A52985A9A38982A
:10420000409A06DF109227040E942FC7CF9108958D
:104210009CE0899F802D112491E0980F9093EA03F0
:104220002CE0280F2093620630E02E5F3F4F409134
:10423000E6114217130619F014F080E0089520915A
:10424000E8119217D0F7662341F08E5F0E94D4D315
:10425000809162068E5F0E94D4D380916206909115
:10426000E611891750F32091E8119091EA0329177C
:1042700020F31092E9118093EA1181E00895ACE0F7
:10428000B0E0E5E4F1E20C9488F3FC016081718117
:10429000828193816F3F71058105910509F070F46A
:1042A0008EEA91E1C6DCE091B611F091B71131963A
:1042B000849190E02C96E6E00C94A4F31091E9111F
:1042C0000091EA112091F00321110FC047ED5CE04D
:1042D000602F812F0E944CD590E080E0180F109342
:1042E000E9110093EA119927E5CFE090B611F0901B
:1042F000B71122EB31E13A832983212F30E03C834F
:104300002B83202F30E03E832D8318861F822FEFD2
:104310003FEF3A8729871C861B8626EC3DE1AE01DC
:104320004F5F5F4FBF01C7010E9449C6B70182EBD3
:1043300091E10E949BD48F819885D0CFA8E0B0E016
:10434000E4EAF1E20C947EF36C015A014901FB01AD
:1043500090818CE0989F800D1124982FF601208188
:10436000822F880F820F880F8093E9119093EA11B2
:104370004115510509F4A0C0DA82C9827C836B83A0
:10438000011122C0AE014B5F5F4FB401C5010E9415
:10439000AFA15C018D819E81AF81B885892B8A2B6D
:1043A0008B2B09F489C0CE01059669DFF601808167
:1043B0008F5F8083853130F3CE0101960E945216C3
:1043C000E1CF10E075010DC07A0110E00AC0E114E0
:1043D000F104B9F38FEFE81AF80A10E0E114F104E0
:1043E00089F3AE014B5F5F4FB401C5010E94AFA1DD
:1043F0005C014D805E806F807884411451046104BB
:104400007104E9F0F0E24F16510461047104A9F05F
:10441000D301C2018D97A109B1090297A105B10588
:1044200070F04BE2441651046104710441F05AE00B
:104430004516510461047104E9F5112341F2F601B6
:104440008081482F410F5527551F4631510534F0C3
:10445000853020F0CE0101960E94521681E0411471
:1044600051046104710409F480E0180FF6018081A1
:10447000810F8083112369F01150AE014B5F5F4FB4
:10448000B401C7010E94AFA17C01CE010596F7DE01
:10449000F1CF411451046104710471F0FAE04F1638
:1044A00051046104710409F08CCFCE0101960E9481
:1044B000521688CF1F5F92CF2896E0E10C949AF3B2
:1044C0006FEF7FEF19CCFCCFACE0B0E0EAE6F2E2B0
:1044D0000C9486F3F090E911E090EA112091F0033A
:1044E000211112C047E95CE06E2D8F2D0E944CD542
:1044F00090E080E0F80EF092E911E092EA1199273D
:104500002C96E8E00C94A2F3C090B611D090B711AD
:1045100022EB31E13A8329832F2D30E03C832B833A
:104520002E2D30E03E832D8318861F827A8769877F
:104530001C861B8606EC1DE19E012F5F3F4F4FE05E
:1045400052E7BC01C6010E94E0C6B60182EB91E1D0
:104550000E949BD48F819885CDCFA8E0B0E0E3EB9B
:10456000F2E20C9480F37C01162F5A014901862F48
:10457000660F990B9C012F563E4F690186E0682E0D
:10458000712C10160CF03CC0AE014B5F5F4F6CE01D
:1045900072E7C7010E94AFA17C018D819E81AF812E
:1045A000B8850097A105B10559F18B379105A10593
:1045B000B10509F461C08E379105A105B10509F473
:1045C0005BC08A329105A105B105F9F417FF11C04E
:1045D00084E39DE01E3F11F080E39DE036E003029E
:1045E000B001112489DB66E070E00E944EF3061BE7
:1045F0007BC08EE39DE067DF015009F03FC000E023
:10460000802F2896EEE00C949CF384329105A1054E
:10461000B105C1F48114910459F0E6E00E02B00135
:104620001124C40169DBB3010E944EF3061BA9CF1C
:10463000A114B104E1F0F6E00F02B0011124C501AC
:1046400043DFF1CF80349105A105B10581F401501C
:10465000F6018081082E000C990BAA0BBB0B8983F5
:104660009A83AB83BC83CE01019609DE8ACFCE014B
:10467000059605DE015085CF17FDAACF81E04D815B
:104680005E816F8178854B3751056105710509F4AD
:1046900080E0810F8A30C4F001506AE00E942DF35F
:1046A000D92E082E000C990BC096092E000CAA0BCF
:1046B000BB0B89839A83AB83BC83CE010196DFDD7C
:1046C000002309F49CCF8D2D082E000C990BC09669
:1046D000092E000CAA0BBB0B89839A83AB83BC8386
:1046E000CE010196CCDD0150002309F488CF86E08D
:1046F0000802B0011124C701FFDA66E070E00E94F1
:104700004EF3061B7DCF6FEF7FEFDECEA4E0B0E06F
:10471000ECE8F3E20C9482F34C016B010E9493A14C
:10472000A82EC6010E94A1A1B12C23E130E079019D
:10473000E81AF10815E2EA14FB040CF41FE1812FDA
:1047400090E09C012E5F3F4F4091E6114217130607
:1047500009F094F509972091E8112817190664F1DA
:104760002091660630916706409164065091650677
:10477000609163061092E9111093EA1105E1C401FA
:10478000ECDE01E0C114D10499F08BEF9CE09BDEDC
:10479000EA14FB049CF4145F8091E611181740F0B2
:1047A0002091E811412F4950550B2417150644F468
:1047B0002496ECE00C949EF300E0E4CF0023C1F3D8
:1047C00080E290E0A0E0B0E089839A83AB83BC8371
:1047D0008E2D880FE80EEE0CE092E9111093EA118D
:1047E000CE0101964CDDC6018EDFE2CFACE0B0E039
:1047F000ECEFF3E20C9482F3982F862F5A016901B3
:10480000E02E692F05DD882309F487C0C601002347
:1048100081F10E9493A1F82E8090B6119090B7116B
:104820008091F003811143C02FEF3FEF922E03E1FF
:104830000F192091660630916706409164065091E9
:10484000650660916306C50188DEFF2009F465C036
:10485000B6E08B9F8001112489EF9CE034DE0730A5
:10486000110508F442C087EF9CE02ADE081B190BF3
:10487000F6CF0E94A1A1F82E8090B6119090B711AA
:104880008091F003882381F2FE0133968AE0DF01F4
:104890001D928A95E9F782EB91E19A8389830FE96A
:1048A0001DE19E012F5F3F4F4FE052E712C0FE0116
:1048B00033968AE0DF011D928A95E9F782EB91E158
:1048C0009A8389830FE91DE19E012F5F3F4F4CE0E2
:1048D00052E7B601C4010E94E0C6B40182EB91E147
:1048E0000E949BD42F813885A1CF40916206292D4B
:1048F00030E056E0F59EC00111242E5F3F4F28178F
:1049000039070CF49C0180E8821B8093E9114093E5
:10491000EA11C601EE2029F0D3DD2C96ECE00C94D0
:104920009EF3F1DEFACF0C94B4C74F925F926F9270
:104930007F928F929F92BF92CF92DF92EF92FF92DF
:104940000F931F93CF93DF931092E1031092E00334
:104950002FE32093E4031092E3031092E2031092FA
:10496000DC031092DD031092DE031092DF039C0142
:10497000F90190812F5F3F4F9032D1F39E34C9F4FB
:10498000818190ED980F9A3020F08D3211F08B32AA
:1049900081F432969F012F5F3F4F808180538A3090
:1049A00008F46DC09F012F5F3F4F8081803209F472
:1049B00068C0F0936C06E0936B068F010F5F1F4F8A
:1049C000C0816AE270E0C8010E9427F7009731F0C9
:1049D000FC01319780818032E1F31182CD3421F0E6
:1049E000C43511F0C734D9F5F80180810F5F1F4F2E
:1049F0008032D1F380538A3090F5C093E40390E085
:104A000080E06AE0AF014F5F5F4F689F9001699F50
:104A1000300D1124C901C0972081820F911D27FDFF
:104A20009A95FA01208120532A3060F39093E30392
:104A30008093E203DF0131962C912032D9F3CD34FB
:104A400061F58E31910539F0F0F48731910519F057
:104A50008C31910511F5B093E103A093E003DF9150
:104A6000CF911F910F91FF90EF90DF90CF90BF906B
:104A70009F908F907F906F905F904F900895F90175
:104A800089CFF9018FCF8537910538F087379105A8
:104A900010F3803A13E09107F1F280906B0690904A
:104AA0006C0640E050E0BA0130E020E0C12CD12C8F
:104AB0007601C394FD013196DC91DD2309F484C0B5
:104AC000D132F1F4CD34E1F480329105C9F4409350
:104AD000DC035093DD036093DE037093DF03F093F8
:104AE000E103E093E00363E270E0CF010E9427F767
:104AF000009709F4B4CFFC011082B1CFDF01DACF07
:104B0000D154DA3108F05BC0DF011D91103291F011
:104B1000A0EDA10FAA30E8F01E3271F4A181A053DC
:104B2000AA30B8F02115310519F49F01215031093F
:104B3000B12C13C0FD01E8CF1D3211F01B3291F7EB
:104B4000A181B0EDBA0FBA3020F0AE3259F7A28190
:104B5000E6CFBE2EB818309759F3AD2FB0E026013E
:104B6000370104C0440C551C661C771CDA95D2F73B
:104B70004429552966297729AE53BC4FBC92A081A0
:104B8000A154AA3108F4BACFDF01D191DD2309F491
:104B900091CF00EDB02EBD0E19E01B15A8F713ED57
:104BA000B12EBD0E11E01B1578F7DB3269F3FD0164
:104BB0003196DC91D03209F07DCFDF01F8CF21159D
:104BC0003105E9F69D01DBCF3093E1032093E0034B
:104BD0004093DC035093DD036093DE037093DF03A7
:104BE0003ECFFC01659175918591949108958091D6
:104BF0006906882319F080E00E94FA9880E0089501
:104C0000CF93C82F882379F020E030E0A90160918C
:104C1000B1047091B2048091B3049091B4040E94E5
:104C2000E9EE8823C1F08091B0048C17A1F00E94B6
:104C30001D888CE090E10E943F888091B00491E053
:104C400089278093B004882321F08CE090E10E94B2
:104C5000E0860E947596CF9108959091B00481E00E
:104C60008927CECF4F925F926F927F928F929F92C1
:104C7000AF92BF92CF92DF92EF92FF921F93CF93AA
:104C8000DF93EC01162F2091AC043091AD044091DC
:104C9000AE045091AF04688179818A819B810E9422
:104CA000E9EE882309F497C0B090B00480E0A8DF53
:104CB000C880D980EA80FB8020E030E0A901C701EC
:104CC000B6010E9417F518161CF0C12CD12C7601E4
:104CD000C092AC04D092AD04E092AE04F092AF0466
:104CE0002DEB37E346E855EBC701B6010E9417F5F7
:104CF00087FD0BC02DEB37E346E855E3C701B6014E
:104D00000E94E9EE18160CF076C0A701960160E04B
:104D100070E080E89FE30E942BF46093A0047093FE
:104D2000A1048093A2049093A30480EF9FEFA9E7CE
:104D3000B4EC80939A0490939B04A0939C04B0934A
:104D40009D04BB2009F447C040900C1050900D10FA
:104D500060900E1070900F108090101090901110B5
:104D6000A0901210B0901310C0901410D090151095
:104D7000E0901610F090171081E042DF112359F1F6
:104D800020910C1030910D1040910E1050910F1089
:104D9000C301B2010E94E9EE81111BC020911010E5
:104DA000309111104091121050911310C501B401AF
:104DB0000E94E9EE81110DC0209114103091151060
:104DC0004091161050911710C701B6010E94E9EEEC
:104DD00081110E94B296DF91CF911F91FF90EF90C9
:104DE000DF90CF90BF90AF909F908F907F906F900B
:104DF0005F904F90089560E070E0CB018ECFB0E0FF
:104E0000A0E0E5E0F7E20C947EF3EC012091A4042D
:104E10003091A5044091A6045091A704688179813E
:104E20008A819B810E94B3F34B015C012091A8040D
:104E30003091A9044091AA045091AB046C817D810A
:104E40008E819F810E94B3F36B017C01A5019401C7
:104E50006091AE037091AF038091B0039091B10364
:104E60000E94E9EE882309F459C08092AE03909223
:104E7000AF03A092B003B092B1032091A60330918A
:104E8000A7034091A8035091A903C501B4010E9452
:104E90004EEF2B013C010E94C4F44B015C0120E069
:104EA00030E0A9010E94E9EE87FD6DC020E030E00E
:104EB00040E050E4C501B4010E9417F518162CF427
:104EC000812C912CA12CC0E4BC2EA5019401C3011E
:104ED000B2010E94B3F32B013C0120E030E0A901B4
:104EE0000E94E9EE87FD53C040929E0350929F03BB
:104EF0006092A0037092A103C501B4010E9493F4D3
:104F000060939C03062E000C770B6F5F7F4F62301F
:104F1000710514F062E070E060939A0310919803B9
:104F2000D0919C03A70196016091B2037091B303E5
:104F30008091B4039091B5030E94E9EE811130C0D5
:104F40001D1387C02091800330918103409182031B
:104F50005091830360919E0370919F038091A00301
:104F60009091A1030E944EEF20918403309185031C
:104F700040918603509187030E94B4F3CDB7DEB70A
:104F8000E0E10C949AF3812C912C54019ECF109265
:104F90009E0310929F031092A0031092A103ACCF26
:104FA000C092B203D092B303E092B403F092B5037F
:104FB0002091AA033091AB034091AC035091AD0313
:104FC000C701B6010E944EEF4B015C010E94C4F480
:104FD0006B017C0120E030E0A9010E94E9EE87FD31
:104FE00005C120E030E040E050E4C701B6010E9476
:104FF00017F518162CF4C12CD12CE12CB0E4FB2EA3
:10500000A7019601C501B4010E94B3F34B015C01F5
:1050100020E030E0A9010E94E9EE87FDEBC080921C
:10502000A2039092A303A092A403B092A503C70188
:10503000B6010E9493F460939D03062E000C770B3B
:105040006F5F7F4F6230710514F062E070E0609333
:105050009B03C0919D031D1305C0809199038C177C
:1050600009F479C080919C0390919D0390939903DA
:10507000809398038D2FDD0F990B0C2E000CDD0B08
:10508000AC01440F551F840F951FFC01EC0FFD1F51
:10509000EE0FFF1FEE0FFF1FE254FB4F2081318107
:1050A0004281538120939403309395034093960358
:1050B00050939703E0919B030E2FEE0F110BDC0131
:1050C000A00FB11FAA0FBB1FAA0FBB1FA254BB4F3B
:1050D0006D917D918D919C910E94B3F360939003AB
:1050E00070939103809392039093930380919A031A
:1050F000282F880F330BC901880F991F820F931F28
:10510000C80FD91FCC0FDD1FCC0FDD1FC254DB4FE2
:10511000288139814A815B8120938C0330938D03F0
:1051200040938E0350938F03FC01E00FF11FEE0FAD
:10513000FF1FEE0FFF1FE254FB4F608171818281E0
:1051400093810E94B3F360938803709389038093E3
:105150008A0390938B038090A2039090A303A09066
:10516000A403B090A5032091900330919103409146
:10517000920350919303C501B4010E944EEF209118
:1051800094033091950340919603509197030E94A8
:10519000B4F36B017C01C0928403D0928503E0924A
:1051A0008603F09287032091880330918903409110
:1051B0008A0350918B03C501B4010E944EEF2091E8
:1051C0008C0330918D0340918E0350918F030E9488
:1051D000B4F3A70196010E94B3F360938003709328
:1051E00081038093820390938303ACCEC12CD12C96
:1051F000760106CF1092A2031092A3031092A4038B
:105200001092A50314CFEEEAF3E080EF9FEFA9E739
:10521000B4EC84839583A683B78380839183A28330
:10522000B383E8E9F3E08DE98183808308958F9269
:105230009F92AF92BF92CF92DF92EF92FF92FC01CA
:1052400098E0A1EBB4E001900D929A95E1F788E027
:10525000FB01A4EAB4E001900D928A95E1F7C090B9
:10526000B104D090B204E090B304F090B40420E014
:1052700030E0A901C701B6010E94E9EE8823E1F1FF
:10528000A701960160E070E080E89FE30E942BF4A4
:105290006B017C018090B5049090B604A090B70497
:1052A000B090B80420E030E0A901C501B4010E942B
:1052B000E9EE882329F1A501940160E070E080E81F
:1052C0009FE30E942BF4C092A603D092A703E09222
:1052D000A803F092A9036093AA037093AB03809391
:1052E000AC039093AD03FF90EF90DF90CF90BF9011
:1052F000AF909F908F900895C12CD12C7601CACF8A
:1053000060E070E0CB01DFCF1092A8041092A904F6
:105310001092AA041092AB041092A4041092A50457
:105320001092A6041092A7041092B5041092B6042D
:105330001092B7041092B8041092B1041092B20403
:105340001092B3041092B404EEEBF4E022EE34E0D9
:1053500080E090E0A0ECBFE780839183A283B383D9
:1053600084839583A683B78380879187A287B38739
:105370003C962E173F0781F70895CF92DF92EF9268
:10538000FF926B017C0183E3C816D104E104F104B0
:1053900070F082E3C81AD108E108F10862E370E016
:1053A00080E090E00E9448D10E94C480ECCFC70109
:1053B000B6010E9448D10E94C480FF90EF90DF9018
:1053C000CF90089580914610813069F09091061336
:1053D00092FB882780F992FF07C097FB882780F906
:1053E00091E08927089581E00895A1E1B0E0EBEF15
:1053F000F9E20C947CF3E6DF882309F46BC00E9489
:10540000959A4B015C0145E050E060E270E087EF67
:1054100093E00E940DF785E48093F5038AE380937F
:10542000F603C501B40120E13EE040E050E00E94F7
:10543000C4F269017A0119018CE3482E512C612CC8
:10544000712CC501B401A30192010E94C4F26E87C0
:105450007F87888B998BCA01B901A30192010E94B1
:10546000C4F28E010F5F1F4F20E8821621E59206DD
:1054700021E0A206B10490F17F936F93C60168E129
:1054800070E00E943AF39F938F93C501B40120E826
:1054900031E541E050E00E94C4F23F932F938FE149
:1054A0009DE09F938F931F930F930E9482EEC801FC
:1054B0000E9438EE0FB6F894DEBF0FBECDBF2CE0D1
:1054C00030E0A901481B5109CA01B8018B509C4F1B
:1054D0000E9432F76196E2E10C9498F3C114D10472
:1054E000A9F45F855F932E852F937F936F9383E15C
:1054F0009DE09F938F931F930F930E9482EE0FB6B0
:10550000F894DEBF0FBECDBF85E0D9CF54E6C516F7
:10551000D10438F47F936F93DF92CF9287E09DE0C0
:10552000E8CF7F936F93DF92CF928DEF9CE09F93B4
:105530008F931F930F930E9482EE0FB6F894DEBFF5
:105540000FBECDBF86E0BBCF90919B1180919A1189
:10555000891718F0891B19F435CF805FFBCF81E0E4
:1055600008958F929F92AF92BF92EF92FF920F9306
:105570001F93CF93DF93EC018B01E42EF22E8091E9
:10558000AC119091AD118C179D07D9F110929E042A
:1055900027EACB3CD20709F03FC080519B4371F40E
:1055A0000E94D1D16E517B4F8F4F9F4F60936E04FD
:1055B00070936F048093700490937104D093AD1135
:1055C000C093AC1130E020E000934C0610934D06E0
:1055D00020934E0630934F06E0924506F092460621
:1055E000C051DB4321F41092780410926D0482E0E4
:1055F0008093620181E080935C06109275041092A2
:105600007404DF91CF911F910F91FF90EF90BF90A5
:10561000AF909F908F9008952BE3C031D20771F621
:105620008B5C974AD1F40E94D1D180906E04909007
:105630006F04A0907004B0907104681979098A0908
:105640009B0997FF0AC0809168068770873029F40C
:105650007BDFC0E3D6E78111B1CFC0E1DBE3AECFA2
:1056600020E040E070E060E080E19BE37ACF0E94C0
:10567000B7970E942F84882319F080E00E94468308
:10568000EFCFCF93DF93C0916D04CC23B1F0C15025
:10569000C0936D0489E0C89FE0011124C95CDB4F11
:1056A0006A817B812F814E81888199815ADF88852B
:1056B00080937804DF91CF910895D2DFFBCFA4E0EF
:1056C000B0E0E5E6FBE20C947CF33EDF8C830E94C5
:1056D0002ECF209145062B83722E2B5F298384E0E9
:1056E00087198A8385E0682E671883E0582E57183B
:1056F00082E0482E471881E0382E3718272C219455
:105700008B81811140C080914706882369F1809187
:105710006201882359F081E090914706911180E061
:1057200024E043EC5FE0622D0E941ACE9C8191112F
:105730009AC18B81843009F012C180914706843070
:1057400009F4BAC080916201882361F081E09091F0
:105750004706943009F080E023E04AE85FE06A8180
:105760000E941ACE16E080C180913A0610923A0645
:10577000882369F286DF80915C06882341F22496B3
:10578000E2E10C9498F39B81913039F580914706C2
:105790008130A1F080916201882361F081E09091D5
:1057A0004706913009F080E023E042EB5FE0632D93
:1057B0000E941ACE8C81811156C1D4CF80913A06B5
:1057C00010923A06882331F38FE49DE20E9456A29C
:1057D00080915C068823F1F2D2CF2B81223009F030
:1057E00018C1809147068230B1F080916201882310
:1057F00009F435C181E090914706923009F080E0CC
:1058000023E045EA5FE0642D0E941ACE9C81992333
:1058100009F4A8CF28C180913A0610923A0688234D
:1058200021F384ED9EE20E9456A280915C068823BB
:10583000E1F2A5CF80913A0610923A06882309F446
:10584000F1C020E030E04AE754E460916D067091C9
:105850006E0680916F06909170060E944EEF27E1D0
:1058600037EB41ED58E30E94B4F30E9493F45B01DF
:105870006C0121E0A21AB108C108D1081F921F9241
:105880008CE1882E88E3982E1BE2E12EFF24F3940E
:1058900000E010E021E030E040E050E06DE676E02E
:1058A00088E99FE00E94E1CE0F900F9080915C0606
:1058B000882309F4B7C063CF80913A0610923A0664
:1058C000882309F43FCF8FE791E30E9456A280918D
:1058D0005C06882309F436CF52CF80913A061092A5
:1058E0003A06882309F444C081EF92E30E9456A24D
:1058F00080915C068823E1F142CF80913A061092B4
:105900003A06882309F4B8C086E394E30E9456A2BD
:1059100080915C06882309F4AFC031CF80913A06AC
:1059200010923A06882309F43FC086E795E30E9467
:1059300056A280915C068823B9F121CF80913A0666
:1059400010923A06882309F44BC00E947E1F20E083
:1059500040E070E060E080E197E303DE10CF2B8150
:10596000253009F0FFCE80914706853009F4B5CF88
:1059700080916201882309F4F5CE81E09091470679
:10598000953009F080E023E041E85FE0662D0E9459
:105990001ACE16E081E0810F9B81891316C0809199
:1059A0004706891709F4BACF80916201882369F00C
:1059B0006B81671981E0909147062B81921380E0FB
:1059C00023E04CE65FE00E941ACE82E0810F9B81CB
:1059D000891315C0909147062B81921709F4AECF19
:1059E00080916201882359F06B81671981E02B81D6
:1059F000921380E023E04AE55FE00E941ACE8B819B
:105A00008F5F8B83998189137BCE1D5F1093460630
:105A1000B6CE8B81833009F089CE809147068330E2
:105A200009F408CF809162018823C9F011E08091C8
:105A30004706833009F010E060916D0670916E06A4
:105A400080916F06909170060E94F61900E09C010B
:105A500048E95FE0652D812F0E94F623D7CE2C8187
:105A6000222309F47CCF14E09B81191393CF8091FA
:105A70004706811709F441CF80916201882309F418
:105A800089CF6B81671981E0909147062B81921332
:105A900080E023E045E75FE00E941ACE7BCFA0E1E3
:105AA000B0E0E5E5FDE20C947FF380E1EBE6F1E0A8
:105AB000DE01119601900D928A95E1F70E942ECF9A
:105AC000D09045069D2C65E0862E8D0C7D2C719422
:105AD00073E0672ED11014C080914706882309F423
